:02000004085F93
:10D0000000D05F08FCFF5F0800000600200005015B
:08D0100004010D1700000000EF
:10D018001348144908B5884205D0134A824202D001
:10D02800124B121A98471248124A0021124B121A30
:10D03800984712481249884205D0124A824202D0C3
:10D048000A4B121A984710481049884205D0104ACE
:10D05800824202D0054B121A9847014808BD00BF0A
:10D06800D0AD071038F75F0840AE07102D0D11102E
:10D0780040AE0710FCAF0710A10E111068D93F028F
:10D08800A8D05F0870D93F0270D93F02B0D05F08BE
:0CD09800F8FF3F0219D05F080000000004
:08D0A8009CD05F0824FD3F024B
:10D0B00081F0004102E000BF83F0004330B54FEA49
:10D0C00041044FEA430594EA050F08BF90EA020FB6
:10D0D0001FBF54EA000C55EA020C7FEA645C7FEA49
:10D0E000655C00F0E2804FEA5454D4EB5555B8BF6C
:10D0F0006D420CDD2C4480EA020281EA030382EADD
:10D10000000083EA010180EA020281EA0303362D6E
:10D1100088BF30BD11F0004F4FEA01314FF4801C41
:10D120004CEA113102D0404261EB410113F0004F53
:10D130004FEA03334CEA133302D0524263EB43030A
:10D1400094EA050F00F0A780A4F10104D5F1200EA8
:10D150000DDB02FA0EFC22FA05F2801841F1000103
:10D1600003FA0EF2801843FA05F359410EE0A5F1D7
:10D1700020050EF1200E012A03FA0EFC28BF4CF008
:10D18000020C43FA05F3C01851EBE37101F00045BE
:10D1900007D54FF0000EDCF1000C7EEB00006EEBCB
:10D1A0000101B1F5801F1BD3B1F5001F0CD3490855
:10D1B0005FEA30004FEA3C0C04F101044FEA4452AC
:10D1C00012F5800F80F09A80BCF1004F08BF5FEA33
:10D1D000500C50F1000041EB045141EA050130BD13
:10D1E0005FEA4C0C404141EB0101013C28BFB1F525
:10D1F000801FE9D291F0000F04BF01460020B1FA70
:10D2000081F308BF2033A3F10B03B3F120020CDA42
:10D210000C3208DD02F1140CC2F10C0201FA0CF020
:10D2200021FA02F10CE002F11402D8BFC2F1200C85
:10D2300001FA02F120FA0CFCDCBF41EA0C0190403B
:10D24000E41AA2BF01EB0451294330BD6FEA040484
:10D250001F3C1CDA0C340EDC04F11404C4F120026F
:10D2600020FA04F001FA02F340EA030021FA04F381
:10D2700045EA030130BDC4F10C04C4F1200220FAD8
:10D2800002F001FA04F340EA0300294630BD21FA16
:10D2900004F0294630BD94F0000F83F4801306BFDC
:10D2A00081F480110134013D4EE77FEA645C18BFD0
:10D2B0007FEA655C29D094EA050F08BF90EA020F67
:10D2C00005D054EA000C04BF1946104630BD91EA5F
:10D2D000030F1EBF0021002030BD5FEA545C05D162
:10D2E0004000494128BF41F0004130BD14F58004A1
:10D2F0003CBF01F5801130BD01F0004545F0FE4115
:10D3000041F470014FF0000030BD7FEA645C1ABF49
:10D31000194610467FEA655C1CBF0B46024650EA80
:10D32000013406BF52EA033591EA030F41F40021AC
:10D3300030BD00BF90F0000F04BF0021704730B532
:10D340004FF4806404F132044FF000054FF0000107
:10D3500050E700BF90F0000F04BF0021704730B5C8
:10D360004FF4806404F1320410F0004548BF40429D
:10D370004FF000013EE700BF42004FEAE2014FEAF2
:10D3800031014FEA02701FBF12F07F4393F07F4FCD
:10D3900081F06051704732F07F4208BF704793F0D0
:10D3A0007F4F04BF41F40021704730B54FF46074E3
:10D3B00001F0004521F000411CE700BF50EA0102E6
:10D3C00008BF704730B54FF000050AE050EA01028F
:10D3D00008BF704730B511F0004502D5404261EBFF
:10D3E00041014FF4806404F132045FEA915C3FF440
:10D3F000D8AE4FF003025FEADC0C18BF03325FEADD
:10D40000DC0C18BF033202EBDC02C2F1200300FA8D
:10D4100003FC20FA02F001FA03FE40EA0E0021FAB2
:10D4200002F11444BDE600BF70B54FF0FF0C4CF4A0
:10D43000E06C1CEA11541DBF1CEA135594EA0C0F52
:10D4400095EA0C0F00F0DEF82C4481EA030621EA8D
:10D450004C5123EA4C5350EA013518BF52EA0335C8
:10D4600041F4801143F4801338D0A0FB02CE4FF07A
:10D470000005E1FB02E506F00042E0FB03E54FF0AA
:10D480000006E1FB03569CF0000F18BF4EF0010EA2
:10D49000A4F1FF04B6F5007F64F5407404D25FEA9E
:10D4A0004E0E6D4146EB060642EAC62141EA555151
:10D4B0004FEAC52040EA5E504FEACE2EB4F1FD0C93
:10D4C00088BFBCF5E06F1ED8BEF1004F08BF5FEA11
:10D4D000500E50F1000041EB045170BD06F00046C3
:10D4E00046EA010140EA020081EA0301B4EB5C0470
:10D4F000C2BFD4EB0C0541EA045170BD41F4801168
:10D500004FF0000E013C00F3AB8014F1360FDEBF8C
:10D51000002001F0004170BDC4F10004203C35DA68
:10D520000C341BDC04F11404C4F1200500FA05F3EB
:10D5300020FA04F001FA05F240EA020001F000428C
:10D5400021F0004110EBD37021FA04F642EB060102
:10D550005EEA430E08BF20EAD37070BDC4F10C042C
:10D56000C4F1200500FA04F320FA05F001FA04F2F0
:10D5700040EA020001F0004110EBD37041F10001DC
:10D580005EEA430E08BF20EAD37070BDC4F12005E7
:10D5900000FA05F24EEA020E20FA04F301FA05F24F
:10D5A00043EA020321FA04F001F0004121FA04F2F7
:10D5B00020EA020000EBD3705EEA430E08BF20EAC7
:10D5C000D37070BD94F0000F0FD101F00046400001
:10D5D00041EB010111F4801F08BF013CF7D041EA83
:10D5E000060195F0000F18BF704703F00046520087
:10D5F00043EB030313F4801F08BF013DF7D043EA58
:10D600000603704794EA0C0F0CEA135518BF95EA0D
:10D610000C0F0CD050EA410618BF52EA4306D1D194
:10D6200081EA030101F000414FF0000070BD50EAB3
:10D63000410606BF1046194652EA430619D094EA3D
:10D640000C0F02D150EA013613D195EA0C0F05D127
:10D6500052EA03361CBF104619460AD181EA03017B
:10D6600001F0004141F0FE4141F470014FF0000033
:10D6700070BD41F0FE4141F4780170BD70B54FF0CE
:10D68000FF0C4CF4E06C1CEA11541DBF1CEA13554E
:10D6900094EA0C0F95EA0C0F00F0A7F8A4EB050430
:10D6A00081EA030E52EA03354FEA013100F0888027
:10D6B0004FEA03334FF0805545EA131343EA1263F0
:10D6C0004FEA022245EA111545EA10654FEA0026A5
:10D6D0000EF000419D4208BF964244F1FD0404F55E
:10D6E000407402D25B084FEA3202B61A65EB0305BA
:10D6F0005B084FEA32024FF480104FF4002CB6EB77
:10D70000020E75EB030E22BFB61A754640EA0C00F6
:10D710005B084FEA3202B6EB020E75EB030E22BF36
:10D72000B61A754640EA5C005B084FEA3202B6EB77
:10D73000020E75EB030E22BFB61A754640EA9C0036
:10D740005B084FEA3202B6EB020E75EB030E22BF06
:10D75000B61A754640EADC0055EA060E18D04FEAC4
:10D76000051545EA16754FEA06164FEAC30343EA64
:10D7700052734FEAC2025FEA1C1CC0D111F4801F31
:10D780000BD141EA00014FF000004FF0004CB6E72A
:10D7900011F4801F04BF01430020B4F1FD0C88BFC9
:10D7A000BCF5E06F3FF6AFAEB5EB030C04BFB6EBD4
:10D7B000020C5FEA500C50F1000041EB045170BDC7
:10D7C0000EF0004E4EEA113114EB5C04C2BFD4EBF4
:10D7D0000C0541EA045170BD41F480114FF0000E78
:10D7E000013C90E645EA060E8DE60CEA135594EAF4
:10D7F0000C0F08BF95EA0C0F3FF43BAF94EA0C0FF7
:10D800000AD150EA01347FF434AF95EA0C0F7FF46B
:10D8100025AF104619462CE795EA0C0F06D152EABF
:10D8200003353FF4FDAE1046194622E750EA4106A3
:10D8300018BF52EA43067FF4C5AE50EA41047FF4B4
:10D840000DAF52EA43057FF4EBAE12E74FEA410217
:10D8500012F5001215D211D56FF47873B3EB625242
:10D8600012D94FEAC12343F0004343EA505311F069
:10D87000004F23FA02F018BF404270474FF00000FB
:10D88000704750EA013005D111F0004008BF6FF039
:10D89000004070474FF00000704700BF034613F888
:10D8A000012B002AFBD1181A0138704770B501F01E
:10D8B000AFF80025054E064CA41BA408AC4200D1CD
:10D8C00070BD56F8043B98470135F7E7D0FF3F029B
:10D8D000F8FF3F0200F014B808B500F041F8BDE8C9
:10D8E000084001F04DB800F08BBE00F097BE007804
:10D8F000B0FA80F0400970470123037070470000C0
:10D9000038B501F091F94FF4165101F07DF900207E
:10D9100000F066FB42F210750446002000F060FB48
:10D92000001B61F10001A84271F1000307D201F070
:10D930007BF901F06DF910B900F046FEEDE701F05A
:10D9400073F901F065F9044800F0E6F8BDE83840E5
:10D9500000210B2001F084BB60AE07100000000026
:10D9600000232DE9F74F0FF2C00BDBE900AB2A4E85
:10D970002A4CDFF8BC90336023600B2001F0ADFB34
:10D98000336883422368B8BF3060632B3BD1FFF715
:10D99000E1FC52465B46FFF747FD214B0022FFF7B3
:10D9A00043FDFFF753FF0A23C9F80000584307EE71
:10D9B000900AF8EEE77ADFF87C800025C8ED007A5F
:10D9C000184F07EE905A98ED007AF8EEE77AF4EEE9
:10D9D000C77AF1EE10FA13D5FF2300930023A9B202
:10D9E0001A46384600F008FA0A21384600F031FAA3
:10D9F000384600F0F7F8322000F08AFF0135E0E702
:10DA0000084800F04DFA23680133632B2360B4DD2E
:10DA100003B0BDE8F08F00BF5CAE071058AE071032
:10DA20000000303F60AE07106666666666660A40B4
:10DA30007CAE071078AE071010B5114CD4E88F3FBC
:10DA4000DB070AD42046FFF752FF30B101210D4811
:10DA500000F052FE2046FFF74FFF0223094A1E2125
:10DA6000094800F04AF80022084B0220C3E90022CE
:10DA7000A2F580329A60BDE8104000F0A9BC00BF5A
:10DA800040AE071044AE071060AE07104CAE071052
:10DA90000EB44FF0200C002300B58CB00DAA52F844
:10DAA000041BCDE904C3CDE900120392016804AA66
:10DAB000322000F07FFC0CB05DF804EB03B070473F
:10DAC00038B50446C0680D4608B100F0A7FDA3793B
:10DAD000062B0CBF0420032010FB05F080B2A080B1
:10DAE00000F08EFDE06028B10021A28801F01BFC4F
:10DAF000658038BDA0806080FBE770B500250446D6
:10DB00001646C0E90355057083710572FFF7D8FF0B
:10DB10002046666170BD00002DE9F74F8379044609
:10DB2000022B4ED143691B78012B06D929492A487B
:10DB3000FFF7AEFF03B0BDE8F08F002B0CBF4FF036
:10DB400011094FF0040948460CBF1027032701F0C4
:10DB500047FA0646384601F043FA012E054633D10E
:10DB6000484601F0A7FA8246012D30D1384601F02F
:10DB7000A1FA80464FF0010B184B6069CDE9003BDC
:10DB8000FF226B460021007800F06CFB5A461449D6
:10DB9000606900F0D7FD3146484601F061FA294638
:10DBA000384601F05DFA5E4504D148465FFA8AF1D5
:10DBB00001F067FA012D04D138465FFA88F101F0CF
:10DBC00060FA01232370B5E74FF0000ACCE74FF06D
:10DBD0000008CFE734FD3F029CAE071008000A00A2
:10DBE00008AF2F00C368002B00F0FC8070B583796C
:10DBF0000446022B82B040F0EF80868806EB460692
:10DC0000F036304600F0FCFC0546002800F0EB80C2
:10DC10003246002101F087FB6288002A00F0C780AD
:10DC2000AC4602EBC202E1682A4491F90030087860
:10DC3000002BB5BF4FF0D00E4FF0900ED823982395
:10DC400010F0400F08BF734610F0200F14BF0320E0
:10DC5000022003448CF8783008780CF1090C00F0AD
:10DC60001003002B15BF4FF0690E4FF0490E6D23C6
:10DC70004D2310F0080F08BF73468CF870300B78F6
:10DC8000033113F0020F14BF3020202013F0010FD6
:10DC90000CBF4FF0040E4FF0060E5B0103F0800343
:10DCA000034473448CF8713011F9020C11F8023CF2
:10DCB0000028B5BF4FF0D00E4FF0900ED82098201E
:10DCC00013F0400F08BF704613F0200F14BF03235A
:10DCD000022303448CF8723011F8020C00F0100398
:10DCE000002B15BF4FF0690E4FF0490E6D234D23E9
:10DCF00010F0080F08BF73468CF8733011F802EC6F
:10DD00001EF0020F14BF302020201EF0010F14BFA0
:10DD1000062304234FEA4E1E0EF0800E86449E44D6
:10DD20008CF874E011F9013C11F8010C002BB5BF1F
:10DD30004FF0D00E4FF0900ED823982310F0400FE4
:10DD400008BF734610F0200F14BF032002200344C5
:10DD50008CF8753011F8010C00F01003002B15BF82
:10DD60004FF0690E4FF0490E6D234D2310F0080F50
:10DD700008BF73468CF8763011F8010C10F0020FD2
:10DD800014BF4FF0300E4FF0200E430103F080031C
:10DD90007344DBB2C00703F1060E03F104034CBF6A
:10DDA0008CF877E08CF8773094457FF43EAF60696B
:10DDB00000F0ACFC0022334629466069009200F076
:10DDC000F3FC606900F0A5FC284600F027FC00F099
:10DDD000EBF8206102B070BD04490548FFF758FE1A
:10DDE00002B070BD70470349F7E700BF54FD3F0222
:10DDF0009CAE071070FD3F0270B544889DF810502E
:10DE00008C4222D9047A44B112FB04F214FB03F3CE
:10DE100014FB05F4120A1B0A250AC668807901EB77
:10DE2000410102387418062810D8DFE800F0040F0A
:10DE300008040F04040073546270A57005E0FE2A04
:10DE400028BFFE2272546570A37070BD7254637057
:10DE5000F3E7037A4A1CD2B2934270B51FD0013B5C
:10DE600013F0FF03C4680CD0FF290FBF4FF6FF71FA
:10DE7000110201F1FF31B1FBF3F30CBFB1FBF3F37E
:10DE80009BB225468688291B89B28E4206D92978FD
:10DE90005943C1F3072105F8011BF3E7027270BD76
:10DEA00082880021C06801F03EBA000009B504482C
:10DEB0000068044B03441B689B68029309BD000083
:10DEC000D0AD07105000000009B504480068044BAD
:10DED00003441B68DB68029309BD0000D0AD071046
:10DEE0005000000009B504480068044B03441B6857
:10DEF0005B68029309BD0000D0AD0710140000005C
:10DF000009B504480068044B03441B689B680293EE
:10DF100009BD0000D0AD07101400000009B5044889
:10DF20000068044B03441B68DB68029309BD0000D2
:10DF3000D0AD07101400000009B504480068044B78
:10DF400003441B681B69029309BD0000D0AD071094
:10DF50001400000009B504480068044B03441B6822
:10DF60005B69029309BD0000D0AD071014000000EA
:10DF700009B504480068044B03441B681B6B0293FB
:10DF800009BD0000D0AD07101400000009B5044819
:10DF90000068044B03441B685B68029309BD0000E2
:10DFA000D0AD07100000000009B504480068044B1C
:10DFB00003441B681B69029309BD0000D0AD071024
:10DFC0000000000009B504480068044B03441B68C6
:10DFD0005B69029309BD0000D0AD0710000000008E
:10DFE00009B504480068044B03441B68DB6D0293C9
:10DFF00009BD0000D0AD07100000000009B50448BD
:10E000000068044B03441B685B6C029309BD00006D
:10E01000D0AD07103000000009B504480068044B7B
:10E0200003441B685B69029309BD0000D0AD071073
:10E030004C00000009B504480068044B03441B6809
:10E04000DB68029309BD0000D0AD0710240000007A
:10E0500009B504480068044B03441B681B6902931C
:10E0600009BD0000D0AD07102400000009B5044828
:10E070000068044B03441B685B69029309BD000000
:10E08000D0AD07102400000009B504480068044B17
:10E0900003441B689B69029309BD0000D0AD0710C3
:10E0A0002400000009B504480068044B03441B68C1
:10E0B000DB69029309BD0000D0AD07102400000009
:10E0C00009B504480068044B03441B681B6A0293AB
:10E0D00009BD0000D0AD07102400000009B50448B8
:10E0E0000068044B03441B689B6A029309BD00004F
:10E0F000D0AD07102400000009B504480068044BA7
:10E1000003441B681B6C029309BD0000D0AD0710CF
:10E110002400000009B504480068044B03441B6850
:10E120001B6A029309BD0000D0AD0710100000006B
:10E1300009B504480068044B03441B685B6A0293FA
:10E1400009BD0000D0AD07101000000009B504485B
:10E150000068044B03441B689B6A029309BD0000DE
:10E16000D0AD07101000000009B504480068044B4A
:10E1700003441B68DB6A029309BD0000D0AD0710A1
:10E180001000000009B504480068044B03441B68F4
:10E190001B6B029309BD0000D0AD071010000000FA
:10E1A00009B504480068044B03441B685B6B029389
:10E1B00009BD0000D0AD07101000000009B50448EB
:10E1C0000068044B03441B681B6C029309BD0000EC
:10E1D000D0AD07101000000009B504480068044BDA
:10E1E00003441B681B69029309BD0000D0AD0710F2
:10E1F0001800000009B504480068044B03441B687C
:10E20000DB69029309BD0000D0AD071018000000C3
:10E2100009B504480068044B03441B681B6A029359
:10E2200009BD0000D0AD07101800000009B5044872
:10E230000068044B03441B685B6A029309BD00003D
:10E24000D0AD07101800000009B504480068044B61
:10E2500003441B689B6A029309BD0000D0AD071000
:10E260001800000009B504480068044B03441B680B
:10E27000DB6A029309BD0000D0AD07101800000052
:10E2800009B504480068044B03441B689B6B029368
:10E2900009BD0000D0AD07101800000009B5044802
:10E2A0000068044B03441B681B6C029309BD00000B
:10E2B000D0AD07101800000009B504480068044BF1
:10E2C00003441B685B6C029309BD0000D0AD0710CE
:10E2D0001800000009B504480068044B03441B689B
:10E2E0001B68029309BD0000D0AD07103400000088
:10E2F00009B504480068044B03441B685B6802933B
:10E3000009BD0000D0AD07103400000009B5044875
:10E310000068044B03441B681B69029309BD00009D
:10E32000D0AD07103400000009B504480068044B64
:10E3300003441B685B69029309BD0000D0AD071060
:10E340003400000009B504480068044B03441B680E
:10E350009B69029309BD0000D0AD07103400000096
:10E3600009B504480068044B03441B68DB69029349
:10E3700009BD0000D0AD07103400000009B5044805
:10E380000068044B03441B681B6A029309BD00002C
:10E39000D0AD07103400000009B504480068044BF4
:10E3A00003441B689B6A029309BD0000D0AD0710AF
:10E3B0003400000009B504480068044B03441B689E
:10E3C0005B6D029309BD0000D0AD0710480000004E
:10E3D00009B504480068044B03441B685B6802935A
:10E3E00009BD0000D0AD07100800000009B50448C1
:10E3F0000068044B03441B685B69029309BD00007D
:10E40000D0AD07100800000009B504480068044BAF
:10E4100003441B68D3F88830029309BDD0AD0710C0
:10E420000800000009B504480068044B03441B6859
:10E43000D3F89430029309BDD0AD07100800000056
:10E4400009B504480068044B03441B685B680293E9
:10E4500009BD0000D0AD07102800000009B5044830
:10E460000068044B03441B689B68029309BD0000CD
:10E47000D0AD07102800000009B504480068044B1F
:10E4800003441B68DB68029309BD0000D0AD071090
:10E490002800000009B504480068044B03441B68C9
:10E4A0001B69029309BD0000D0AD071028000000D1
:10E4B00009B504480068044B03441B685B69029378
:10E4C00009BD0000D0AD07102800000009B50448C0
:10E4D0000068044B03441B689B69029309BD00005C
:10E4E000D0AD07102800000009B504480068044BAF
:10E4F00003441B68DB69029309BD0000D0AD07101F
:10E500002800000009B504480068044B03441B6858
:10E510001B6A029309BD0000D0AD0710280000005F
:10E5200009B504480068044B03441B681B6B029345
:10E5300009BD0000D0AD07102800000009B504484F
:10E540000068044B03441B685B6B029309BD000029
:10E55000D0AD07102800000009B504480068044B3E
:10E5600003441B681B6C029309BD0000D0AD07106B
:10E570002800000009B504480068044B03441B68E8
:10E580005B6C029309BD0000D0AD071028000000AD
:10E5900009B504480068044B03441B685B6D029393
:10E5A00009BD0000D0AD07102800000009B50448DF
:10E5B0000068044B03441B689B6D029309BD000077
:10E5C000D0AD07102800000009B504480068044BCE
:10E5D00003441B689B68029309BD0000D0AD07107F
:10E5E0002C00000009B504480068044B03441B6874
:10E5F000DB6B029309BD0000D0AD07102C000000BA
:10E6000009B504480068044B03441B681B68029367
:10E6100009BD0000D0AD07100400000009B5044892
:10E620000068044B03441B685B68029309BD00004B
:10E63000D0AD07100400000009B504480068044B81
:10E6400003441B681B6C029309BD0000D0AD07108A
:10E650000400000009B504480068044B03441B682B
:10E660005B6C029309BD0000D0AD071004000000F0
:10E67000002240681146FFF745BF0022406811465E
:10E68000FFF75CBF00224068FFF74ABF00224068E6
:10E6900081F00101FFF728BF002340681A461946A0
:10E6A000FFF714BF002340681A461946FFF700BF62
:10E6B000002240681146FFF7EDBE00224068114677
:10E6C000FFF7CCBE002202214068FFF7D5BE002331
:10E6D00040681A46FFF7B4BE0322024B5A60024A52
:10E6E0001A60704780AE071098FD3F020021FFF7C7
:10E6F000E3BD0021FFF7D2BD10B5044608462170E6
:10E70000FFF778FD00232046636010BD0078FFF717
:10E71000F0BF0078FFF7EABF30B50024400818606A
:10E720001868E5B2884206D90134082C02D04008A6
:10E730001860F5E70725024B5B5D137030BD00BF25
:10E74000D4FD3F0200232DE9F041044688B0007853
:10E750000E4617460293FFF7CCFF054600BB014665
:10E76000142203A894F8008000F0DDFD0B232A4654
:10E77000404603A9ADF80C30FFF758FD07FB06F142
:10E78000049802AB0DF107028DF80750FFF7C4FFA4
:10E7900020789DF80710FFF71FFD2078FFF7A6FFF0
:10E7A000029808B0BDE8F08130B587B00A9D0446F4
:10E7B00000950078FFF748FD3DB9207802A9FFF7E2
:10E7C0005FFD9DF81430DB07F7D407B030BD0000C3
:10E7D00002220020044B1A60044B054AC3E90000E2
:10E7E0009A60FFF7F5BD00BF94AE071088AE071022
:10E7F0000000FFFF002302480360FFF7FFBB00BFDC
:10E8000098AE0710F8B506460D4600248F18BD4295
:10E810000CD0336830469B6815F8011B9847031EDF
:10E8200001DB1C44F3E7002C08BF1C462046F8BD62
:10E8300013B50446084659B10191FFF72FF8024677
:10E84000204623680199DB6802B0BDE810401847F4
:10E8500002B010BD03689B6818470023012A98BFC7
:10E860000A2230B58BB08DF8243009AC0D46B1FBCF
:10E87000F2F101FB125303F0FF03092B94BF303375
:10E880003733DBB2AA4204F8013DEFD92146FFF746
:10E89000CFFF0BB030BD10B50446FFF793FBE0602F
:10E8A000236820465B699847002808DAFFF78AFB4F
:10E8B000E368C01AA3689842F2D34FF0FF3010BD4E
:10E8C0002DE9F04107460C460D468E18B542A5EBE2
:10E8D000040807D03846FFF7DEFF031E02DB05F809
:10E8E000013BF3E74046BDE8F0810000014B024ADE
:10E8F0001A6070479CAE0710DCFD3F02024B1A689D
:10E90000024B1A60704700BFD4AD0710A0AE0710CD
:10E910000021FFF76BBD00000022014B9A60704799
:10E92000A4AE0710014B1860704700BFD8AD0710A8
:10E9300008B50F4B43B100F077F903681B6998479E
:10E94000002801DD00E000BF0A4B43B100F006FCE7
:10E9500003681B699847002801DD00E000BF064BF3
:10E960000BB100F041FC054B0BB100F073FC08BD8E
:10E970000000000000000000000000000000000097
:10E9800008B5FFF7D5FFFFF71DFB014B186008BD69
:10E990004CAF07100548064A08B5121A054900F0A1
:10E9A000B5FC054B054A1A6008BD00BF00B407104E
:10E9B00004B40710A8F75F0800B407101E1C279ABC
:10E9C000002307B51A466FF077010093FFF72AFD81
:10E9D00003B05DF804FB000007B543880A2B08D09C
:10E9E000502B0BD1094B1B684BB103B05DF804EB06
:10E9F0001847FFF7E5FF03B05DF804FB00231A4654
:10EA00006FF077010093FFF70DFDF4E7B8AE071044
:10EA1000002110B51148FFF71DFE114B1A68114B6C
:10EA20009A420CBF012200220F4B1A7001D0FFF74F
:10EA3000B1FFFFF7ABFA044600F07EFC0B4B13B1BD
:10EA4000204600E000BF00210848FFF7CBFDBDE8ED
:10EA5000104000210648FFF7D7BC00BFE5F13F0298
:10EA600000B407101E1C279AB4AE07100000000067
:10EA700099F23F02704710B504461821FEF735FFA2
:10EA8000204610BDF0B5037D0E46062B4FF0000466
:10EA90008DB000F1040712D000F1080515F8011D32
:10EAA0000A223046FFF7D9FEAF42044419D0002CA9
:10EAB000F4D02E213046FFF7CDFE0444EEE72F239D
:10EAC0006A4639460A208DF80040FFF7A5FA6846E5
:10EAD000FEF7E4FE3368024669463046DB68984735
:10EAE000044620460DB0F0BD10B50446044B11227B
:10EAF000002140F8043B00F016FC204610BD00BF8A
:10EB000004FE3F020346074A10B543F8042B01F107
:10EB1000100251F8044B914243F8044BF9D10A78A2
:10EB20001A7010BD04FE3F0210B59DF8084044EA7B
:10EB3000032343EA0242042342EA01614160037570
:10EB400010BD000007B5064B0360CB7800938B78AF
:10EB50004A780978FFF7E8FF03B05DF804FB00BFCF
:10EB600004FE3F02417470477047704708B50021AA
:10EB7000007CFFF7E7FB40EAE07008BD08B5012123
:10EB8000007CFFF7DFFB40EAE07008BD08B5007CC1
:10EB9000FFF7CAFB20EAE07008BD08B5007CFFF76C
:10EBA000B5FB20EAE07008BD13B50446007C019176
:10EBB000FFF7BAFB0028019901DC607C20B1207CC2
:10EBC000FFF7CEFB20EAE07002B010BD007CFFF73B
:10EBD000D5BB10B504461421FEF787FE204610BDB4
:10EBE00010B54FF47A73044608460021C4E90113B6
:10EBF000044B20742360012311466374FFF76AFB02
:10EC0000204610BD18FE3F020022007CFFF770BBBB
:10EC1000007CFFF7C1BB10B504461422002100F0B0
:10EC200082FB204610BD000010B588B003A8FFF796
:10EC3000F2FF0C4CD4E88F1F11F001010FD12046D8
:10EC40000191FEF754FE019948B103AA0648FFF767
:10EC5000C7FF2046FEF750FE044800F051FB024873
:10EC600008B010BDBCAE0710C0AE071029F43F02BB
:10EC700070474174704708B5007CFFF72FFA20EA0F
:10EC8000E07008BD08B5007CFFF7E2F920EAE0700B
:10EC900008BD08B5007CFFF7F7F940EAE07008BD51
:10ECA00008B5007CFFF7E2F940EAE07008BD007C9F
:10ECB000FFF7F8B937B5457C04462DB1207C03B089
:10ECC000BDE83040FFF7B6B9007C0191FFF706FAC6
:10ECD00000280199F2DC284603B030BD10B5044687
:10ECE0001421FEF702FE204610BD000010B54FF4BF
:10ECF0007A730446084611460022C4E90123044BF6
:10ED00002074236001236374FFF7F6F9204610BDD9
:10ED10004CFE3F02007CFFF7D3B97047F8B50646BA
:10ED200015460C468F18BC4206D0336830469B68A7
:10ED300014F8011B9847F6E72846F8BD0022007C2E
:10ED4000FFF7E8B90021007CFFF7F2B90021007C51
:10ED5000FFF7FCB90021007CFFF706BA0021007C18
:10ED6000FFF710BA10B504461421FEF7BEFD204689
:10ED700010BD000038B5044615464FF47A730022E2
:10ED8000C4E90123094B0846217423602946FFF793
:10ED900015FABF3008D16B69DB0705D56868FFF746
:10EDA0003DFCE868FFF73AFC204638BD80FE3F0294
:10EDB000FF210022044B0120C3E9001264211A61E3
:10EDC000C3E90201704700BFD4AE071000224068BB
:10EDD0001146FFF75FBB002240681146FFF792BB68
:10EDE000002240681146FFF7A9BB00224068FFF7E8
:10EDF00097BB0022406881F00101FFF775BB00233B
:10EE000040681A461946FFF761BB002340681A465E
:10EE10001946FFF74DBB002240681146FFF71EBBA5
:10EE2000002202214068FFF727BB002340681A46F2
:10EE3000FFF706BB0422024B5A60024A1A60704771
:10EE4000E8AE0710ACFE3F02002340681A46FFF709
:10EE5000F7BA002202214068FFF70EBB002240688B
:10EE60001146FFF7FBBA002240681146FFF712BBBC
:10EE7000002340681A461946FFF71ABB0023406872
:10EE80001A461946FFF722BB00214068FFF764BB12
:10EE900000214068FFF76EBB0022406881F001014D
:10EEA000FFF722BB00224068FFF73ABB0022406810
:10EEB0001146FFF743BB002240681146FFF722BB13
:10EEC00000214068FFF772BB2DE9F04395B014466E
:10EED0000D460746FFF708FE00211C220DA80091F1
:10EEE00000F021FA402320460C9300216B460CAA27
:10EEF000FEF7EAFF044600284BD10246012168686C
:10EF0000FFF7C8FA0221804622466868FFF7C2FA76
:10EF100021468146009E002E3BD0002939D17368DE
:10EF2000022B03D00A2B11D0F669F4E7B8F1000FD9
:10EF3000FAD0716906A804313C1D07ADFFF702FE47
:10EF40000FCD0FC42B6841462370EDE7B9F1000FD8
:10EF5000EAD0102201A8746900F0E5F9062301AD9A
:10EF60008DF8143004F1080318342A4618685968DB
:10EF7000083303C2A3421546F7D101A906A83C1DD8
:10EF800007ADFFF7BFFD0FCD0FC42B6849462370B7
:10EF9000CAE70098FEF78AFF384615B0BDE8F0834F
:10EFA000033802289ABF024B53F8200001487047EB
:10EFB000E8FE3F02F0AE071008B500224068FFF7F8
:10EFC000E7FABDE80840FFF7EBBF0000024B034A39
:10EFD0001A6000225A607047F0AE0710FCFE3F0234
:10EFE000FEF79CBF1B2837B5044602D9002003B0AA
:10EFF00030BDA0F10F03022B0BD9012821D800F05E
:10F0000059F90021007CFFF7CBF880F00100C0B275
:10F01000EDE7114DD5E88F1F11F001010BD1284606
:10F020000191FEF764FC019928B10C48FFF764FBDD
:10F030002846FEF761FC094B1878FFF7E9F800282D
:10F04000D4D1083C012C05D800F088F8007CFFF7EB
:10F0500037F8DAE70120CAE7F8AE0710FCAE071070
:10F060001B2838B504460D460AD8FF2908D0FFF7FB
:10F07000B9FF28B129462046BDE83840FEF740BF19
:10F0800038BD38B504460D46FEF748FFFF2810D0BE
:10F09000062804D84D2323FA00F0C30709D42046DC
:10F0A000FFF7A0FF28B129462046BDE83840FEF70B
:10F0B00043BF38BD10B50446FEF730FF031FDBB277
:10F0C000012B08D92046FFF78DFF20B12046BDE86F
:10F0D0001040FEF73FBF002010BD10B50446FFF7FB
:10F0E00081FF50B103212046FEF7FCFE032804D126
:10F0F0002046BDE81040FEF73BBF002010BD704722
:10F1000038B5142504462A46002100F00CF9258064
:10F110004025074928462581258200F0EFF804495B
:10F120006060284600F0EAF8E060204638BD00BF85
:10F1300038FF3F027047704710B50446FFF7E0FF05
:10F14000204610BD10B50446FFF7DAFF204610BD7B
:10F1500010B50446FFF7D4FF204610BD30B50E4D64
:10F1600087B0D5E88F1F11F0010411D12846FEF7B2
:10F17000BEFB68B101A8FFF7DFFF214601AA0748DF
:10F18000FFF7B4FD2846FEF7B7FB054800F0B8F8D6
:10F19000024807B030BD00BF04AF071010AF071022
:10F1A000BFF93F0210B50D4C86B0D4E88F3FDB07A6
:10F1B00011D42046FEF79BFB68B101A8FFF7C2FF00
:10F1C000012101AA0648FFF791FD2046FEF794FBB6
:10F1D000044800F095F8024806B010BD08AF0710CB
:10F1E00024AF0710F7F93F0210B5FFF7DBFF074B1D
:10F1F000044653B1FFF78EFD38B1236820461B69E2
:10F200009847002801DD00E000BF10BD00000000AD
:10F2100010B50D4C86B0D4E88F3FDB0711D42046E3
:10F22000FEF765FB68B101A8FFF792FF022101AA72
:10F230000648FFF75BFD2046FEF75EFB044800F042
:10F240005FF8024806B010BD0CAF071038AF0710CA
:10F25000F5F93F0210B5FFF7DBFF074B044653B14A
:10F26000FFF758FD38B1236820461B6998470028EE
:10F2700001DD00E000BF10BD00000000704700008D
:10F2800038B50A4B04460360012309494361202035
:10F2900000F034F82025606005492846A56000F09C
:10F2A0002DF8C4E90305204638BD00BF1800010051
:10F2B00038FF3F0230B50E4D87B0D5E88F1F11F0F3
:10F2C000010411D12846FEF712FB68B16846FFF72A
:10F2D000D7FF6A4621460748FFF74CFD2846FEF750
:10F2E0000BFB054800F00CF8024807B030BD00BF2A
:10F2F00050AF071054AF07103DFB3F02FEF7F3BAC3
:10F30000002301461A46184600F044B80A44431E3A
:10F31000914200D1704710B511F8014B914203F8AA
:10F32000014FF9D110BD02440346934200D170470A
:10F3300003F8011BF9E7000038B5104B04461D68BF
:10F34000AB6BB3B91820FFF75BF90246A86320B98D
:10F350000B4B42210B48FFF76FF90B490B4BC0E9F0
:10F3600000130B4B002183600B2383810120C2E932
:10F370000401AB6B00221C615A6138BDD8AD071087
:10F3800039FF3F0250FF3F020E33CDAB34126DE622
:10F39000ECDE05002DE9F843DFF8BC8006461F4689
:10F3A0000D46D8F80000914600F058F8264B1C682E
:10F3B00034B9264C1C60264B13B11B68C4F8883046
:10F3C00063681F2B07DDD8F8000000F049F84FF004
:10F3D000FF30BDE8F8835EB3D4F8880088B91D4BD0
:10F3E00023B9D8F8000000F03AF8F0E74FF4847041
:10F3F000FFF706F90028F4D00023C0E94033C4F831
:10F40000880063680122022E40F8239002FA03F27A
:10F4100000EB8301D0F8003143EA0203C0F8003169
:10F42000C1F8807002BFD0F804311343C0F8043132
:10F430006368D8F800005A1C0233626044F8235015
:10F4400000F00EF80020C4E7F4AF071068AF071013
:10F4500000000000C1EE3F023CAE0710704770474D
:10F46000704700006DE13F0295E13F0299E13F02E4
:10F47000000000005350492F5350493120696E74E9
:10F48000657266616365206E6F7420646566696E7F
:10F4900065642100506978656C2074797065206E10
:10F4A0006F7420737570706F727465642100000052
:10F4B0004E6F7420656E6F756768206D656D6F7235
:10F4C0007920617661696C61626C652100000000E1
:10F4D00000000000000000008FEF3F0285EF3F02B8
:10F4E0007BEF3F0271EF3F0265EF3F0259EF3F02B2
:10F4F00049F73F0251F73F024DEF3F0245EF3F0210
:10F500003BEF3F0231EF3F0279F83F0281F73F02C4
:10F5100089F73F0200081018202830386170700009
:10F5200025592D256D2D25645425483A254D3A251C
:10F5300053257A0061736374696D650000000000F3
:10F540000000000045F33F0235F33F0237F33F026E
:10F5500000000000000000002BF43F0293F43F0283
:10F5600069F43F02C5F03F025BF43F022DF43F0215
:10F570003DF43F028DF43F0281F13F024DF43F0222
:10F5800025F43F02000000000000000031F53F02BA
:10F590009DF53F0275F53F02C5F03F0245F53F027C
:10F5A00061F53F0253F53F026FF53F0281F13F02E3
:10F5B00033F53F0237F53F02000000000000000075
:10F5C000DBF53F0225F63F02FDF53F02DDF53F0288
:10F5D00005F63F020DF63F0215F63F021DF63F020B
:10F5E00081F13F020000000000000000EBF63F0246
:10F5F000E1F63F02D7F63F028DF63F02CBF63F021F
:10F60000BFF63F0249F73F0251F73F02B3F63F0210
:10F61000ABF63F02A1F63F0297F63F0279F83F02B0
:10F6200081F73F0289F73F0280AE0710E8AE07106E
:10F63000F0AE0710000000000000000009F73F02D4
:10F6400013F73F021DF73F0227F73F0231F73F0252
:10F650003DF73F0249F73F0251F73F0259F73F029A
:10F6600065F73F026DF73F0277F73F0279F83F02F7
:10F6700081F73F0289F73F02005245454E54206D05
:10F68000616C6C6F632073756363656564656400AA
:10F690002F6D6E742F776F726B73706163652F7748
:10F6A0006F726B73706163652F4743432D31302D4B
:10F6B000706970656C696E652F6A656E6B696E73D3
:10F6C0002D4743432D31302D706970656C696E652F
:10F6D0002D34385F32303230313132345F313630B0
:10F6E000363138303634312F7372632F6E65776C54
:10F6F00069622F6E65776C69622F6C6962632F7324
:10F7000074646C69622F72616E642E630000000085
:10F71000F9E23F0299EF3F0291F03F02B5F03F025C
:10F72000ADF13F02BDF13F02D9F13F0271F63F0258
:08F73000F5F63F028DF83F02DF
:10F7380000000002F4FD3F02DCAD071000000000ED
:10F7480000000000000000000000000000000000B1
:10F7580000000000000000000000000000000000A1
:10F768000000000000000000000000000000000091
:10F778000000000000000000000000000000000081
:10F788000000000000000000000000000000000071
:10F79800000000000000000000000000F8AF0710A3
:04F7A800000000005D
:10FFBE000200100000D05F08A8D05F0868D93F0289
:10FFCE0001000A00FFFFFFFFFFFF00000102030414
:10FFDE0005060708090A0B0C0D0E0F10111213144B
:0EFFEE0015161718191A1B1C1D1E1F203E0089
:04FFFC0078563412ED
:04000005085FD018A8
:00000001FF
