:02000004085F93
:10E0000000E05F08FCFF5F0800000600200005013B
:08E0100004010D1700000000DF
:10E018001348144908B5884205D0134A824202D0F1
:10E02800124B121A98471248124A0021124B121A20
:10E03800984712481249884205D0124A824202D0B3
:10E048000A4B121A984710481049884205D0104ABE
:10E05800824202D0054B121A9847014808BD00BFFA
:10E06800C4AD0710D8FB5F0834AE07102D0D111092
:10E0780034AE0710FCAF0710A10E1110C8E43F0220
:10E08800A8E05F08D0E43F02D0E43F02B0E05F08B8
:0CE09800F8FF3F0219E05F0800000000E4
:08E0A8009CE05F087CFD3F02D3
:10E0B000034613F8012B002AFBD1181A01387047C8
:10E0C00070B500F00DFF0025054E064CA41BA408FA
:10E0D000AC4200D170BD56F8043B98470135F7E7D4
:10E0E000D0FF3F02F8FF3F0200F025B808B500F06E
:10E0F0003DF8BDE8084000F0ABBE00F00BBD00F0FD
:10E1000017BD0078B0FA80F0400970470123037012
:10E1100070470368C9B29B6818470EB403B503ABD8
:10E1200053F8042B0021019300F0F1FD02B05DF8DB
:10E1300004EB03B0704708B501F038FB01F0A8F814
:10E1400001F034FB682101F0CEF801F02FFB4721EC
:10E15000FFF7DFFF01F02AFB0021FFF7DAFF01F0F4
:10E1600025FBBDE80840012101F0C0B838B500F03A
:10E1700031FA324C2368C01A64285DD900F02AFABB
:10E18000206001F013FB682101F0ADF801F00EFBF7
:10E190004721FFF7BEFF01F009FB002101F0A6F8BF
:10E1A00001F004FB02226821012301F084F801F050
:10E1B000FDFA0368224D5B699847287001F0F6FA72
:10E1C0000368204C5B6998471F4BC0B218702B78CE
:10E1D00040EA0320208000F087FFB4F900201B49AB
:10E1E000FFF79BFFB4F900309FED197A07EE903AE4
:10E1F000F8EEE77A67EE877A9FED167A164B174CA2
:10E20000C3ED007A67EE877A9FED157A154B0C21E6
:10E21000C3ED007A67EE877A1348C4ED007A00F008
:10E2200065F8D4ED007ABDE83840FDEEE77A0E4897
:10E2300017EE901A00F02CB938BD00BF4CAE071095
:10E240004BAE071048AE07104AAE07108CFD3F02D8
:10E250002D23FA3BCDCCCC3D40AE07107CAE071051
:10E26000610BB64044AE071050AE071007B5002250
:10E270000B4B0120C3E90022A2F580329A6000F026
:10E280004DFB042306224FF40061CDE9003205481E
:10E290000523032200F008F803B05DF804FB00BF7B
:10E2A00034AE071050AE071038B500250446C0E95B
:10E2B0000523049B0561C361059B056003628562BC
:10E2C000816090B2012101F06BF9208B012101F0F6
:10E2D00067F9A08B012101F063F9208C012101F085
:10E2E0005FF9042320466562E36038BD8268034B12
:10E2F00093FBF2F393FBF1F14160704700879303C6
:10E3000038B5C3680446022B0D460DD103290BD83E
:10E31000DFE801F00213151B0021A08A01F051F97A
:10E320000121208B01F04DF9E368042B1FD1032D4F
:10E330001DD8DFE805F00C2A303E0121EDE7012170
:10E34000A08A01F03EF90021EBE70021F8E7012166
:10E35000A08A01F036F90021208B01F032F9012169
:10E36000A08B01F02EF90021208C01F02AF9E3683E
:10E37000052B40F08C80092D00F28980DFE805F044
:10E380001F2937495F6167717F850021A08A01F0ED
:10E3900018F90121E0E70021A08A01F012F901211A
:10E3A000208B01F00EF90021A08B01F00AF9012168
:10E3B000DAE70121A08A01F004F90021F0E7002149
:10E3C000A08A01F0FEF80121208B01F0FAF801216A
:10E3D00008E00021A08A01F0F4F80121208B01F06F
:10E3E000F0F80021A08B01F0ECF800210CE00021F6
:10E3F000A08A01F0E6F80121208B01F0E2F800216B
:10E40000A08B01F0DEF80121208C01F0DAF8012167
:10E4100010E00021A08A01F0D4F80121208B01F046
:10E42000D0F80021A08B01F0CCF80121208C01F064
:10E43000C8F80021A08CBDE8384001F0C2B8012125
:10E44000E8E70121A08A01F0BCF80021E6E70121FC
:10E45000A08A01F0B6F80021208B01F0B2F801216A
:10E46000E0E70121A08A01F0ACF80021208B01F047
:10E47000A8F80121A08B01F0A4F80021D6E7012122
:10E48000A08A01F09EF800219EE70021F8E738BD40
:10E49000F8B5002981EAE1750446A5EBE17524DDB4
:10E4A0000123236000270A2685B300F085F8A36ABC
:10E4B0006268C31A9342F7D322682369012AA062D3
:10E4C00016D1A2680133934208BF3B462361D4E9C9
:10E4D0000331052B05F1FF3510D191FBF6F306FB57
:10E4E00013112046FFF70CFFDEE7DBD00023D8E74F
:10E4F0000BB9A36823612369013BE7E74B4203F0B3
:10E50000030301F0030158BF5942EAE7F8BD0000D8
:10E5100009B504480068044B03441B689B680293D8
:10E5200009BD0000C4AD07105000000009B5044843
:10E530000068044B03441B68DB68029309BD0000BC
:10E54000C4AD07105000000009B504480068044B32
:10E5500003441B689B68029309BD0000C4AD07100B
:10E560001400000009B504480068044B03441B680C
:10E57000DB68029309BD0000C4AD07101400000061
:10E5800009B504480068044B03441B681B690293E7
:10E5900009BD0000C4AD07101400000009B504480F
:10E5A0000068044B03441B685B68029309BD0000CC
:10E5B000C4AD07100000000009B504480068044B12
:10E5C00003441B681B69029309BD0000C4AD07101A
:10E5D0000000000009B504480068044B03441B68B0
:10E5E0005B69029309BD0000C4AD07100000000084
:10E5F00009B504480068044B03441B685B6C029334
:10E6000009BD0000C4AD07103000000009B5044882
:10E610000068044B03441B685B69029309BD00005A
:10E62000C4AD07104C00000009B504480068044B55
:10E6300003441B68DB68029309BD0000C4AD0710EA
:10E640002400000009B504480068044B03441B681B
:10E650001B69029309BD0000C4AD0710240000002F
:10E6600009B504480068044B03441B685B690293C6
:10E6700009BD0000C4AD07102400000009B504481E
:10E680000068044B03441B689B69029309BD0000AA
:10E69000C4AD07102400000009B504480068044B0D
:10E6A00003441B68DB69029309BD0000C4AD071079
:10E6B0002400000009B504480068044B03441B68AB
:10E6C0001B6A029309BD0000C4AD071024000000BE
:10E6D00009B504480068044B03441B689B6A029315
:10E6E00009BD0000C4AD07102400000009B50448AE
:10E6F0000068044B03441B681B6C029309BD0000B7
:10E70000C4AD07102400000009B504480068044B9C
:10E7100003441B68DB68029309BD0000C4AD071009
:10E720001000000009B504480068044B03441B684E
:10E730009B69029309BD0000C4AD071010000000E2
:10E7400009B504480068044B03441B68DB69029365
:10E7500009BD0000C4AD07101000000009B5044851
:10E760000068044B03441B681B6A029309BD000048
:10E77000C4AD07101000000009B504480068044B40
:10E7800003441B685B6A029309BD0000C4AD071017
:10E790001000000009B504480068044B03441B68DE
:10E7A0009B6A029309BD0000C4AD07101000000071
:10E7B00009B504480068044B03441B68DB6A0293F4
:10E7C00009BD0000C4AD07101000000009B50448E1
:10E7D0000068044B03441B681B6B029309BD0000D7
:10E7E000C4AD07101000000009B504480068044BD0
:10E7F00003441B685B6B029309BD0000C4AD0710A6
:10E800001000000009B504480068044B03441B686D
:10E810001B6C029309BD0000C4AD0710100000007E
:10E8200009B504480068044B03441B681B6D029340
:10E8300009BD0000C4AD07101000000009B5044870
:10E840000068044B03441B68DB69029309BD0000A8
:10E85000C4AD07101800000009B504480068044B57
:10E8600003441B681B6A029309BD0000C4AD071076
:10E870001800000009B504480068044B03441B68F5
:10E880001B68029309BD0000C4AD071034000000EE
:10E8900009B504480068044B03441B681B690293D4
:10E8A00009BD0000C4AD07103400000009B50448DC
:10E8B0000068044B03441B685B69029309BD0000B8
:10E8C000C4AD07103400000009B504480068044BCB
:10E8D00003441B689B69029309BD0000C4AD071087
:10E8E0003400000009B504480068044B03441B6869
:10E8F000DB69029309BD0000C4AD071034000000BD
:10E9000009B504480068044B03441B681B6A029362
:10E9100009BD0000C4AD07103400000009B504486B
:10E920000068044B03441B685B68029309BD000048
:10E93000C4AD07100800000009B504480068044B86
:10E9400003441B68D3F88830029309BDC4AD071097
:10E950000800000009B504480068044B03441B6824
:10E96000D3F89430029309BDC4AD0710080000002D
:10E9700009B504480068044B03441B685B680293B4
:10E9800009BD0000C4AD07102800000009B5044807
:10E990000068044B03441B689B68029309BD000098
:10E9A000C4AD07102800000009B504480068044BF6
:10E9B00003441B68DB68029309BD0000C4AD071067
:10E9C0002800000009B504480068044B03441B6894
:10E9D0001B69029309BD0000C4AD071028000000A8
:10E9E00009B504480068044B03441B685B69029343
:10E9F00009BD0000C4AD07102800000009B5044897
:10EA00000068044B03441B689B69029309BD000026
:10EA1000C4AD07102800000009B504480068044B85
:10EA200003441B68DB69029309BD0000C4AD0710F5
:10EA30002800000009B504480068044B03441B6823
:10EA40001B6A029309BD0000C4AD07102800000036
:10EA500009B504480068044B03441B681B6B029310
:10EA600009BD0000C4AD07102800000009B5044826
:10EA70000068044B03441B685B6B029309BD0000F4
:10EA8000C4AD07102800000009B504480068044B15
:10EA900003441B681B6C029309BD0000C4AD071042
:10EAA0002800000009B504480068044B03441B68B3
:10EAB0005B6C029309BD0000C4AD07102800000084
:10EAC00009B504480068044B03441B685B6D02935E
:10EAD00009BD0000C4AD07102800000009B50448B6
:10EAE0000068044B03441B689B6D029309BD000042
:10EAF000C4AD07102800000009B504480068044BA5
:10EB000003441B68DB6B029309BD0000C4AD071012
:10EB10002C00000009B504480068044B03441B683E
:10EB20001B68029309BD0000C4AD0710040000007B
:10EB300009B504480068044B03441B685B680293F2
:10EB400009BD0000C4AD07100400000009B5044869
:10EB50000068044B03441B685B6A029309BD000014
:10EB6000C4AD07100400000009B504480068044B58
:10EB700003441B681B6C029309BD0000C4AD071061
:10EB80000400000009B504480068044B03441B68F6
:10EB90005B6C029309BD0000C4AD071004000000C7
:10EBA000002240681146FFF745BF00224068114629
:10EBB000FFF75CBF00224068FFF74ABF00224068B1
:10EBC00081F00101FFF728BF002340681A4619466B
:10EBD000FFF714BF002340681A461946FFF700BF2D
:10EBE000002240681146FFF7EDBE00224068114642
:10EBF000FFF7CCBE002202214068FFF7D5BE0023FC
:10EC000040681A46FFF7B4BE0322024B5A60024A1C
:10EC10001A60704780AE0710A0FD3F0210B5044691
:10EC200008462170FFF70AFE00232046636010BDEE
:10EC300002220020044B1A60044B054AC3E900007D
:10EC40009A60FFF76BBE00BF94AE071088AE071046
:10EC50000000FFFF002302480360FFF7C9BC00BFAC
:10EC600098AE0710F8B506460D4600248F18BD4231
:10EC70000CD0336830469B6815F8011B9847031E7B
:10EC800001DB1C44F3E7002C08BF1C462046F8BDFE
:10EC900013B50446084659B10191FFF709FA024637
:10ECA000204623680199DB6802B0BDE81040184790
:10ECB00002B010BD03689B68184738B50D210546A2
:10ECC000FFF7F8FF0A2104462846FFF7F3FF204428
:10ECD00038BD0023012A98BF0A2230B58BB08DF8C9
:10ECE000243009AC0D46B1FBF2F101FB125303F0E5
:10ECF000FF03092B94BF30333733DBB2AA4204F849
:10ED0000013DEFD92146FFF7C3FF0BB030BD2DE920
:10ED1000F04186B000AF05460E46381D142114465A
:10ED20003B60FFF713FF13280ED82846391DFFF765
:10ED3000AFFF04461EB12846FFF7BFFF044420463C
:10ED40001837BD46BDE8F08100F1080323F0070342
:10ED5000E846ADEB030D2246411C3B686846FFF7D1
:10ED6000F5FE69462846FFF793FF0446C546E1E7EE
:10ED700010B50446FFF72EFCE060236820465B696F
:10ED80009847002808DAFFF725FCE368C01AA36853
:10ED90009842F2D34FF0FF3010BD2DE9F041074605
:10EDA0000C460D468E18B542A5EB040807D0384630
:10EDB000FFF7DEFF031E02DB05F8013BF3E74046E9
:10EDC000BDE8F081014B024A1A6070479CAE071003
:10EDD000DCFD3F02024B1A68024B1A60704700BF0D
:10EDE000C8AD0710A0AE07100022014B9A60704713
:10EDF000A4AE0710014B1860704700BFCCAD0710E0
:10EE000008B50F4B43B100F06FF903681B699847D1
:10EE1000002801DD00E000BF0A4B43B100F01AFCFE
:10EE200003681B699847002801DD00E000BF064B1E
:10EE30000BB100F055FC054B0BB100F087FC08BD91
:10EE400000000000000000000000000000000000C2
:10EE500008B5FFF7D5FFFFF7BDFB014B186008BDF4
:10EE60004CAF07100548064A08B5121A054900F0CC
:10EE7000C9FC054B054A1A6008BD00BF00B4071065
:10EE800004B4071048FC5F0800B407101E1C279A42
:10EE9000002307B51A466FF077010093FFF75AFD7C
:10EEA00003B05DF804FB000007B543880A2B08D0C7
:10EEB000502B0BD1094B1B684BB103B05DF804EB31
:10EEC0001847FFF7E5FF03B05DF804FB00231A467F
:10EED0006FF077010093FFF73DFDF4E7B8AE071040
:10EEE000002110B51148FFF74DFE114B1A68114B68
:10EEF0009A420CBF012200220F4B1A7001D0FFF77B
:10EF0000B1FFFFF74BFB044600F092FC0B4B13B133
:10EF1000204600E000BF00210848FFF7EDFDBDE8F6
:10EF2000104000210648FFF707BD00BF15F23F0261
:10EF300000B407101E1C279AB4AE07100000000092
:10EF4000C9F23F02704710B504461821FFF7D7F801
:10EF5000204610BDF0B5037D0E46062B4FF0000491
:10EF60008DB000F1040712D000F1080515F8011D5D
:10EF70000A223046FFF7ADFEAF42044419D0002C00
:10EF8000F4D02E213046FFF795FE0444EEE72F2300
:10EF90006A4639460A208DF80040FFF737FB68467D
:10EFA000FFF786F83368024669463046DB689847C3
:10EFB000044620460DB0F0BD10B50446044B1122A6
:10EFC000002140F8043B00F02AFC204610BD00BFA1
:10EFD00004FE3F020346074A10B543F8042B01F133
:10EFE000100251F8044B914243F8044BF9D10A78CE
:10EFF0001A7010BD04FE3F0210B59DF8084044EAA7
:10F00000032343EA0242042342EA0161416003759B
:10F0100010BD000007B5064B0360CB7800938B78DA
:10F020004A780978FFF7E8FF03B05DF804FB00BFFA
:10F0300004FE3F02417470477047704708B50021D5
:10F04000007CFFF741FC40EAE07008BD08B50121F3
:10F05000007CFFF739FC40EAE07008BD08B5007C91
:10F06000FFF724FC20EAE07008BD08B5007CFFF73C
:10F070000FFC20EAE07008BD13B50446007C019146
:10F08000FFF714FC0028019901DC607C20B1207C92
:10F09000FFF728FC20EAE07002B010BD007CFFF70B
:10F0A0002FBC10B504461421FFF729F8204610BDE7
:10F0B00010B54FF47A73044608460021C4E90113E1
:10F0C000044B20742360012311466374FFF7D2FBC5
:10F0D000204610BD18FE3F0210B504461422002140
:10F0E00000F09DFB204610BD10B588B003A8FFF7C7
:10F0F000F3FF0C4CD4E88F1F11F001010FD1204613
:10F100000191FEF7FEFF019948B103AA0648FFF7F7
:10F11000CFFF2046FEF7FAFF044800F06DFB0248DF
:10F1200008B010BDBCAE0710C0AE071059F43F02C6
:10F1300070474174704708B5007CFFF7C9FA20EAB0
:10F14000E07008BD08B5007CFFF77CFA20EAE070AB
:10F1500008BD08B5007CFFF791FA40EAE07008BDF1
:10F1600008B5007CFFF77CFA40EAE07008BD007C3F
:10F17000FFF792BA37B5457C04462DB1207C03B029
:10F18000BDE83040FFF750BA007C0191FFF7A0FACC
:10F1900000280199F2DC284603B030BD10B50446C2
:10F1A0001421FEF7ACFF204610BD000010B54FF44F
:10F1B0007A730446084611460022C4E90123044B31
:10F1C0002074236001236374FFF790FA204610BD7A
:10F1D0004CFE3F02007CFFF76DBA7047F8B506465B
:10F1E00015460C468F18BC4206D0336830469B68E3
:10F1F00014F8011B9847F6E72846F8BD0022007C6A
:10F20000FFF7ACBA0021007CFFF7B6BA0021007C02
:10F21000FFF7C0BA0021007CFFF7CABA0021007CCA
:10F22000FFF7D4BA10B504461421FEF768FF204654
:10F2300010BD0022C0E90022182202800A78027163
:10F240004A688260CA68C2600A7A02610A694261D9
:10F250007047000038B5044615464FF47A73002213
:10F26000C4E90123094B0846217423602946FFF7AE
:10F27000C9FABF3008D16B69DB0705D56868FFF7AD
:10F2800057FCE868FFF754FC204638BD80FE3F027B
:10F290000023007C1A461946FFF736BA10B504461B
:10F2A00086B06846FFF7C5FF00226946207CFFF75D
:10F2B000B7FA06B010BD7FB58DF8041000214FF0ED
:10F2C000640C5B1A18BF0123CDE904C101A90292A5
:10F2D0008DF80C30FFF7E2FF07B05DF804FB002269
:10F2E000007CFFF71FBAC9B2FFF7F9BF0022007C0C
:10F2F000FFF726BAFF210022044B0120C3E90012C8
:10F3000064211A61C3E90201704700BFD4AE07103F
:10F31000002240681146FFF755BB002240681146A5
:10F32000FFF788BB002240681146FFF79FBB002211
:10F330004068FFF78DBB0022406881F00101FFF7B4
:10F340006BBB002340681A461946FFF757BB0023E2
:10F3500040681A461946FFF743BB00224068114631
:10F36000FFF714BB002202214068FFF71DBB0023FA
:10F3700040681A46FFF7FCBA0422024B5A60024A60
:10F380001A607047E8AE0710ACFE3F0200234068E9
:10F390001A46FFF7EDBA002202214068FFF704BBCE
:10F3A000002240681146FFF7F1BA0022406811467A
:10F3B000FFF708BB002340681A461946FFF710BB49
:10F3C000002340681A461946FFF718BB0021406821
:10F3D000FFF75ABB00214068FFF764BB002240687A
:10F3E00081F00101FFF718BB00224068FFF730BB36
:10F3F000002240681146FFF739BB002240681146E1
:10F40000FFF718BB00214068FFF768BB2DE9F04308
:10F4100095B014460D460746FFF7CEFD00211C228D
:10F420000DA8009100F0FBF9402320460C93002129
:10F430006B460CAAFFF77AF8044600284BD1024627
:10F4400001216868FFF7BEFA0221804622466868FB
:10F45000FFF7B8FA21468146009E002E3BD00029D6
:10F4600039D17368022B03D00A2B11D0F669F4E767
:10F47000B8F1000FFAD0716906A804313C1D07AD40
:10F48000FFF7C8FD0FCD0FC42B6841462370EDE791
:10F49000B9F1000FEAD0102201A8746900F0BFF999
:10F4A000062301AD8DF8143004F1080318342A4600
:10F4B00018685968083303C2A3421546F7D101A959
:10F4C00006A83C1D07ADFFF785FD0FCD0FC42B68C7
:10F4D00049462370CAE70098FFF71AF8384615B076
:10F4E000BDE8F083033802289ABF024B53F820008E
:10F4F00001487047E8FE3F02F0AE071008B5002251
:10F500004068FFF7DDFABDE80840FFF7EBBF0000F9
:10F51000024B034A1A6000225A607047F0AE07108F
:10F52000FCFE3F021B2837B5044602D9002003B079
:10F5300030BDA0F10F03022B0BD9012821D800F018
:10F5400035F90021007CFFF74FF980F00100C0B2CF
:10F55000EDE7114DD5E88F1F11F001010BD12846C1
:10F560000191FEF7CEFD019928B10C48FFF756FB3B
:10F570002846FEF7CBFD094B1878FFF76DF90028F8
:10F58000D4D1083C012C05D800F064F8007CFFF7CA
:10F5900091F8DAE70120CAE7F8AE0710FCAE0710D1
:10F5A0001B2838B504460D460AD8FF2908D0FFF7B6
:10F5B000B9FF28B129462046BDE83840FEF7C4BF50
:10F5C00038BD38B504460D46FEF7CCFFFF2810D0F5
:10F5D000062804D84D2323FA00F0C30709D4204697
:10F5E000FFF7A0FF28B129462046BDE83840FEF7C6
:10F5F000C7BF38BD7047000038B5142504462A46F9
:10F60000002100F00CF92580402507492846258176
:10F61000258200F0EFF804496060284600F0EAF81F
:10F62000E060204638BD00BF38FF3F02704770479A
:10F6300010B50446FFF7E0FF204610BD10B50446A4
:10F64000FFF7DAFF204610BD10B50446FFF7D4FFE0
:10F65000204610BD30B50E4D87B0D5E88F1F11F094
:10F66000010411D12846FEF74CFD68B101A8FFF74F
:10F67000DFFF214601AA0748FFF798FD2846FEF75D
:10F6800045FD054800F0B8F8024807B030BD00BF9E
:10F6900004AF071010AF071015FA3F0210B50D4C5C
:10F6A00086B0D4E88F3FDB0711D42046FEF729FD52
:10F6B00068B101A8FFF7C2FF012101AA0648FFF7C0
:10F6C00075FD2046FEF722FD044800F095F802483B
:10F6D00006B010BD08AF071024AF07104FFA3F0265
:10F6E00010B5FFF7DBFF074B044653B1FFF772FD80
:10F6F00038B1236820461B699847002801DD00E0E7
:10F7000000BF10BD0000000010B50D4C86B0D4E85D
:10F710008F3FDB0711D42046FEF7F3FC68B101A848
:10F72000FFF792FF022101AA0648FFF73FFD20469E
:10F73000FEF7ECFC044800F05FF8024806B010BD8C
:10F740000CAF071038AF07104DFA3F0210B5FFF7A6
:10F75000DBFF074B044653B1FFF73CFD38B123688C
:10F7600020461B699847002801DD00E000BF10BD5E
:10F77000000000007047000038B50A4B04460360E3
:10F78000012309494361202000F034F820256060FE
:10F7900005492846A56000F02DF8C4E90305204678
:10F7A00038BD00BF1800010038FF3F0230B50E4DD4
:10F7B00087B0D5E88F1F11F0010411D12846FEF75C
:10F7C000A0FC68B16846FFF7D7FF6A4621460748A4
:10F7D000FFF740FD2846FEF799FC054800F00CF8BD
:10F7E000024807B030BD00BF50AF071054AF07103C
:10F7F00095FB3F02FEF781BC002301461A461846DE
:10F8000000F044B80A44431E914200D1704710B53D
:10F8100011F8014B914203F8014FF9D110BD024498
:10F820000346934200D1704703F8011BF9E700003B
:10F8300038B5104B04461D68AB6BB3B91820FFF701
:10F8400069F90246A86320B90B4B42210B48FFF728
:10F850008BF90B490B4BC0E900130B4B0021836064
:10F860000B2383810120C2E90401AB6B00221C61E0
:10F870005A6138BDCCAD071039FF3F0250FF3F023F
:10F880000E33CDAB34126DE6ECDE05002DE9F84306
:10F89000DFF8BC8006461F460D46D8F800009146AA
:10F8A00000F058F8264B1C6834B9264C1C60264BD7
:10F8B00013B11B68C4F8883063681F2B07DDD8F8C4
:10F8C000000000F049F84FF0FF30BDE8F8835EB368
:10F8D000D4F8880088B91D4B23B9D8F8000000F08F
:10F8E0003AF8F0E74FF48470FFF714F90028F4D0E9
:10F8F0000023C0E94033C4F8880063680122022E67
:10F9000040F8239002FA03F200EB8301D0F80031B3
:10F9100043EA0203C0F80031C1F8807002BFD0F89A
:10F9200004311343C0F804316368D8F800005A1C4E
:10F930000233626044F8235000F00EF80020C4E760
:10F94000F4AF071068AF07100000000035EF3F026A
:10F9500030AE07107047704770470000E1E43F0287
:10F9600009E53F020DE53F02000000005A204779FB
:10F97000726F3A2025690A000000000000000000B4
:10F980001FF03F0215F03F020BF03F0201F03F0273
:10F99000F5EF3F02E9EF3F02EDF73F02F5F73F02D7
:10F9A000DDEF3F02D5EF3F02CBEF3F02C1EF3F0259
:10F9B0001DF93F0225F83F022DF83F0261707000EB
:10F9C00025592D256D2D25645425483A254D3A2578
:10F9D00053257A0061736374696D6500000000004F
:10F9E0000000000075F33F0265F33F0267F33F023A
:10F9F00000000000000000005BF43F02C3F43F027F
:10FA000099F43F0285F03F028BF43F025DF43F0220
:10FA10006DF43F02BDF43F02BBF13F027DF43F02B3
:10FA200055F43F02000000000000000051F53F02C5
:10FA3000BDF53F0295F53F0285F03F0265F53F02B7
:10FA400081F53F0273F53F028FF53F02BBF13F02A4
:10FA500053F53F0257F53F02000000000000000090
:10FA6000FBF53F0245F63F021DF63F02FDF53F0262
:10FA700025F63F022DF63F0235F63F023DF63F02E6
:10FA8000BBF13F0200000000000000008FF73F02C2
:10FA900085F73F027BF73F0231F73F026FF73F02E6
:10FAA00063F73F02EDF73F02F5F73F0257F73F02DA
:10FAB0004FF73F0245F73F023BF73F021DF93F0278
:10FAC00025F83F022DF83F0280AE0710E8AE071080
:10FAD000F0AE07100000000000000000ADF73F028C
:10FAE000B7F73F02C1F73F02CBF73F02D5F73F021E
:10FAF000E1F73F02EDF73F02F5F73F02FDF73F0266
:10FB000009F83F0211F83F021BF83F021DF93F02BE
:10FB100025F83F022DF83F02005245454E54206D16
:10FB2000616C6C6F63207375636365656465640005
:10FB30002F6D6E742F776F726B73706163652F77A3
:10FB40006F726B73706163652F4743432D31302DA6
:10FB5000706970656C696E652F6A656E6B696E732E
:10FB60002D4743432D31302D706970656C696E658A
:10FB70002D34385F32303230313132345F3136300B
:10FB8000363138303634312F7372632F6E65776CAF
:10FB900069622F6E65776C69622F6C6962632F737F
:10FBA00074646C69622F72616E642E6300000000E1
:10FBB0008DE63F0229F03F0251F03F0275F03F020F
:10FBC000E5F13F02F5F13F0209F23F0215F73F026E
:08FBD00099F73F0231F93F02F1
:10FBD80000000002F4FD3F02D0AD07100000000055
:10FBE800000000000000000000000000000000000D
:10FBF80000000000000000000000000000000000FD
:10FC080000000000000000000000000000000000EC
:10FC180000000000000000000000000000000000DC
:10FC280000000000000000000000000000000000CC
:10FC3800000000000000000000000000F8AF0710FE
:04FC480000000000B8
:10FFBE000200100000E05F08A8E05F08C8E43F02FE
:10FFCE0001000A00FFFFFFFFFFFF00000102030414
:10FFDE0005060708090A0B0C0D0E0F10111213144B
:0EFFEE0015161718191A1B1C1D1E1F203E0089
:04FFFC0078563412ED
:04000005085FE01898
:00000001FF
