:02000004085F93
:10E0000000E05F08FCFF5F0800000600200005013B
:08E010000401A018000000004B
:10E018001348144908B5884205D0134A824202D0F1
:10E02800124B121A98471248124A0021124B121A20
:10E03800984712481249884205D0124A824202D0B3
:10E048000A4B121A984710481049884205D0104ABE
:10E05800824202D0054B121A9847014808BD00BFFA
:10E0680070AE0710C8F95F08DCAE07102D0D11104F
:10E07800DCAE0710FCAF0710A10E1110D8E63F0266
:10E08800A8E05F08E0E63F02E0E63F02B0E05F0894
:0CE09800F8FF3F0219E05F0800000000E4
:08E0A8009CE05F0868FD3F02E7
:10E0B000034613F8012B002AFBD1181A01387047C8
:10E0C00070B500F079FE0025054E064CA41BA4088F
:10E0D000AC4200D170BD56F8043B98470135F7E7D4
:10E0E000CCFF3F02F8FF3F0200F02FB808B500F068
:10E0F00075F8BDE8084000F017BE00F053BC00F012
:10E100005FBC70470EB403B503AB53F8042B00217A
:10E11000019300F068FD02B05DF804EB03B07047B6
:10E1200010B50446008801F0A9F9227A4AB9031E05
:10E1300018BF012362686360934214BF1846002031
:10E1400010BDB0FA80F35B09F4E738B500F040FF8A
:10E150004FF4165100F02CFF002000F091F942F22C
:10E1600010750446002000F08BF9001B61F10001DE
:10E17000A84271F1000307D200F02AFF00F01CFF53
:10E1800010B900F0F3FBEDE700F022FF00F014FF00
:10E190000121032001F048F90121042001F044F994
:10E1A0000121052001F040F9BDE83840002103209D
:10E1B00001F04BB908B50121052001F046F941F203
:10E1C000883000F041F90520002101F03EF9BDE85A
:10E1D000084041F2883000F037B90000F8B500235C
:10E1E000494C23600121042001F02FF90121052071
:10E1F00001F02BF941F2883000F026F940F6970241
:10E200002368013393422360ECDD0021052001F0F7
:10E210001CF941F2883000F017F900232360002137
:10E22000042001F012F90121052001F00EF941F25C
:10E23000883000F009F940F69702236801339342D1
:10E240002360ECDD0021052001F0FFF841F2883069
:10E2500000F0FAF800232360FFF7ACFF012104204F
:10E2600001F0F3F80121052001F0EFF841F28830C8
:10E2700000F0EAF840F697022368013393422360E6
:10E28000EADD0021052001F0E0F841F2883000F0DD
:10E29000DBF800231D4E1E4D1E4F2360FFF78AFF43
:10E2A0003046FFF73DFF60B12B7883F001032B7000
:10E2B00000F08EFE3946FFF725FF4FF47A7000F02C
:10E2C000C3F82B789BB90021042001F0BEF800F0C0
:10E2D0007FFE1149FFF716FF1048FFF721FF28B90D
:10E2E00023680133B3F5FA5F2360D7DBF8BD012162
:10E2F000042001F0AAF800F06BFE0949FFF702FFC5
:10E300002B78002BE8D1DEE704AF0710E8AE07104A
:10E3100000AF071078FD3F0281FD3F02F4AE071009
:10E320008BFD3F0210B500240B4B0C4AC3E900449F
:10E330009A60022000F02CFA0620094B0321186095
:10E340001C7201F071F80A20064B032118601C7240
:10E35000BDE8104001F068B8DCAE07100000FFFF18
:10E36000E8AE0710F4AE071009B504480068044B86
:10E3700003441B689B68029309BD000070AE071040
:10E380005000000009B504480068044B03441B68B2
:10E390005B69029309BD000070AE071050000000D9
:10E3A00009B504480068044B03441B689B6802934A
:10E3B00009BD000070AE07101400000009B5044844
:10E3C0000068044B03441B68DB68029309BD00002E
:10E3D00070AE07101400000009B504480068044B33
:10E3E00003441B681B69029309BD000070AE07104F
:10E3F0001400000009B504480068044B03441B687E
:10E400005B69029309BD000070AE071014000000A4
:10E4100009B504480068044B03441B689B690293D8
:10E4200009BD000070AE07105400000009B5044893
:10E430000068044B03441B685B68029309BD00003D
:10E4400070AE07100000000009B504480068044BD6
:10E4500003441B68DB68029309BD000070AE07101F
:10E460000000000009B504480068044B03441B6821
:10E470005B69029309BD000070AE07100000000048
:10E4800009B504480068044B03441B68DB6D029324
:10E4900009BD000070AE07100000000009B5044877
:10E4A0000068044B03441B685B6C029309BD0000C9
:10E4B00070AE07103000000009B504480068044B36
:10E4C00003441B685B69029309BD000070AE07102E
:10E4D0004C00000009B504480068044B03441B6865
:10E4E000DB68029309BD000070AE07102400000035
:10E4F00009B504480068044B03441B681B69029378
:10E5000009BD000070AE07102400000009B50448E2
:10E510000068044B03441B685B69029309BD00005B
:10E5200070AE07102400000009B504480068044BD1
:10E5300003441B689B69029309BD000070AE07107D
:10E540002400000009B504480068044B03441B681C
:10E55000DB69029309BD000070AE071024000000C3
:10E5600009B504480068044B03441B681B6A029306
:10E5700009BD000070AE07102400000009B5044872
:10E580000068044B03441B689B6A029309BD0000AA
:10E5900070AE07102400000009B504480068044B61
:10E5A00003441B681B6C029309BD000070AE07108A
:10E5B0002400000009B504480068044B03441B68AC
:10E5C0001B6A029309BD000070AE07101000000026
:10E5D00009B504480068044B03441B685B6A029356
:10E5E00009BD000070AE07101000000009B5044816
:10E5F0000068044B03441B689B6A029309BD00003A
:10E6000070AE07101000000009B504480068044B04
:10E6100003441B68DB6A029309BD000070AE07105B
:10E620001000000009B504480068044B03441B684F
:10E630001B6B029309BD000070AE071010000000B4
:10E6400009B504480068044B03441B685B6B0293E4
:10E6500009BD000070AE07101000000009B50448A5
:10E660000068044B03441B681B6C029309BD000047
:10E6700070AE07101000000009B504480068044B94
:10E6800003441B68DB69029309BD000070AE0710EC
:10E690001800000009B504480068044B03441B68D7
:10E6A0001B6A029309BD000070AE0710180000003D
:10E6B00009B504480068044B03441B681B680293B7
:10E6C00009BD000070AE07103400000009B5044811
:10E6D0000068044B03441B685B68029309BD00009B
:10E6E00070AE07103400000009B504480068044B00
:10E6F00003441B681B69029309BD000070AE07103C
:10E700003400000009B504480068044B03441B684A
:10E710005B69029309BD000070AE07103400000071
:10E7200009B504480068044B03441B689B690293C5
:10E7300009BD000070AE07103400000009B50448A0
:10E740000068044B03441B68DB69029309BD0000A9
:10E7500070AE07103400000009B504480068044B8F
:10E7600003441B681B6A029309BD000070AE0710CA
:10E770003400000009B504480068044B03441B68DA
:10E780009B6A029309BD000070AE071034000000C0
:10E7900009B504480068044B03441B685B68029396
:10E7A00009BD000070AE07100800000009B504485C
:10E7B0000068044B03441B68D3F88830029309BDFA
:10E7C00070AE07100800000009B504480068044B4B
:10E7D00003441B68D3F89430029309BD70AE071050
:10E7E0000800000009B504480068044B03441B6896
:10E7F0005B68029309BD000070AE0710280000009E
:10E8000009B504480068044B03441B689B680293E5
:10E8100009BD000070AE07102800000009B50448CB
:10E820000068044B03441B68DB68029309BD0000C9
:10E8300070AE07102800000009B504480068044BBA
:10E8400003441B681B69029309BD000070AE0710EA
:10E850002800000009B504480068044B03441B6805
:10E860005B69029309BD000070AE0710280000002C
:10E8700009B504480068044B03441B689B69029374
:10E8800009BD000070AE07102800000009B504485B
:10E890000068044B03441B68DB69029309BD000058
:10E8A00070AE07102800000009B504480068044B4A
:10E8B00003441B681B6A029309BD000070AE071079
:10E8C0002800000009B504480068044B03441B6895
:10E8D0001B6B029309BD000070AE071028000000FA
:10E8E00009B504480068044B03441B685B6B029342
:10E8F00009BD000070AE07102800000009B50448EB
:10E900000068044B03441B681B6C029309BD0000A4
:10E9100070AE07102800000009B504480068044BD9
:10E9200003441B685B6C029309BD000070AE0710C6
:10E930002800000009B504480068044B03441B6824
:10E940005B6D029309BD000070AE07102800000047
:10E9500009B504480068044B03441B689B6D02938F
:10E9600009BD000070AE07102800000009B504487A
:10E970000068044B03441B689B68029309BD0000B8
:10E9800070AE07102C00000009B504480068044B65
:10E9900003441B68DB6B029309BD000070AE0710D7
:10E9A0002C00000009B504480068044B03441B68B0
:10E9B0001B68029309BD000070AE07100400000040
:10E9C00009B504480068044B03441B685B68029364
:10E9D00009BD000070AE07100400000009B504482E
:10E9E0000068044B03441B685B6A029309BD000086
:10E9F00070AE07100400000009B504480068044B1D
:10EA000003441B681B6C029309BD000070AE071025
:10EA10000400000009B504480068044B03441B6867
:10EA20005B6C029309BD000070AE0710040000008B
:10EA300009B504480068044B03441B689B6D0293AE
:10EA400009BD000070AE07100400000009B50448BD
:10EA50000068044B03441B68DB6D029309BD000092
:10EA600070AE071004000000002240681146FFF756
:10EA70001BBF002240681146FFF732BF00224068EA
:10EA8000FFF720BF0022406881F00101FFF7FEBEC2
:10EA9000002340681A461946FFF7EABE0023406883
:10EAA0001A461946FFF7D6BE002240681146FFF706
:10EAB000C3BE002240681146FFF7A2BE0022022119
:10EAC0004068FFF7ABBE002340681A46FFF78ABED6
:10EAD0000322024B5A60024A1A60704708AF0710BF
:10EAE0009CFD3F020022024BC3E900229A6070475E
:10EAF00010AF071010B5044608462170FFF7BCFDA3
:10EB000000232046636010BD02220020044B1A60DF
:10EB1000044B054AC3E900009A60FFF739BE00BF05
:10EB200028AF07101CAF07100000FFFF00230248AA
:10EB30000360FFF7B3BC00BF2CAF0710F8B5064663
:10EB40000D4600248F18BD420CD0336830469B68B8
:10EB500015F8011B9847031E01DB1C44F3E7002C4A
:10EB600008BF1C462046F8BD13B50446084659B1F7
:10EB70000191FFF79DFA0246204623680199DB6860
:10EB800002B0BDE81040184702B010BD03689B6892
:10EB9000184738B50D210546FFF7F8FF0A2104464E
:10EBA0002846FFF7F3FF204438BD0023012A98BF11
:10EBB0000A2230B58BB08DF8243009AC0D46B1FB7C
:10EBC000F2F101FB125303F0FF03092B94BF303322
:10EBD0003733DBB2AA4204F8013DEFD92146FFF7F3
:10EBE000C3FF0BB030BD2DE9F04186B000AF054644
:10EBF0000E46381D142114463B60FFF7EFFE132824
:10EC00000ED82846391DFFF7AFFF04461EB128462F
:10EC1000FFF7BFFF044420461837BD46BDE8F0812A
:10EC200000F1080323F00703E846ADEB030D22468D
:10EC3000411C3B686846FFF7D1FE69462846FFF74E
:10EC400093FF0446C546E1E710B50446FFF70AFC0A
:10EC5000E060236820465B699847002808DAFFF7E0
:10EC600001FCE368C01AA3689842F2D34FF0FF306A
:10EC700010BD2DE9F04107460C460D468E18B542F1
:10EC8000A5EB040807D03846FFF7DEFF031E02DBC2
:10EC900005F8013BF3E74046BDE8F081014B024A2D
:10ECA0001A60704730AF0710D8FD3F02024B1A6858
:10ECB000024B1A60704700BF74AE071034AF0710E4
:10ECC0000022014B9A60704738AF0710014B186063
:10ECD000704700BF78AE071008B50F4B43B100F086
:10ECE00077F903681B699847002801DD00E000BF41
:10ECF0000A4B43B100F004FC03681B6998470028E5
:10ED000001DD00E000BF064B0BB100F03FFC054BFE
:10ED10000BB100F071FC08BD000000000000000015
:10ED2000000000000000000008B5FFF7D5FFFFF766
:10ED300099FB014B186008BDE0AF07100548064A73
:10ED400008B5121A054900F0B3FC054B054A1A60D4
:10ED500008BD00BF00B4071004B4071034FA5F0800
:10ED600000B407101E1C279A002307B51A466FF03F
:10ED700077010093FFF728FD03B05DF804FB000066
:10ED800007B543880A2B08D0502B0BD1094B1B68C1
:10ED90004BB103B05DF804EB1847FFF7E5FF03B094
:10EDA0005DF804FB00231A466FF077010093FFF72C
:10EDB0000BFDF4E74CAF0710002110B51148FFF729
:10EDC00029FE114B1A68114B9A420CBF01220022F6
:10EDD0000F4B1A7001D0FFF7B1FFFFF727FB044676
:10EDE00000F07CFC0B4B13B1204600E000BF00217B
:10EDF0000848FFF7C9FDBDE8104000210648FFF7AD
:10EE0000D5BC00BFFDF23F0200B407101E1C279ABC
:10EE100048AF071000000000B1F33F02704710B583
:10EE200004461821FFF76BF9204610BDF0B5037DAD
:10EE30000E46062B4FF000048DB000F1040712D0EF
:10EE400000F1080515F8011D0A223046FFF7ADFE56
:10EE5000AF42044419D0002CF4D02E213046FFF7E5
:10EE600095FE0444EEE72F236A4639460A208DF8C2
:10EE70000040FFF721FB6846FFF71AF933680246A6
:10EE800069463046DB689847044620460DB0F0BD21
:10EE900010B50446044B1122002140F8043B00F059
:10EEA00014FC204610BD00BF00FE3F020346074A87
:10EEB00010B543F8042B01F1100251F8044B9142B4
:10EEC00043F8044BF9D10A781A7010BD00FE3F02D6
:10EED00010B59DF8084044EA032343EA02420423A4
:10EEE00042EA01614160037510BD000007B5064BA1
:10EEF0000360CB7800938B784A780978FFF7E8FFB6
:10EF000003B05DF804FB00BF00FE3F024174704790
:10EF10007047704708B50021007CFFF701FC40EA0C
:10EF2000E07008BD08B50121007CFFF7F9FB40EA5D
:10EF3000E07008BD08B5007CFFF7E4FB20EAE07054
:10EF400008BD08B5007CFFF7CFFB20EAE07008BDE4
:10EF500013B50446007C0191FFF7D4FB002801990A
:10EF600001DC607C20B1207CFFF7E8FB20EAE07048
:10EF700002B010BD007CFFF7EFBB10B504461421B2
:10EF8000FFF7BDF8204610BD10B54FF47A73044664
:10EF900008460021C4E90113044B207423600123B7
:10EFA00011466374FFF784FB204610BD14FE3F0238
:10EFB0000022007CFFF78ABB007CFFF7DBBB10B5AB
:10EFC00004461422002100F080FB204610BD000002
:10EFD00010B588B003A8FFF7F2FF0C4CD4E88F1FE0
:10EFE00011F001010FD120460191FFF721FD019998
:10EFF00048B103AA0648FFF7C7FF2046FFF726FDE2
:10F00000044800F04FFB024808B010BD50AF071095
:10F0100054AF071041F53F0270474174704708B57F
:10F02000007CFFF7ABFA20EAE07008BD08B5007C71
:10F03000FFF75EFA20EAE07008BD08B5007CFFF734
:10F0400073FA40EAE07008BD08B5007CFFF75EFA8D
:10F0500040EAE07008BD007CFFF774BA37B5457C24
:10F0600004462DB1207C03B0BDE83040FFF732BA32
:10F07000007C0191FFF782FA00280199F2DC284612
:10F0800003B030BD10B504461421FFF738F8204610
:10F0900010BD000010B54FF47A73044608461146BF
:10F0A0000022C4E90123044B20742360012363740C
:10F0B000FFF772FA204610BD48FE3F02007CFFF7C2
:10F0C0004FBA7047F8B5064615460C468F18BC4235
:10F0D00006D0336830469B6814F8011B9847F6E762
:10F0E0002846F8BD0022007CFFF764BA0021007CAE
:10F0F000FFF76EBA0021007CFFF778BA0021007C90
:10F10000FFF782BA0021007CFFF78CBA10B50446E5
:10F110001421FEF7F4FF204610BD000038B5044668
:10F1200015464FF47A730022C4E90123094B0846BF
:10F13000217423602946FFF791FABF3008D16B692B
:10F14000DB0705D56868FFF73BFCE868FFF738FC8C
:10F15000204638BD7CFE3F02FF210022044B0120E7
:10F16000C3E9001264211A61C3E90201704700BFBC
:10F1700068AF0710002240681146FFF75DBB002210
:10F1800040681146FFF790BB002240681146FFF728
:10F19000A7BB00224068FFF795BB0022406881F0C2
:10F1A0000101FFF773BB002340681A461946FFF7B9
:10F1B0005FBB002340681A461946FFF74BBB00228D
:10F1C00040681146FFF71CBB002202214068FFF790
:10F1D00025BB002340681A46FFF704BB0422024BFC
:10F1E0005A60024A1A6070477CAF0710A8FE3F02BF
:10F1F000002340681A46FFF7F5BA00220221406852
:10F20000FFF70CBB002240681146FFF7F9BA002255
:10F2100040681146FFF710BB002340681A461946A4
:10F22000FFF718BB002340681A461946FFF720BBBA
:10F2300000214068FFF762BB00214068FFF76CBB0C
:10F240000022406881F00101FFF720BB00224068E6
:10F25000FFF738BB002240681146FFF741BB002290
:10F2600040681146FFF720BB00214068FFF770BBE4
:10F270002DE9F0430026984699B00D4614460746FE
:10F28000FFF706FE1C22314611A8039600F01DFA76
:10F29000B8F1000F2CD1402368681093049618B180
:10F2A00004A9C0B2FFF7B4F8049B204600930021E4
:10F2B00003AB10AAFFF766F8044600284DD10246BA
:10F2C00001216868FFF7B8FA022180462246686883
:10F2D000FFF7B2FA21468146039E002E3DD0002959
:10F2E0003BD17368022B05D00A2B13D0F669F4E7E3
:10F2F0001D4BD1E7B8F1000FF8D071690AA80431AD
:10F300003C1D0BADFFF7F2FD0FCD0FC42B6841463E
:10F310002370EBE7B9F1000FE8D0102205A874695B
:10F3200000F0D3F9062305AD8DF8243004F108036D
:10F3300018342A4618685968083303C2A342154690
:10F34000F7D105A90AA83C1D0BADFFF7AFFD0FCD06
:10F350000FC42B6849462370C8E70398FFF704F8E9
:10F36000384619B0BDE8F083400000400338022859
:10F370009ABF024B53F8200001487047E4FE3F0259
:10F3800084AF071008B500224068FFF7D3FABDE844
:10F390000840FFF7EBBF0000024B034A1A6000224F
:10F3A0005A60704784AF0710F8FE3F021B2837B53C
:10F3B000044602D9002003B030BDA0F10F03022B98
:10F3C0000BD9012821D800F047F90021007CFFF774
:10F3D00037F980F00100C0B2EDE7114DD5E88F1F7D
:10F3E00011F001010BD128460191FFF721FB019992
:10F3F00028B10C48FFF77EFB2846FFF727FB094B97
:10F400001878FFF747F90028D4D1083C012C05D81B
:10F4100000F076F8007CFFF7A3F8DAE70120CAE7EE
:10F420008CAF071090AF07101B2838B504460D4667
:10F430000AD8FF2908D0FFF7B9FF28B1294620468E
:10F44000BDE83840FEF7ACBF38BD38B504460D46C0
:10F45000FEF7B4FFFF2810D0062804D84D2323FA66
:10F4600000F0C30709D42046FFF7A0FF28B12946C2
:10F470002046BDE83840FEF7AFBF38BD10B50446A2
:10F48000FEF79CFF031FDBB2012B08D92046FFF7D4
:10F490008DFF20B12046BDE81040FEF7ABBF002035
:10F4A00010BD704738B5142504462A46002100F0E7
:10F4B0000CF925804025074928462581258200F042
:10F4C000EFF804496060284600F0EAF8E060204662
:10F4D00038BD00BF34FF3F027047704710B5044687
:10F4E000FFF7E0FF204610BD10B50446FFF7DAFF36
:10F4F000204610BD10B50446FFF7D4FF204610BDCE
:10F5000030B50E4D87B0D5E88F1F11F0010411D131
:10F510002846FFF78DFA68B101A8FFF7DFFF214603
:10F5200001AA0748FFF7B6FD2846FFF78FFA0548FE
:10F5300000F0B8F8024807B030BD00BF98AF071020
:10F54000A4AF0710D3FA3F0210B50D4C86B0D4E833
:10F550008F3FDB0711D42046FFF76AFA68B101A894
:10F56000FFF7C2FF012101AA0648FFF793FD2046DD
:10F57000FFF76CFA044800F095F8024806B010BD99
:10F580009CAF0710B8AF07100BFB3F0210B5FFF799
:10F59000DBFF074B044653B1FFF790FD38B12368FA
:10F5A00020461B699847002801DD00E000BF10BD20
:10F5B0000000000010B50D4C86B0D4E88F3FDB078B
:10F5C00011D42046FFF734FA68B101A8FFF792FF83
:10F5D000022101AA0648FFF75DFD2046FFF736FA33
:10F5E000044800F05FF8024806B010BDA0AF071055
:10F5F000CCAF071009FB3F0210B5FFF7DBFF074B4D
:10F60000044653B1FFF75AFD38B1236820461B6901
:10F610009847002801DD00E000BF10BD0000000099
:10F620007047000038B50A4B0446036001230949BE
:10F630004361202000F034F8202560600549284609
:10F64000A56000F02DF8C4E90305204638BD00BFD1
:10F650001800010034FF3F0230B50E4D87B0D5E8E9
:10F660008F1F11F0010411D12846FFF7E1F968B1AD
:10F670006846FFF7D7FF6A4621460748FFF74EFD69
:10F680002846FFF7E3F9054800F00CF8024807B0F8
:10F6900030BD00BFE4AF0710E8AF071051FC3F02D8
:10F6A000FEF72BBD002301461A461846FEF729BD7A
:10F6B0000A44431E914200D1704710B511F8014B26
:10F6C000914203F8014FF9D110BD02440346934221
:10F6D00000D1704703F8011BF9E7000038B5104B63
:10F6E00004461D68AB6BB3B91820FFF75BF90246FF
:10F6F000A86320B90B4B42210B48FFF77DF90B495A
:10F700000B4BC0E900130B4B002183600B2383815B
:10F710000120C2E90401AB6B00221C615A6138BDB3
:10F7200078AE071035FF3F024CFF3F020E33CDABE2
:10F7300034126DE6ECDE0500F1E63F0219E73F0208
:10F740001DE73F0200000000436C69636B65640ABB
:10F75000006261636B776172640A00666F72776141
:10F7600072640A000000000000000000F7F03F0291
:10F77000EDF03F02E3F03F02D9F03F02CDF03F024F
:10F78000C1F03F0261F83F0269F83F02B5F03F0265
:10F79000ADF03F02A3F03F0299F03F02B5F93F02FE
:10F7A00099F83F02A1F83F026170700025592D259C
:10F7B0006D2D25645425483A254D3A2553257A0068
:10F7C00061736374696D6500000000000000000053
:10F7D0005DF43F024DF43F024FF43F020000000091
:10F7E0000000000043F53F02ABF53F0281F53F0208
:10F7F0006DF13F0273F53F0245F53F0255F53F02BB
:10F80000A5F53F02A3F23F0265F53F023DF53F0239
:10F81000000000000000000049F63F02B5F63F027C
:10F820008DF63F026DF13F025DF63F0279F63F0231
:10F830006BF63F0287F63F02A3F23F024BF63F0210
:10F840004FF63F020000000000000000F3F63F0208
:10F850003DF73F0215F73F02F5F63F021DF73F0265
:10F8600025F73F022DF73F0235F73F02A3F23F0293
:10F87000000000000000000003F83F02F9F73F021B
:10F88000EFF73F02A5F73F02E3F73F02D7F73F024A
:10F8900061F83F0269F83F02CBF73F02C3F73F022E
:10F8A000B9F73F02AFF73F02B5F93F0299F83F02BF
:10F8B000A1F83F0208AF07107CAF071084AF071014
:10F8C000000000000000000021F83F022BF83F027A
:10F8D00035F83F023FF83F0249F83F0255F83F0232
:10F8E00061F83F0269F83F0271F83F027DF83F027C
:10F8F00085F83F028FF83F02B5F93F0299F83F02C1
:10F90000A1F83F02005245454E54206D616C6C6F6A
:10F910006320737563636565646564002F6D6E7441
:10F920002F776F726B73706163652F776F726B7374
:10F93000706163652F4743432D31302D70697065C9
:10F940006C696E652F6A656E6B696E732D474343F4
:10F950002D31302D706970656C696E652D34385F9E
:10F9600032303230313132345F3136303631383046
:10F970003634312F7372632F6E65776C69622F6E28
:10F9800065776C69622F6C6962632F7374646C694C
:10F99000622F72616E642E630000000055E93F0221
:10F9A00001F13F0215F13F0239F13F025DF13F02E3
:10F9B000CDF23F02DDF23F02F1F23F0289F73F0252
:08F9C0000DF83F02C9F93F02F6
:10F9C80000000002F0FD3F027CAE071000000000BE
:10F9D800000000000000000000000000000000001F
:10F9E800000000000000000000000000000000000F
:10F9F80000000000000000000000000000000000FF
:10FA080000000000000000000000000000000000EE
:10FA180000000000000000000000000000000000DE
:0CFA2800000000000000000000000000D2
:04FA340000000000CE
:10FFBE000200100000E05F08A8E05F08D8E63F02EC
:10FFCE0001000A00FFFFFFFFFFFF00000102030414
:10FFDE0005060708090A0B0C0D0E0F10111213144B
:0EFFEE0015161718191A1B1C1D1E1F203E0089
:04FFFC0078563412ED
:04000005085FE01898
:00000001FF
