:02000004085F93
:10C0000000C05F08FCFF5F0800000600200005017B
:08C0100004010D1700000000FF
:10C018001348144908B5884205D0134A824202D011
:10C02800124B121A98471248124A0021124B121A40
:10C03800984712481249884205D0124A824202D0D3
:10C048000A4B121A984710481049884205D0104ADE
:10C05800824202D0054B121A9847014808BD00BF1A
:10C068009CA90710F4F75F081CAE07102D0D1110DE
:10C0780020AE0710FCAF0710A10E1110B0C83F0288
:10C08800A8C05F08B8C83F02B8C83F02B0C05F0880
:0CC09800FCFF3F0219C05F080000000020
:08C0A8009CC05F080CF73F0289
:10C0B00081F0004102E000BF83F0004330B54FEA59
:10C0C00041044FEA430594EA050F08BF90EA020FC6
:10C0D0001FBF54EA000C55EA020C7FEA645C7FEA59
:10C0E000655C00F0E2804FEA5454D4EB5555B8BF7C
:10C0F0006D420CDD2C4480EA020281EA030382EAED
:10C10000000083EA010180EA020281EA0303362D7E
:10C1100088BF30BD11F0004F4FEA01314FF4801C51
:10C120004CEA113102D0404261EB410113F0004F63
:10C130004FEA03334CEA133302D0524263EB43031A
:10C1400094EA050F00F0A780A4F10104D5F1200EB8
:10C150000DDB02FA0EFC22FA05F2801841F1000113
:10C1600003FA0EF2801843FA05F359410EE0A5F1E7
:10C1700020050EF1200E012A03FA0EFC28BF4CF018
:10C18000020C43FA05F3C01851EBE37101F00045CE
:10C1900007D54FF0000EDCF1000C7EEB00006EEBDB
:10C1A0000101B1F5801F1BD3B1F5001F0CD3490865
:10C1B0005FEA30004FEA3C0C04F101044FEA4452BC
:10C1C00012F5800F80F09A80BCF1004F08BF5FEA43
:10C1D000500C50F1000041EB045141EA050130BD23
:10C1E0005FEA4C0C404141EB0101013C28BFB1F535
:10C1F000801FE9D291F0000F04BF01460020B1FA80
:10C2000081F308BF2033A3F10B03B3F120020CDA52
:10C210000C3208DD02F1140CC2F10C0201FA0CF030
:10C2200021FA02F10CE002F11402D8BFC2F1200C95
:10C2300001FA02F120FA0CFCDCBF41EA0C0190404B
:10C24000E41AA2BF01EB0451294330BD6FEA040494
:10C250001F3C1CDA0C340EDC04F11404C4F120027F
:10C2600020FA04F001FA02F340EA030021FA04F391
:10C2700045EA030130BDC4F10C04C4F1200220FAE8
:10C2800002F001FA04F340EA0300294630BD21FA26
:10C2900004F0294630BD94F0000F83F4801306BFEC
:10C2A00081F480110134013D4EE77FEA645C18BFE0
:10C2B0007FEA655C29D094EA050F08BF90EA020F77
:10C2C00005D054EA000C04BF1946104630BD91EA6F
:10C2D000030F1EBF0021002030BD5FEA545C05D172
:10C2E0004000494128BF41F0004130BD14F58004B1
:10C2F0003CBF01F5801130BD01F0004545F0FE4125
:10C3000041F470014FF0000030BD7FEA645C1ABF59
:10C31000194610467FEA655C1CBF0B46024650EA90
:10C32000013406BF52EA033591EA030F41F40021BC
:10C3300030BD00BF90F0000F04BF0021704730B542
:10C340004FF4806404F132044FF000054FF0000117
:10C3500050E700BF90F0000F04BF0021704730B5D8
:10C360004FF4806404F1320410F0004548BF4042AD
:10C370004FF000013EE700BF42004FEAE2014FEA02
:10C3800031014FEA02701FBF12F07F4393F07F4FDD
:10C3900081F06051704732F07F4208BF704793F0E0
:10C3A0007F4F04BF41F40021704730B54FF46074F3
:10C3B00001F0004521F000411CE700BF50EA0102F6
:10C3C00008BF704730B54FF000050AE050EA01029F
:10C3D00008BF704730B511F0004502D5404261EB0F
:10C3E00041014FF4806404F132045FEA915C3FF450
:10C3F000D8AE4FF003025FEADC0C18BF03325FEAED
:10C40000DC0C18BF033202EBDC02C2F1200300FA9D
:10C4100003FC20FA02F001FA03FE40EA0E0021FAC2
:10C4200002F11444BDE600BF10F8012B11F8013BE6
:10C43000012A28BF9A42F7D0D01A7047034613F852
:10C44000012B002AFBD1181A0138704770B501F092
:10C45000AFFF0025054E064CA41BA408AC4200D13A
:10C4600070BD56F8043B98470135F7E7D4FF3F020B
:10C47000FCFF3F0200F032B808B500F08BF8BDE8D1
:10C48000084001F04DBF01F01BBB01F027BB0000CD
:10C490000C2008B5024A034901F0B4F9FEE700BFD9
:10C4A00075DB3F021CF73F020078B0FA80F04009CC
:10C4B00070470123037070470368C9B29B6818472F
:10C4C0000EB403B503AB53F8042B0021019301F024
:10C4D0005EFD02B05DF804EB03B0704708B502F0F2
:10C4E0006FF84FF4165102F05FF83C220221184811
:10C4F00000F048FC02F0ECFB02F036F902F0E8FB39
:10C50000682102F05CF902F0E3FB6B21FFF7D4FF36
:10C5100002F0DEFB0021FFF7CFFF02F0D9FB012183
:10C5200002F050F902F0D4FB682102F048F902F061
:10C53000CFFB1C21FFF7C0FF02F0CAFB0021FFF771
:10C54000BBFF02F0C5FBBDE80840012102F03AB98B
:10C5500044AE07100028B8BF40420029B8BF494286
:10C56000884205DD82EAE273A3EBE27398420CDCB9
:10C57000884205DA82EAE273A3EBE273994206DCB1
:10C58000002ACCBF01200320704700207047022002
:10C59000704700002DE9F04186B001F06EFE02F018
:10C5A00097FB682102F00BF902F092FB3B21FFF7A9
:10C5B00083FF02F08DFB002102F004F902F088FBFA
:10C5C00001230622682102F0E2F802F081FB0368F1
:10C5D0001B699847062840F0D28002F079FB036877
:10C5E000DFF8EC815B69984788F8000002F070FB87
:10C5F0000368664E5B699847307002F069FB036818
:10C60000634F5B699847387002F062FB0368614DC5
:10C610005B699847287002F05BFB03685E4C5B69BE
:10C620009847207002F054FB03685B6998475B4BA6
:10C6300098F8002018703378C0B243EA022307EE5E
:10C64000103A3A782B789FED566A43EA022306EEB9
:10C65000903A2378F8EEE66A40EA032007EE900A63
:10C66000F8EEE77A67EE867A4E4F66EE866AC7ED99
:10C67000007AB8EEC77AFDEEE77A27EE067A17EE73
:10C68000902AFDEEE67A17EE901AFDEEC77A464E36
:10C69000464D17EE900A86ED007AC5ED006AFFF769
:10C6A00059FF0446424800F087FA0121404800F053
:10C6B000EFFD01213E4800F0E6FD00223C48114616
:10C6C00000F0DEFD01F0D9FD3A4B02463A490093F5
:10C6D000C31702A801F072FD0299354801F01CFC55
:10C6E00002A801F089FB14220021314800F0C8FDA6
:10C6F00001F0C3FD314B02462F490093C31702A836
:10C7000001F05CFD02992A4801F006FC02A801F044
:10C7100073FBE1B2264800F0C0FD254800F0C2FAE4
:10C720004FF47A7001F0C4FD01F04AFF044630680E
:10C73000FFF722FE02460B4620462149FFF7C0FEC6
:10C7400001F03EFF04462868FFF716FE02460B463E
:10C7500020461C49FFF7B4FE01F032FF044638685A
:10C76000FFF70AFE02460B4620461749FFF7A8FED0
:10C770004FF47A7006B0BDE8F04101F099BD01F0C8
:10C780001FFF124901F0DBFBF2E700BF31AE0710DB
:10C7900038AE071039AE071040AE071041AE071093
:10C7A000000080383CAE07102CAE071034AE0710E6
:10C7B00044AE071031F73F0294AE07103CF73F023A
:10C7C0004CF73F0269F73F0286F73F02A3F73F02AB
:10C7D00030AE0710002208B5074B0120C3E9002244
:10C7E000A2F580329A6001F029F8BDE808404FF0C8
:10C7F000FF31024800F0CAB920AE071044AE07105E
:10C80000F0B5457EBDF81440022D69D0032D00F02F
:10C810009B80012D6CD1D24305892A4412B2002A93
:10C820005DDBB0F90850954259DD0029BEBF5B18A9
:10C8300000211BB2B0F90A00CD188542C4BF431ACB
:10C840001BB2002B4BDDC1F3C400DFF824C102EBA7
:10C85000C01211F00701DBB20CEB02001AD0C1F1DB
:10C860000805414EEDB2AB42775D3FBFFF26A5EB19
:10C87000030E46FA0EF637401CF80260012C0CBF7E
:10C880003E43BE43AB420CF8026028D308390B4448
:10C89000DBB28030072B19D9012C4FF0FF3518BFC0
:10C8A00000251A46EDB200F18001083AD2B2072AFB
:10C8B00001F8805C01F18001F7D8A3F10802C2F30E
:10C8C000C402013200EBC21003F007033BB1274A58
:10C8D000012CD25C03780CBF134393430370F0BD6B
:10C8E000D24345892A44CD18018912B2491B09B2A5
:10C8F000002AF4DBB0F90A509542F0DD0029BEBFF2
:10C900005B1800211BB2B0F90870CE18BE42C4BF3C
:10C910006B1A1BB2002BE2DD8025D01010FB051135
:10C920001348012C014402F007004FF0010202FA03
:10C9300000F2D2B20B440CD18B42D0D011F8010BD3
:10C94000104301F8010CF7E7CD184189491B09B2E2
:10C9500065E7D243D2B28B42C1D011F8010B10402F
:10C9600001F8010CF7E700BFA8A90710A0A907105C
:10C97000B0A90710F0B5457EBDF81440022D36D0A1
:10C98000032D00F09D80012D39D1D5180289521B4D
:10C9900012B20029C0F29380B0F90A508D4240F3E0
:10C9A0008E80002ABEBF9B1800221BB2B0F908700F
:10C9B000D618BE42C4BFAB1A1BB2002B7FDD802548
:10C9C000C81010FB05224648012C024401F0070064
:10C9D0004FF0010101FA00F1C9B2134475D19A4236
:10C9E0006DD012F8010B084302F8010CF7E7C943B8
:10C9F00005892944D518428909B2521B12B200296F
:10CA00005DDBB0F908508D4259DD002ABEBF9B188E
:10CA100000221BB2B0F90A00D5188542C4BF831AA0
:10CA20001BB2002B4BDDC2F3C400DFF8B4C001EB36
:10CA3000C01112F00702DBB20CEB01001AD0C2F1F8
:10CA40000805284EEDB2AB42775D3FBFFF26A5EB50
:10CA5000030E46FA0EF637401CF80160012C0CBF9D
:10CA60003E43BE43AB420CF8016028D3083A13445E
:10CA7000DBB28030072B19D9012C4FF0FF3518BFDE
:10CA800000251A46EDB200F18001083AD2B2072A19
:10CA900001F8805C01F18001F7D8A3F10802C2F32C
:10CAA000C402013200EBC21003F007033BB10E4A8F
:10CAB000012CD25C03780CBF134393430370F0BD89
:10CAC000C9434589294409B263E7C943C9B29A42B7
:10CAD000F5D012F8010B084002F8010CF7E700BF8F
:10CAE000B0A90710A8A90710A0A907107047000057
:10CAF000F8B50D1E064614461F462DDB00F0DBFB85
:10CB0000A84229DD002C27DB304600F0D7FBA042ED
:10CB100022DD304600F0BFFB02281ED0032825D0BE
:10CB2000012804D1E24333892C461A4415B2224627
:10CB30008021002CB8BFE21DD21012FB015501224A
:10CB40000D4904F007044B5702FA04F464B297420B
:10CB50000CBF2343A3434B55F8BDE443318972898D
:10CB600001394D1B14442DB224B2E0E77389013B17
:10CB70005B1B25461CB2DAE7B0A9071010B50446C6
:10CB80002421FFF782FC204610BD000038B5044682
:10CB90000D464022802100F0A5FA064B2046236076
:10CBA000FF2384F8213063774FF6FF7384F8205019
:10CBB000E38338BDC8F73F024FF48062002101488B
:10CBC00002F0E5B8B0A9071013B50A4CD4E88F1FDE
:10CBD00011F001010BD120460191FFF765FC01998D
:10CBE00028B1054801F03CF82046FFF762FC0248F6
:10CBF00002B010BD68AE07106CAE071007B590F814
:10CC0000223043B10191FFF7DFFF019903B05DF8D6
:10CC100004EB01F0D9B80B460122817F407F03B0BD
:10CC20005DF804EB01F056BF38B590F91D300446AD
:10CC300001330D461DD090F92100012180B201F091
:10CC400030FF94F91F00002180B201F02AFF94F90F
:10CC50002100002180B201F024FF29462046FFF781
:10CC6000CDFF94F921000121BDE8384080B201F0E8
:10CC700018BF02F02DF894F91B1001F0A0FD02F08E
:10CC800027F8036800219B68984702F021F80368A1
:10CC900029469B68984702F01BF8BDE8384001F030
:10CCA00095BD0000F8B504462121FFF7BDFF002126
:10CCB0002046FFF7B9FF7F212046FFF7B5FF22216D
:10CCC0002046FFF7B1FF00212046FFF7ADFF072107
:10CCD0002046FFF7A9FF94F91D30294F01332AD0D0
:10CCE00094F92100012180B201F0DBFE94F91F00CC
:10CCF000012180B201F0D5FE94F92100002180B21B
:10CD000001F0CFFE012000F031FB4FF48065013DC2
:10CD1000204617F8011BADB2FFF770FF002DF6D1CA
:10CD2000012000F023FB94F921000121BDE8F84027
:10CD300080B201F0B6BE002501F0CAFF94F91B10C5
:10CD400001F03DFD01F0C4FF036840219B68984756
:10CD500005F11006B6B201F0BBFF0368795D9B6870
:10CD600098476B1C9DB2AE42F5D101F0B1FF01F0C6
:10CD70002DFDB6F5806F00D1F8BD3546DCE700BF6C
:10CD8000B0A9071038B590F91D30044601330D469F
:10CD90000177C27600F0C98090F91F00012180B2AE
:10CDA00001F06EFE94F92100012180B201F068FECD
:10CDB00094F82230002B00F0A68094F92100012184
:10CDC00080B201F06EFEFFF7FFFE012100F066FF6A
:10CDD000FFF7FAFE102100F0D1FFFFF7F5FE00216A
:10CDE00000F070FFFFF7F0FE00F044FF94F9200020
:10CDF000012180B201F044FE94F92000012180B2AB
:10CE000001F04FFE012001F053FA94F920000021B7
:10CE100080B201F046FE0A2001F04AFA94F920009F
:10CE2000012180B201F03DFE2046AE21FFF7FCFE5D
:10CE30002046D521FFF7F8FE20468021FFF7F4FEBB
:10CE40002046A821FFF7F0FE20463F21FFF7ECFE29
:10CE50002046D321FFF7E8FE20460021FFF7E4FE3D
:10CE600020464021FFF7E0FE8D212046FFF7DCFE43
:10CE7000012D0CBF102114212046FFF7D5FE2046BE
:10CE80002021FFF7D1FE20460021FFF7CDFE2046EE
:10CE9000A121FFF7C9FE2046C821FFF7C5FE2046A5
:10CEA000DA21FFF7C1FE20461221FFF7BDFE8121E6
:10CEB0002046FFF7B9FE012D0CBF9F21CF21204650
:10CEC000FFF7B2FED9212046FFF7AEFE012D0CBFC1
:10CED0002221F1212046FFF7A7FE2046DB21FFF7A4
:10CEE000A3FE20464021FFF79FFE2046A421FFF726
:10CEF0009BFE2046A621FFF797FE2046BDE838405E
:10CF0000AF21FFF791BE94F91D00012180B201F01D
:10CF1000B7FD94F91E00012180B201F0B1FD94F833
:10CF20002230002B3FF462AF47E701F0D1FE01F061
:10CF30001BFC5BE72DE9F04F1F4685B0BDF938803B
:10CF4000A7EB010AA8EB0209B9F1000FB8BFC9F1BC
:10CF50000009BAF1000FB8BFCAF1000AD1458346F3
:10CF60000C461546BDF83C3004DD3A462C46474693
:10CF70000D469046BC4205DD2A464546904622466F
:10CF80003C4617463E1BB2B20092A8EB050282EA6D
:10CF9000E271A1EBE271C6F3C03202FA86F64545B2
:10CFA000B4BF01224FF0FF32019176100292BC42D1
:10CFB0001CDCDBF80020D145D2F81080C7BF294621
:10CFC00022462A46214603935846C047019A039BAE
:10CFD000B61AB1B236B2002E05DA029A1544009A9A
:10CFE0002DB2561836B2013424B2E0E705B0BDE8E0
:10CFF000F08F2DE9F347044616468A461D46BDF8D4
:10D000002C800768BDF92890CDF80080FF69B847EB
:10D01000236809F1FF32CDF80080324451462046A2
:10D02000DF6912B22B46B8472368CDF8008032463C
:10D03000514620469F694B46B8476B1E03EB0A01D9
:10D040002368CDF828809D6932464B462046AC4681
:10D0500009B202B0BDE8F047604737B5013BBDF803
:10D060001850134404681BB2009301950B46646981
:10D07000A04703B030BD37B5BDF818500468CDE9FE
:10D080000025013B0B4464691BB2A04703B030BDCF
:10D090002DE9F347054692460C46BDF92890BDF8A8
:10D0A0002C80CE18B4420BDA2B68CDF800802146D4
:10D0B0009F6952464B4628460134B84724B2F1E7EF
:10D0C00002B0BDE8F08713B50191B0F90E10026807
:10D0D0000091546A0022B0F90C301146A04702B00A
:10D0E00010BD70474281C2814FF0FF3230B54261BE
:10D0F00000240122044D44600560018181810461A6
:10D100000283827630BD00BFFCFC3F022DE9F04F68
:10D110002DED028B8DB00491BDF86010074605918E
:10D12000BDF864109DF868500691B0F90C10049891
:10D13000814252DDB7F90E1091424EDD062111FBFE
:10D140000504002C49DD02EBC504002C45DD00245C
:10D1500003EB83030B9393B2079308339BB20891BD
:10D160000993052C0FBF00232B4B0B9A1B1918BFDB
:10D170009B5C049A0393ABB20A9304FB05F3079EEE
:10D1800013FA82F31BB208EE103AB04604EB020A1F
:10D190000FFA85F90FFA8AFA039BDB072FD5012DC9
:10D1A0003B681FD1D3F810B0059B5146384632B2C8
:10D1B000D847039B01365B0803930A9BB6B2984499
:10D1C000099B1FFA88F8B342E6D1089B0134013B62
:10D1D00013F0FF0364B20893C3D10DB0BDEC028B12
:10D1E000BDE8F08F059ACDE9009218EE101AD3F839
:10D1F00024B038464B460FFA88F2D847D9E7DDE924
:10D2000005239342D5D0012D3B6803D1D3F810B04C
:10D21000069BCAE7069AE6E7F8F73F0230B50A2907
:10D22000044685B007D1027E638A03EBC2036382A2
:10D230000023238221E00D291FD0037E0293C38A9D
:10D240000193838A0093B0F912200B46B0F91010B5
:10D25000FFF75CFF207E238A00EB400103EB4103D4
:10D26000A17E1BB20246238239B16FF00505B4F9E5
:10D270000C1005FB00118B42D6DC012005B030BD3F
:10D28000018242827047012938BF0121017670472F
:10D29000C18281827047407E704701F00303B0F97C
:10D2A0000A204376B0F90830C90759BF8381C2818B
:10D2B0008281C3817047B0F90C007047B0F90E004D
:10D2C0007047000009B504480068044B03441B681C
:10D2D0009B68029309BD00009CA907105000000044
:10D2E00009B504480068044B03441B68DB680293DB
:10D2F00009BD00009CA907105000000009B50448B2
:10D300000068044B03441B689B68029309BD00003E
:10D310009CA907101400000009B504480068044BDC
:10D3200003441B68DB68029309BD00009CA9071039
:10D330001400000009B504480068044B03441B684E
:10D340001B69029309BD00009CA90710140000008E
:10D3500009B504480068044B03441B685B680293EA
:10D3600009BD00009CA907100000000009B5044891
:10D370000068044B03441B68DB68029309BD00008E
:10D380009CA907100000000009B504480068044B80
:10D3900003441B685B69029309BD00009CA9071048
:10D3A0000000000009B504480068044B03441B68F2
:10D3B0009B6D029309BD00009CA9071000000000AE
:10D3C00009B504480068044B03441B685B6E029374
:10D3D00009BD00009CA907100000000009B5044821
:10D3E0000068044B03441B685B6C029309BD00009A
:10D3F0009CA907103000000009B504480068044BE0
:10D4000003441B685B69029309BD00009CA90710D7
:10D410004C00000009B504480068044B03441B6835
:10D42000DB68029309BD00009CA9071024000000DE
:10D4300009B504480068044B03441B681B69029348
:10D4400009BD00009CA907102400000009B504488C
:10D450000068044B03441B685B69029309BD00002C
:10D460009CA907102400000009B504480068044B7B
:10D4700003441B689B69029309BD00009CA9071027
:10D480002400000009B504480068044B03441B68ED
:10D49000DB69029309BD00009CA90710240000006D
:10D4A00009B504480068044B03441B681B6A0293D7
:10D4B00009BD00009CA907102400000009B504481C
:10D4C0000068044B03441B689B6A029309BD00007B
:10D4D0009CA907102400000009B504480068044B0B
:10D4E00003441B681B6C029309BD00009CA9071034
:10D4F0002400000009B504480068044B03441B687D
:10D50000DB68029309BD00009CA907101000000011
:10D5100009B504480068044B03441B689B690293E7
:10D5200009BD00009CA907101000000009B50448BF
:10D530000068044B03441B68DB69029309BD0000CB
:10D540009CA907101000000009B504480068044BAE
:10D5500003441B681B6A029309BD00009CA90710C5
:10D560001000000009B504480068044B03441B6820
:10D570005B6A029309BD00009CA90710100000001F
:10D5800009B504480068044B03441B689B6A029376
:10D5900009BD00009CA907101000000009B504484F
:10D5A0000068044B03441B68DB6A029309BD00005A
:10D5B0009CA907101000000009B504480068044B3E
:10D5C00003441B681B6B029309BD00009CA9071054
:10D5D0001000000009B504480068044B03441B68B0
:10D5E0005B6B029309BD00009CA9071010000000AE
:10D5F00009B504480068044B03441B681B6C029384
:10D6000009BD00009CA907101000000009B50448DE
:10D610000068044B03441B681B6D029309BD0000A6
:10D620009CA907101000000009B504480068044BCD
:10D6300003441B681B68029309BD00009CA90710E6
:10D640001800000009B504480068044B03441B6837
:10D650009B68029309BD00009CA9071018000000F8
:10D6600009B504480068044B03441B68DB68029357
:10D6700009BD00009CA907101800000009B5044866
:10D680000068044B03441B681B69029309BD00003A
:10D690009CA907101800000009B504480068044B55
:10D6A00003441B685B69029309BD00009CA9071035
:10D6B0001800000009B504480068044B03441B68C7
:10D6C000DB69029309BD00009CA907101800000047
:10D6D00009B504480068044B03441B681B6A0293A5
:10D6E00009BD00009CA907101800000009B50448F6
:10D6F0000068044B03441B685B6A029309BD000089
:10D700009CA907101800000009B504480068044BE4
:10D7100003441B681B6C029309BD00009CA9071001
:10D720001800000009B504480068044B03441B6856
:10D730005B6C029309BD00009CA907101800000053
:10D7400009B504480068044B03441B681B68029336
:10D7500009BD00009CA907103400000009B5044869
:10D760000068044B03441B685B68029309BD00001A
:10D770009CA907103400000009B504480068044B58
:10D7800003441B681B69029309BD00009CA9071094
:10D790003400000009B504480068044B03441B68CA
:10D7A0005B69029309BD00009CA9071034000000CA
:10D7B00009B504480068044B03441B689B69029345
:10D7C00009BD00009CA907103400000009B50448F9
:10D7D0000068044B03441B68DB69029309BD000029
:10D7E0009CA907103400000009B504480068044BE8
:10D7F00003441B681B6A029309BD00009CA9071023
:10D800003400000009B504480068044B03441B6859
:10D810005B6B029309BD00009CA907104800000043
:10D8200009B504480068044B03441B681B68029355
:10D8300009BD00009CA907100800000009B50448B4
:10D840000068044B03441B685B68029309BD000039
:10D850009CA907100800000009B504480068044BA3
:10D8600003441B685B69029309BD00009CA9071073
:10D870000800000009B504480068044B03441B6815
:10D880009B6D029309BD00009CA9071008000000D1
:10D8900009B504480068044B03441B68D3F888307A
:10D8A000029309BD9CA907100800000009B50448AF
:10D8B0000068044B03441B68D3F89430029309BDFD
:10D8C0009CA907100800000009B504480068044B33
:10D8D00003441B685B68029309BD00009CA9071004
:10D8E0002800000009B504480068044B03441B6885
:10D8F0009B68029309BD00009CA907102800000046
:10D9000009B504480068044B03441B68DB680293B4
:10D9100009BD00009CA907102800000009B50448B3
:10D920000068044B03441B681B69029309BD000097
:10D930009CA907102800000009B504480068044BA2
:10D9400003441B685B69029309BD00009CA9071092
:10D950002800000009B504480068044B03441B6814
:10D960009B69029309BD00009CA9071028000000D4
:10D9700009B504480068044B03441B68DB69029343
:10D9800009BD00009CA907102800000009B5044843
:10D990000068044B03441B681B6A029309BD000026
:10D9A0009CA907102800000009B504480068044B32
:10D9B00003441B681B6B029309BD00009CA9071060
:10D9C0002800000009B504480068044B03441B68A4
:10D9D0005B6B029309BD00009CA9071028000000A2
:10D9E00009B504480068044B03441B681B6C029390
:10D9F00009BD00009CA907102800000009B50448D3
:10DA00000068044B03441B685B6C029309BD000073
:10DA10009CA907102800000009B504480068044BC1
:10DA200003441B685B6D029309BD00009CA90710AD
:10DA30002800000009B504480068044B03441B6833
:10DA40009B6D029309BD00009CA9071028000000EF
:10DA500009B504480068044B03441B689B680293A3
:10DA600009BD00009CA907102C00000009B504485E
:10DA70000068044B03441B685B69029309BD000006
:10DA80009CA907102C00000009B504480068044B4D
:10DA900003441B681B6B029309BD00009CA907107F
:10DAA0002C00000009B504480068044B03441B68BF
:10DAB000DB6B029309BD00009CA907102C0000003D
:10DAC00009B504480068044B03441B681B680293B3
:10DAD00009BD00009CA907100400000009B5044816
:10DAE0000068044B03441B685B68029309BD000097
:10DAF0009CA907100400000009B504480068044B05
:10DB000003441B689B68029309BD00009CA9071091
:10DB10000400000009B504480068044B03441B6876
:10DB20001B69029309BD00009CA9071004000000B6
:10DB300009B504480068044B03441B68DB69029381
:10DB400009BD00009CA907100400000009B50448A5
:10DB50000068044B03441B685B6A029309BD000024
:10DB60009CA907100400000009B504480068044B94
:10DB700003441B681B6C029309BD00009CA907109D
:10DB80000400000009B504480068044B03441B6806
:10DB90005B6C029309BD00009CA907100400000003
:10DBA00009B504480068044B03441B689B6C02934E
:10DBB00009BD00009CA907100400000009B5044835
:10DBC0000068044B03441B68DB6C029309BD000032
:10DBD0009CA9071004000000002240681146FFF7CE
:10DBE000D5BE002240681146FFF7ECBE0022406817
:10DBF000FFF7DABE0022406881F00101FFF7B8BEEE
:10DC0000002340681A461946FFF7A4BE0023406867
:10DC10001A461946FFF790BE002240681146FFF7EA
:10DC20007DBE002240681146FFF75CBE0022022143
:10DC30004068FFF765BE002340681A46FFF744BE00
:10DC40000322024B5A60024A1A60704774AE0710F2
:10DC500034FD3F020021FFF765BD0021FFF754BDF1
:10DC600010B5044608462170FFF724FD0023204626
:10DC7000636010BD13B504460078FFF7EEFF58B996
:10DC800020784FF6FF710190FFF7CEFC019802B0AB
:10DC9000BDE81040FFF7DEBF02B010BD13B504466B
:10DCA00000780191FFF7D9FF019948B920780190D8
:10DCB000FFF7C8FC019802B0BDE81040FFF7CABFEB
:10DCC00002B010BD13B5044600780191FFF7C5FFFF
:10DCD000019948B920780190FFF7C2FC019802B081
:10DCE000BDE81040FFF7B6BF02B010BD30B500244C
:10DCF000400818601868E5B2884206D90134082C3B
:10DD000002D040081860F5E70725024B5B5D1370F1
:10DD100030BD00BF70FD3F0200232DE9F0410446F5
:10DD200088B000780E4617460293FFF796FF054627
:10DD300000BB0146142203A894F8008001F027F8E4
:10DD40000B232A46404603A9ADF80C30FFF7CEFC62
:10DD500007FB06F1049802AB0DF107028DF807509E
:10DD6000FFF7C4FF20789DF80710FFF787FC2078A5
:10DD7000FFF770FF029808B0BDE8F08138B504469F
:10DD800000780D46FFF769FF0346D0B9616899B185
:10DD90000C4A12F8010B854202D00133082BF8D14E
:10DDA0000133DBB201222046D940FFF7B5FF2078CE
:10DDB000BDE83840FFF74EBF29462078FFF75EFCEC
:10DDC000F5E738BD70FD3F0208B50078FFF764FC49
:10DDD000C0B208BD02220020044B1A60044B054A61
:10DDE000C3E900009A60FFF729BD00BF88AE0710A5
:10DDF0007CAE07100000FFFF10B504460068FFF777
:10DE00006DFE204610BD10B50446006808B1FFF74E
:10DE100065FE0023C4E90133236010BD38B5044614
:10DE20000D4600680131FFF767FE10B1C4E9000537
:10DE3000012038BD10B50368044623B143688B4206
:10DE400001D3012010BD2046FFF7E8FF0028F9D0DC
:10DE5000A368002BF5D122681370F2E737B50D46A1
:10DE6000114601920446FFF7E5FF019A28B92046C2
:10DE7000FFF7C9FF204603B030BD2946A2602068E5
:10DE800000F078FF00212268A368D154F2E7002354
:10DE900013B50446C0E900338360037341B10846FB
:10DEA0000191FEF7CBFA019902462046FFF7D6FF13
:10DEB000204602B010BD0000002302480360FFF7B7
:10DEC0008DBA00BF8CAE0710F8B506460D4600248B
:10DED0008F18BD420CD0336830469B6815F8011B83
:10DEE0009847031E01DB1C44F3E7002C08BF1C46C7
:10DEF0002046F8BD13B50446084659B10191FEF716
:10DF00009DFA0246204623680199DB6802B0BDE80D
:10DF10001040184702B010BD08B5FFF7EBFF08BD71
:10DF200003689B68184738B50D210546FFF7F8FFD1
:10DF30000A2104462846FFF7F3FF204438BD38B5D0
:10DF40000546FFF7D7FF04462846FFF7ECFF2044BD
:10DF500038BD0023012A98BF0A2230B58BB08DF856
:10DF6000243009AC0D46B1FBF2F101FB125303F072
:10DF7000FF03092B94BF30333733DBB2AA4204F8D6
:10DF8000013DEFD92146FFF7B5FF0BB030BD2DE9BC
:10DF9000F04186B000AF05460E46381D14211446E8
:10DFA0003B60FFF7D3FD13280ED82846391DFFF735
:10DFB000A1FF04461EB12846FFF7B5FF04442046E2
:10DFC0001837BD46BDE8F08100F1080323F00703D0
:10DFD000E846ADEB030D2246411C3B686846FFF75F
:10DFE000B5FD69462846FFF785FF0446C546E1E7CB
:10DFF00010B50446FFF7C8F9E060236820465B6966
:10E000009847002808DAFFF7BFF9E368C01AA36849
:10E010009842F2D34FF0FF3010BD2DE9F041074692
:10E020000C460D468E18B542A5EB040807D03846BD
:10E03000FFF7DEFF031E02DB05F8013BF3E7404676
:10E04000BDE8F081014B024A1A60704790AE07109C
:10E0500078FD3F0208B50020FFF716FD28B1FFF755
:10E0600005FD80F00100C0B208BD0120FCE7000002
:10E0700030B593B0CDE90023194B0446D3E9001025
:10E08000019B521843EB000316480025D0E900100D
:10E09000521843EB0003CDE90023242200210DEBAD
:10E0A000020000F074FE09A96846FFF787FD1622FA
:10E0B000294603A8029500F06AFE02A909A800F00B
:10E0C0002DFE02A8FEF7BAF912AB184400F8415C25
:10E0D00002A92046FFF7DBFE204613B030BD00BF8B
:10E0E000A8AE0710A0AE07102DE9F047A4B0074670
:10E0F000884614A811463F221C4600F087FE0023E4
:10E1000014A88DF88F30FEF799F905464CBB2949C4
:10E1100003A800F073FE002614AC05F1FF39B145E9
:10E1200034D9237806F1010A252B17D163787A2B8D
:10E1300014D103A8FEF782F9054614AB3018184431
:10E14000A9EB0602A11C00F015FE2A4603A92046F1
:10E1500000F010FE14A8FEF771F90546564601348A
:10E16000DBE73C2394FBF3F2002AB8BF5242B2FB38
:10E17000F3F103FB11224FF46163009294FBF3F37C
:10E1800010210D4A03A8FFF7D3FCC4E700212E227B
:10E1900008A8079100F0FBFD434614AA322107A806
:10E1A000FFF7FEFC384607A9FFF771FE384624B09A
:10E1B000BDE8F0877CFD3F027EFD3F02F0B58DB0EB
:10E1C000129D0446CDE9002315B9194B1D682DB1E8
:10E1D000184B28461968FEF727F938B9DDE90023FE
:10E1E0002046FFF745FF20460DB0F0BD0099124EC6
:10E1F000124FD6E900325B18019942EB0102D7E9D0
:10E2000000011B1842EB0102CDE90032002124225B
:10E2100003A800F0BCFD03A96846FFF7CFFC3268F5
:10E220003B682046134403A92A46FFF75DFFDAE75F
:10E2300098AE0710B0AD0710A8AE0710A0AE07103B
:10E2400010B50020FFF7AEF80446A0B9FFF7E8FAD2
:10E25000012810D12046FFF70DFB60B9FFF7FAFE49
:10E2600010B9FFF7F5FBF9E7FFF7F4FEBDE8104042
:10E270000020FFF797B8204610BD1FB5FFF7E0FF5D
:10E2800010220021684600F082FD00216846FFF759
:10E2900097F8009805B05DF804FB0000024B1A687F
:10E2A000024B1A60704700BFB0AD071098AE071060
:10E2B0000021FFF7D1BA00000022014B9A6070479D
:10E2C000B0AE0710014B1860704700BFB4AD071027
:10E2D00008B50F4B43B100F073F903681B69984709
:10E2E000002801DD00E000BF0A4B43B100F044FC10
:10E2F00003681B699847002801DD00E000BF064B5A
:10E300000BB100F07FFC054B0BB100F0B1FC08BD78
:10E3100000000000000000000000000000000000FD
:10E3200008B5FFF7D5FFFFF72FF8014B186008BDC0
:10E330004CAF07100548064A08B5121A054900F007
:10E3400019FD054B054A1A6008BD00BF00B407104F
:10E3500004B4071074FC5F0800B407101E1C279A51
:10E36000002307B51A466FF077010093FFF79EFA76
:10E3700003B05DF804FB000007B543880A2B08D002
:10E38000502B0BD1094B1B684BB103B05DF804EB6C
:10E390001847FFF7E5FF03B05DF804FB00231A46BA
:10E3A0006FF077010093FFF781FAF4E7C4AE07102E
:10E3B000002110B51148FFF7E5FB114B1A68114B0E
:10E3C0009A420CBF012200220F4B1A7001D0FFF7B6
:10E3D000B1FFFEF7BDFF044600F0E2FC0B4B13B1AA
:10E3E000204600E000BF00210848FFF75BFBBDE8C6
:10E3F000104000210648FFF74BBA00BFCDEA3F02AC
:10E4000000B407101E1C279AC0AE071000000000C1
:10E4100081EB3F02704710B504461821FEF735F82E
:10E42000204610BDF0B5037D0E46062B4FF00004CC
:10E430008DB000F1040712D000F1080515F8011D98
:10E440000A223046FFF785FDAF42044419D0002C64
:10E45000F4D02E213046FFF763FD0444EEE72F236E
:10E460006A4639460A208DF80040FEF7C5FF684627
:10E47000FDF7E4FF3368024669463046DB6898479B
:10E48000044620460DB0F0BD10B50446044B1122E1
:10E49000002140F8043B00F07AFC204610BD00BF8C
:10E4A000B0FD3F020346074A10B543F8042B01F1C3
:10E4B000100251F8044B914243F8044BF9D10A7809
:10E4C0001A7010BDB0FD3F0210B59DF8084044EA37
:10E4D000032343EA0242042342EA016141600375D7
:10E4E00010BD000007B5064B0360CB7800938B7816
:10E4F0004A780978FFF7E8FF03B05DF804FB00BF36
:10E50000B0FD3F02417470477047704708B5002165
:10E51000007CFFF74DF940EAE07008BD08B5012125
:10E52000007CFFF745F940EAE07008BD08B5007CC3
:10E53000FFF730F920EAE07008BD08B5007CFFF76E
:10E540001BF920EAE07008BD13B50446007C019178
:10E55000FFF720F90028019901DC607C20B1207CC4
:10E56000FFF734F920EAE07002B010BD007CFFF73D
:10E570003BB910B504461421FDF787FF204610BDB6
:10E5800010B54FF47A73044608460021C4E901131C
:10E59000044B20742360012311466374FFF7D0F805
:10E5A000204610BDC4FD3F020022007CFFF7D6B814
:10E5B00010B504461422002100F0E9FB204610BDEE
:10E5C00010B588B003A8FFF7F3FF0C4CD4E88F1FF9
:10E5D00011F001010FD120460191FDF765FF01996E
:10E5E00048B103AA0648FFF7CBFF2046FDF761FFBD
:10E5F000044800F0B9FB024808B010BDC8AE0710CF
:10E60000CCAE071011ED3F0270474174704708B55A
:10E61000007CFEF753FF20EAE07008BD08B5007CDF
:10E62000FEF706FF20EAE07008BD08B5007CFEF7A3
:10E630001BFF40EAE07008BD08B5007CFEF706FF4E
:10E6400040EAE07008BD007CFEF71CBF37B5457C92
:10E6500004462DB1207C03B0BDE83040FEF7DABEA1
:10E66000007C0191FEF72AFF00280199F2DC284680
:10E6700003B030BD10B504461421FDF706FF204657
:10E6800010BD000010B54FF47A73044608461146D9
:10E690000022C4E90123044B207423600123637426
:10E6A000FEF71AFF204610BDF8FD3F02007CFEF782
:10E6B000F7BE7047F8B5064615460C468F18BC42A3
:10E6C00006D0336830469B6814F8011B9847F6E77C
:10E6D0002846F8BD0022007CFEF736BF0021007CF2
:10E6E000FEF740BF0021007CFEF74ABF0021007CFE
:10E6F000FEF754BF0021007CFEF75EBF10B5044654
:10E700001421FDF7C2FE204610BD0022C0E9002200
:10E71000182202800A7802714A688260CA68C26060
:10E720000A7A02610A6942617047000038B50446FE
:10E7300015464FF47A730022C4E90123094B0846B9
:10E74000217423602946FEF753FFBF3008D16B695F
:10E75000DB0705D56868FFF7C1F9E868FFF7BEF980
:10E76000204638BD2CFE3F020023007C1A46194685
:10E77000FEF7C0BE10B5044686B06846FFF7C5FF79
:10E7800000226946207CFEF741FF06B010BD7FB530
:10E790008DF8041000214FF0640C5B1A18BF0123A0
:10E7A000CDE904C101A902928DF80C30FFF7E2FF18
:10E7B00007B05DF804FB0022007CFEF7A9BEC9B2D9
:10E7C000FFF7F9BF0022007CFEF7B0BE0121FFF782
:10E7D000F9BF0000FF210022044B0120C3E9001211
:10E7E00064211A61C3E90201704700BFE0AE07105F
:10E7F000002240681146FFF791B800224068114698
:10E80000FFF7C4B8002240681146FFF7DBB80022CA
:10E810004068FFF7C9B80022406881F00101FFF7A6
:10E82000A7B8002340681A461946FFF793B800239B
:10E8300040681A461946FFF77FB800224068114623
:10E84000FFF750B8002202214068FFF759B80023B3
:10E8500040681A46FFF738B80422024B5A60024A51
:10E860001A607047F4AE071058FE3F02002340685C
:10E870001A46FFF729B8002202214068FFF740B886
:10E88000002240681146FFF72DB80022406811466B
:10E89000FFF744B8002340681A461946FFF74CB802
:10E8A000002340681A461946FFF754B80021406813
:10E8B000FFF796B800214068FFF7A0B80022406833
:10E8C00081F00101FFF754B800224068FFF76CB8EF
:10E8D000002240681146FFF775B8002240681146D3
:10E8E000FFF754B800214068FFF7A4B82DE9F043C2
:10E8F00095B014460D460746FFF7C6FD00211C22C1
:10E900000DA8009100F043FA402320460C9300210B
:10E910006B460CAAFEF7E4FC044600284BD10246E5
:10E9200001216868FEF7FAFF0221804622466868E6
:10E93000FEF7F4FF21468146009E002E3BD00029C1
:10E9400039D17368022B03D00A2B11D0F669F4E792
:10E95000B8F1000FFAD0716906A804313C1D07AD6B
:10E96000FFF7C0FD0FCD0FC42B6841462370EDE7C4
:10E97000B9F1000FEAD0102201A8746900F007FA7B
:10E98000062301AD8DF8143004F1080318342A462B
:10E9900018685968083303C2A3421546F7D101A984
:10E9A00006A83C1D07ADFFF77DFD0FCD0FC42B68FA
:10E9B00049462370CAE70098FEF784FC384615B034
:10E9C000BDE8F083033802289ABF024B53F82000B9
:10E9D0000148704794FE3F02FCAE071008B50022C4
:10E9E0004068FFF719F8BDE80840FFF7EBBF0000EB
:10E9F000024B034A1A6000225A607047FCAE0710AF
:10EA0000A8FE3F021B2837B5044602D9002003B0F8
:10EA100030BDA0F10F03022B0BD9012821D800F043
:10EA200057F90021007CFEF7D5FD80F00100C0B24F
:10EA3000EDE7114DD5E88F1F11F001010BD12846EC
:10EA40000191FDF731FD019928B10C48FFF708F954
:10EA50002846FDF72EFD094B1878FEF739FE0028F1
:10EA6000D4D1083C012C05D800F086F8007CFEF7D4
:10EA700017FDDAE70120CAE768AE07106CAE071091
:10EA80001B2838B504460D460AD8FF2908D0FFF7E1
:10EA9000B9FF28B129462046BDE83840FEF72EBC14
:10EAA00038BD38B504460D46FEF736FCFF2810D0B9
:10EAB000062804D84D2323FA00F0C30709D42046C2
:10EAC000FFF7A0FF28B129462046BDE83840FEF7F1
:10EAD00031BC38BD2DE9F04190461F46072406465B
:10EAE0000D46C4F10701B8F1000F12D147FA01F148
:10EAF000304601F00101FFF7D4FF01212846FFF75E
:10EB0000D0FF00212846FFF7CCFF013CE9D2BDE849
:10EB1000F08147FA04F1EBE77047000038B514259F
:10EB200004462A46002100F032F925804025074995
:10EB300028462581258200F0EFF8044960602846C8
:10EB400000F0EAF8E060204638BD00BFE4FE3F0276
:10EB50007047704710B50446FFF7E0FF204610BD30
:10EB600010B50446FFF7DAFF204610BD10B5044685
:10EB7000FFF7D4FF204610BD30B50E4D87B0D5E865
:10EB80008F1F11F0010411D12846FDF78DFC68B1EB
:10EB900001A8FFF7DFFF214601AA0748FFF772FD32
:10EBA0002846FDF786FC054800F0DEF8024807B06D
:10EBB00030BD00BF04AF071010AF071021F33F02B4
:10EBC00010B50D4C86B0D4E88F3FDB0711D420463A
:10EBD000FDF76AFC68B101A8FFF7C2FF012101AA95
:10EBE0000648FFF74FFD2046FDF763FC044800F0A0
:10EBF000BBF8024806B010BD08AF071024AF0710DD
:10EC00005BF33F0210B5FFF7DBFF074B044653B140
:10EC1000FFF74CFD38B1236820461B699847002850
:10EC200001DD00E000BF10BD0000000010B50D4C7C
:10EC300086B0D4E88F3FDB0711D42046FDF734FCC3
:10EC400068B101A8FFF792FF022101AA0648FFF769
:10EC500019FD2046FDF72DFC044800F085F8024818
:10EC600006B010BD0CAF071038AF071059F33F02C4
:10EC700010B5FFF7DBFF074B044653B1FFF716FD56
:10EC800038B1236820461B699847002801DD00E061
:10EC900000BF10BD000000007047000038B50A4BEF
:10ECA00004460360012309494361202000F034F841
:10ECB0002025606005492846A56000F02DF8C4E9CC
:10ECC0000305204638BD00BF18000100E4FE3F02E6
:10ECD00030B50E4D87B0D5E88F1F11F0010411D16A
:10ECE0002846FDF7E1FB68B16846FFF7D7FF6A46A3
:10ECF00021460748FFF71AFD2846FDF7DAFB0548CD
:10ED000000F032F8024807B030BD00BF50AF071026
:10ED100054AF0710A1F43F02FDF7B5BB10B50C4688
:10ED2000416986B0036901F26C71826903EB4303A8
:10ED3000049102EB420201680391416802918168EB
:10ED40000191C1682046009104490B4404490A44DA
:10ED50000449FEF7DFFE204606B010BD1AFF3F0251
:10ED600005FF3F02E5FE3F02002301461A46184612
:10ED700000F060B80A44431E914200D1704710B5BC
:10ED800011F8014B914203F8014FF9D110BD024433
:10ED90000346934200D1704703F8011BF9E70000D6
:10EDA00038B5104B04461D68AB6BB3B91820FEF79D
:10EDB00087FE0246A86320B90B4B42210B48FEF7A1
:10EDC000D3FE0B490B4BC0E900130B4B00218360B2
:10EDD0000B2383810120C2E90401AB6B00221C617B
:10EDE0005A6138BDB4AD07103EFF3F0255FF3F02E8
:10EDF0000E33CDAB34126DE6ECDE0500034611F8A0
:10EE0000012B03F8012B002AF9D170470139034681
:10EE100010B532B111F8014F013A03F8014B002C43
:10EE2000F7D11A440021934200D110BD03F8011B11
:10EE3000F9E700002DE9F843DFF8BC8006461F46DD
:10EE40000D46D8F80000914600F058F8264B1C6893
:10EE500034B9264C1C60264B13B11B68C4F88830AB
:10EE600063681F2B07DDD8F8000000F049F84FF069
:10EE7000FF30BDE8F8835EB3D4F8880088B91D4B35
:10EE800023B9D8F8000000F03AF8F0E74FF48470A6
:10EE9000FEF716FE0028F4D00023C0E94033C4F882
:10EEA000880063680122022E40F8239002FA03F2E0
:10EEB00000EB8301D0F8003143EA0203C0F80031CF
:10EEC000C1F8807002BFD0F804311343C0F8043198
:10EED0006368D8F800005A1C0233626044F823507B
:10EEE00000F00EF80020C4E7F4AF071068AF071079
:10EEF00000000000C9E23F0218AE071070477047DB
:10EF00007047000055CC3F027DCC3F0281CC3F02D0
:10EF10000000000043616C6C206F6E20707572659C
:10EF2000207669727475616C002541202C20254281
:10EF3000202564002549203A20254D203A202553DC
:10EF400020257000582D6178697320616363656CBA
:10EF500065726174696F6E3A20252E326620670AE9
:10EF600000592D6178697320616363656C65726116
:10EF700074696F6E3A20252E326620670A005A2D7A
:10EF80006178697320616363656C65726174696F30
:10EF90006E3A20252E326620670A004572726F7223
:10EFA0002072656164696E672066726F6D204D50D6
:10EFB0005536303530000000000000000000000031
:10EFC000F5D23F0285D33F0225DA3F02D1E63F0268
:10EFD000F9D23F023DD73F027DD13F0209D03F0227
:10EFE000FBD73F0299D83F02CFD83F02EBD83F0270
:10EFF00000000000003E5B4F5B3E3E6B4F6B3E1CD3
:10F000003E7C3E1C183C7E3C181C577D571C1C5EE9
:10F010007F5E1C00183C1800FFE7C3E7FF001824C0
:10F020001800FFE7DBE7FF30483A060E262979296A
:10F0300026407F050507407F05253F5A3CE73C5A9F
:10F040007F3E1C1C08081C1C3E7F14227F22145F7C
:10F050005F005F5F06097F017F006689956A6060D7
:10F0600060606094A2FFA29408047E040810207ED1
:10F07000201008082A1C08081C2A08081E10101056
:10F08000100C1E0C1E0C30383E3830060E3E0E069C
:10F09000000000000000005F0000000700070014EF
:10F0A0007F147F14242A7F2A1223130864623649AE
:10F0B0005620500008070300001C22410000412296
:10F0C0001C002A1C7F1C2A08083E0808008070309B
:10F0D000000808080808000060600020100804020A
:10F0E0003E5149453E00427F400072494949462110
:10F0F00041494D331814127F1027454545393C4A84
:10F10000494931412111090736494949364649499A
:10F11000291E0000140000004034000000081422E2
:10F120004114141414140041221408020159090650
:10F130003E415D594E7C1211127C7F494949363E51
:10F14000414141227F4141413E7F494949417F0937
:10F150000909013E414151737F0808087F00417F42
:10F1600041002040413F017F081422417F40404040
:10F17000407F021C027F7F0408107F3E4141413ED8
:10F180007F090909063E4151215E7F09192946265A
:10F190004949493203017F01033F4040403F1F205E
:10F1A00040201F3F4038403F631408146303047835
:10F1B00004036159494D43007F4141410204081055
:10F1C00020004141417F0402010204404040404090
:10F1D000000307080020545478407F2844443838FE
:10F1E00044444428384444287F3854545418000870
:10F1F0007E090218A4A49C787F0804047800447D4A
:10F2000040002040403D007F1028440000417F40E6
:10F21000007C047804787C0804047838444444383A
:10F22000FC1824241818242418FC7C08040408481A
:10F230005454542404043F44243C4040207C1C206B
:10F2400040201C3C4030403C44281028444C9090C6
:10F25000907C4464544C4400083641000000770020
:10F2600000004136080002010204023C2623263C2D
:10F270001EA1A161123A4040207A385454555921B8
:10F2800055557941215454784121555478402054A2
:10F290005579400C1E5272123955555559395454EE
:10F2A000545939555454580000457C410002457D5D
:10F2B000420001457C40F0292429F0F0282528F05F
:10F2C0007C545545002054547C547C0A097F4932B3
:10F2D000494949323248484832324A4848303A412E
:10F2E00041217A3A42402078009DA0A07D394444D3
:10F2F00044393D4040403D3C24FF2424487E49435E
:10F30000662B2FFC2F2BFF0929F620C0887E0903CE
:10F3100020545479410000447D413048484A3238F5
:10F320004040227A007A0A0A727D0D19317D262921
:10F33000292F28262929292630484D402038080819
:10F34000080808080808382F10C8ACBA2F1028344D
:10F35000FA00007B000008142A142222142A140840
:10F36000AA005500AAAA55AA55AA000000FF00103D
:10F370001010FF00141414FF001010FF00FF1010F5
:10F38000F010F0141414FC001414F700FF0000FF38
:10F3900000FF1414F404FC141417101F10101F1095
:10F3A0001F1414141F00101010F0000000001F1094
:10F3B0001010101F10101010F010000000FF10109F
:10F3C00010101010101010FF10000000FF140000AB
:10F3D000FF00FF00001F10170000FC04F4141417B6
:10F3E00010171414F404F40000FF00F7141414149C
:10F3F000141414F700F7141414171410101F101F0E
:10F40000141414F4141010F010F000001F101F005A
:10F4100000001F14000000FC140000F010F0101099
:10F42000FF10FF141414FF141010101F0000000030
:10F43000F010FFFFFFFFFFF0F0F0F0F0FFFFFF0024
:10F4400000000000FFFF0F0F0F0F0F384444384437
:10F450007C2A2A3E147E02020606027E027E026397
:10F46000554941633844443C04407E201E20060236
:10F470007E020299A5E7A5991C2A492A1C4C720113
:10F48000724C304A4D4D303048784830BC625A4654
:10F490003D3E494949007E0101017E2A2A2A2A2A45
:10F4A00044445F444440514A444040444A5140002F
:10F4B00000FF0103E080FF000008086B6B083612B4
:10F4C000362436060F090F06000018180000001039
:10F4D00010003040FF0101001F01011E00191D171F
:10F4E00012003C3C3C3C000000000000000000001A
:10F4F00000000000000000000000000025DA3F02CC
:10F50000D1E63F0299CC3F023DD73F0263D83F028C
:10F510007FD83F02FBD73F0299D83F02CFD83F02A6
:10F52000EBD83F0200000000000000003FE43F0273
:10F5300035E43F022BE43F0221E43F0215E43F02A1
:10F5400009E43F02B5F03F02BDF03F02FDE33F0298
:10F55000F5E33F02EBE33F02E1E33F02E5F13F0267
:10F56000EDF03F02F5F03F02000810182028303877
:10F57000617070005A00252B3033643A25303275A3
:10F580000025592D256D2D25645425483A254D3AE1
:10F590002553257A0061736374696D65000000006E
:10F5A00000000000000000002DEC3F021DEC3F02B7
:10F5B0001FEC3F02000000000000000013ED3F02BE
:10F5C0007BED3F0251ED3F02D1E63F0243ED3F02AA
:10F5D00015ED3F0225ED3F0275ED3F0223E83F02A6
:10F5E00035ED3F020DED3F0200000000000000007D
:10F5F00011EE3F027DEE3F0255EE3F02D1E63F02A3
:10F6000025EE3F0241EE3F0233EE3F024FEE3F0256
:10F6100023E83F0213EE3F0217EE3F020000000016
:10F6200000000000BBEE3F0205EF3F02DDEE3F02AF
:10F63000BDEE3F02E5EE3F02EDEE3F02F5EE3F028A
:10F64000FDEE3F0223E83F02000000000000000042
:10F6500057F03F024DF03F0243F03F02F9EF3F0207
:10F6600037F03F022BF03F02B5F03F02BDF03F0202
:10F670001FF03F0217F03F020DF03F0203F03F0280
:10F68000E5F13F02EDF03F02F5F03F0274AE0710E6
:10F69000F4AE0710FCAE07100000000000000000F0
:10F6A00075F03F027FF03F0289F03F0293F03F0286
:10F6B0009DF03F02A9F03F02B5F03F02BDF03F02CE
:10F6C000C5F03F02D1F03F02D9F03F02E3F03F0224
:10F6D000E5F13F02EDF03F02F5F03F0200252E3349
:10F6E0007320252E337325336420252E32643A256A
:10F6F0002E32643A252E32642025640A0053756E3A
:10F700004D6F6E54756557656454687546726953DC
:10F7100061744A616E4665624D61724170724D61FD
:10F72000794A756E4A756C4175675365704F63749D
:10F730004E6F764465635245454E54206D616C6C46
:10F740006F6320737563636565646564002F6D6E18
:10F75000742F776F726B73706163652F776F726B45
:10F7600073706163652F4743432D31302D7069708D
:10F77000656C696E652F6A656E6B696E732D4743A4
:10F78000432D31302D706970656C696E652D34388C
:10F790005F32303230313132345F313630363138E9
:10F7A000303634312F7372632F6E65776C69622F38
:10F7B0006E65776C69622F6C6962632F7374646C19
:10F7C00069622F72616E642E63000000DDCF3F021C
:10F7D00049E43F02DDE53F02C1E63F024DE83F025A
:10F7E000A5EA3F02C1EA3F02DDEF3F0261F03F02BE
:04F7F000F9F13F02EA
:10F7F40000000002000103070F1F3F7F0080C0E0EC
:10F80400F0F8FCFE00000000000000000000000012
:10F8140000000000000000000000000000000000E4
:10F8240000000000000000000000000000000000D4
:10F8340000000000000000000000000000000000C4
:10F844000000008080800000000000000000000034
:10F8540000000000008080C0C00000000000000024
:10F864000000000000000000000000000000000094
:10F874000000000000000000000000000000000084
:10F884000000000000000000000000000000000074
:10F89400000000000000000080C0E0F0F8FCF8E088
:10F8A4000000000000000000000000000000000054
:10F8B4000080808080800080800000000080808044
:10F8C400808000FFFFFF0000000080808080000037
:10F8D4008080000080FFFF80800080800080808026
:10F8E400800080800000000000808000008C8E84F6
:10F8F400000080F8F8F8800000000000000000001C
:10F9040000000000F0F0F0F0F0F0F0F0F0F0F0F0B3
:10F91400E0E0C08000E0FCFEFFFFFF7FFFFFFFFF91
:10F92400FF0000000000000000000000000000FED6
:10F93400FFC70101010183FFFF00007CFEC7010135
:10F94400010183FFFFFF0038FEC78301010183C764
:10F95400FFFF000001FFFF010100FFFF070101019C
:10F9640000007FFF80000000FFFF7F0000FFFFFF1B
:10F97400000001FFFFFF0100000000000000000084
:10F9840000000000030F3F7F7FFFFFFFFFFFFFFF2B
:10F99400E7C7C78F8F9FBFFFFFC3C0F0FFFFFFFF05
:10F9A400FFFCFCFCFCFCFCFCFCF8F8F0F0E0C00004
:10F9B4000103030303030103030000000001030325
:10F9C4000303010103010000000103030303010118
:10F9D4000303000000030300000003030000000011
:10F9E40000000001030303030301000000010301FD
:10F9F40000000003030100000000000000000000FC
:10FA04000000000000000080C0E0F0F9FFFFFFFFED
:10FA1400FF3F1F0F87C7F7FFFF1F1F3DFCF8F8F8D4
:10FA2400F87C7DFFFFFFFFFFFFFFFF7F3F0F070015
:10FA34003030000000000000000000000000000062
:10FA44000000000000000000FEFEFC0000000000BA
:10FA540000000000000000000000000000000000A2
:10FA640000E0C00000000000000000000000303092
:10FA74000000000000000000000000000000000082
:10FA84000000000000C0FEFFFFFFFFFFFFFFFFFFBD
:10FA94007F7F3F1F0F071F7FFFFFF8F8FFFFFFFF68
:10FAA400FFFEF8E00000000100000000000000007C
:10FAB400FEFE000000FCFEFC0C06060EFCF8000036
:10FAC400F0F81C0E0606060CFFFFFF0000FEFE0009
:10FAD400000000FCFEFC00183C7E66E6CE840000BC
:10FAE40006FFFF0606FCFEFC0C0606060000FEFEF2
:10FAF4000000C0F8FC4E4646464E7C7840183C76E2
:10FB0400E6CECC80000000000000000000000000F1
:10FB1400000000000000000001070F1F1F3F3F3FCF
:10FB24003F1F0F0300000000000000000000000061
:10FB34000F0F0000000F0F0F000000000F0F000058
:10FB440003070E0C18180C060F0F0F0000010F0E00
:10FB54000C180C0F070100040E0C180C0F07000002
:10FB6400000F0F00000F0F0F0000000000000F0F28
:10FB740000000007070C0C181C0C060600040E0CF1
:10FB8400180C0F0700000000000000000000000037
:10FB94000000000000000000000000000000000061
:10FBA4000000000000000000000000000000000051
:10FBB4000000000000000000000000000000000041
:10FBC4000000000000000000000000000000000031
:10FBD4000000000000000000000000000000000021
:10FBE4000000000000000000000000000000000011
:10FBF4000000000000000000000000000000000001
:10FC0400000000009DFD3F02B8AD07100000000099
:10FC140000000000000000000000000000000000E0
:10FC240000000000000000000000000000000000D0
:10FC340000000000000000000000000000000000C0
:10FC440000000000000000000000000000000000B0
:10FC540000000000000000000000000000000000A0
:10FC6400000000000000000000000000F8AF0710D2
:04FC7400000000008C
:10FFBE000200100000C05F08A8C05F08B0C83F0272
:10FFCE0001000A00FFFFFFFFFFFF00000102030414
:10FFDE0005060708090A0B0C0D0E0F10111213144B
:0EFFEE0015161718191A1B1C1D1E1F203E0089
:04FFFC0078563412ED
:04000005085FC018B8
:00000001FF
