:02000004085F93
:10E0000000E05F08FCFF5F0800000600200005013B
:08E0100004010D1700000000DF
:10E018001348144908B5884205D0134A824202D0F1
:10E02800124B121A98471248124A0021124B121A20
:10E03800984712481249884205D0124A824202D0B3
:10E048000A4B121A984710481049884205D0104ABE
:10E05800824202D0054B121A9847014808BD00BFFA
:10E0680000AE071010F75F0870AE07102D0D1110E5
:10E0780070AE0710FCAF0710A10E111090E93F0217
:10E08800A8E05F0898E93F0298E93F02B0E05F081E
:0CE09800F8FF3F0219E05F0800000000E4
:08E0A8009CE05F0888FD3F02C7
:10E0B000034613F8012B002AFBD1181A01387047C8
:10E0C00070B500F0F1FC0025054E064CA41BA40819
:10E0D000AC4200D170BD56F8043B98470135F7E7D4
:10E0E000D0FF3F02F8FF3F0200F013B808B500F080
:10E0F0001FF8BDE8084000F08FBC00F039BB00F00D
:10E1000045BB0078B0FA80F04009704701230370E6
:10E11000704708B50121032000F0E4FF012104202D
:10E1200000F0E0FFBDE808400121052000F0DABF63
:10E13000002310B5224C23600121032000F0E3FFEF
:10E140000021042000F0DFFF0121052000F0DBFFAB
:10E15000322000F097F80021052000F0D4FF322093
:10E1600000F090F823680133B3F5C87F2360E3DB48
:10E170004FF47A7000F086F8002323600121032019
:10E1800000F0C1FF0121042000F0BDFF01210520A6
:10E1900000F0B9FF322000F075F80021052000F0F2
:10E1A000B2FF322000F06EF823680133B3F5C87F68
:10E1B0002360E3DBBDE810404FF47A7000F062B8F2
:10E1C0007CAE07100022044B0220C3E90022A2F516
:10E1D00080329A6000F0D0B970AE071009B50448DB
:10E1E0000068044B03441B689B68029309BD000050
:10E1F00000AE07105000000009B504480068044B49
:10E2000003441B68DB68029309BD000000AE0710E1
:10E210005000000009B504480068044B03441B6823
:10E220009B68029309BD000000AE071014000000B7
:10E2300009B504480068044B03441B68DB6802937B
:10E2400009BD000000AE07101400000009B5044825
:10E250000068044B03441B681B69029309BD00005E
:10E2600000AE07101400000009B504480068044B14
:10E2700003441B685B68029309BD000000AE0710F1
:10E280000000000009B504480068044B03441B6803
:10E29000DB68029309BD000000AE0710000000001B
:10E2A00009B504480068044B03441B685B6902938A
:10E2B00009BD000000AE07100000000009B50448C9
:10E2C0000068044B03441B685B6C029309BD0000AB
:10E2D00000AE07103000000009B504480068044B88
:10E2E00003441B685B69029309BD000000AE071080
:10E2F0004C00000009B504480068044B03441B6847
:10E30000DB68029309BD000000AE07102400000086
:10E3100009B504480068044B03441B681B69029359
:10E3200009BD000000AE07102400000009B5044834
:10E330000068044B03441B685B69029309BD00003D
:10E3400000AE07102400000009B504480068044B23
:10E3500003441B689B69029309BD000000AE0710CF
:10E360002400000009B504480068044B03441B68FE
:10E37000DB69029309BD000000AE07102400000015
:10E3800009B504480068044B03441B681B6A0293E8
:10E3900009BD000000AE07102400000009B50448C4
:10E3A0000068044B03441B689B6A029309BD00008C
:10E3B00000AE07102400000009B504480068044BB3
:10E3C00003441B681B6C029309BD000000AE0710DC
:10E3D0002400000009B504480068044B03441B688E
:10E3E0001B6A029309BD000000AE07101000000078
:10E3F00009B504480068044B03441B685B6A029338
:10E4000009BD000000AE07101000000009B5044867
:10E410000068044B03441B689B6A029309BD00001B
:10E4200000AE07101000000009B504480068044B56
:10E4300003441B68DB6A029309BD000000AE0710AD
:10E440001000000009B504480068044B03441B6831
:10E450001B6B029309BD000000AE07101000000006
:10E4600009B504480068044B03441B685B6B0293C6
:10E4700009BD000000AE07101000000009B50448F7
:10E480000068044B03441B681B6C029309BD000029
:10E4900000AE07101000000009B504480068044BE6
:10E4A00003441B68DB69029309BD000000AE07103E
:10E4B0001800000009B504480068044B03441B68B9
:10E4C0001B6A029309BD000000AE0710180000008F
:10E4D00009B504480068044B03441B681B68029399
:10E4E00009BD000000AE07103400000009B5044863
:10E4F0000068044B03441B681B69029309BD0000BC
:10E5000000AE07103400000009B504480068044B51
:10E5100003441B685B69029309BD000000AE07104D
:10E520003400000009B504480068044B03441B682C
:10E530009B69029309BD000000AE07103400000083
:10E5400009B504480068044B03441B68DB69029367
:10E5500009BD000000AE07103400000009B50448F2
:10E560000068044B03441B681B6A029309BD00004A
:10E5700000AE07103400000009B504480068044BE1
:10E5800003441B685B68029309BD000000AE0710DE
:10E590000800000009B504480068044B03441B68E8
:10E5A000D3F88830029309BD00AE071008000000C0
:10E5B00009B504480068044B03441B68D3F8943041
:10E5C000029309BD00AE07100800000009B5044819
:10E5D0000068044B03441B685B68029309BD00009C
:10E5E00000AE07102800000009B504480068044B7D
:10E5F00003441B689B68029309BD000000AE07102E
:10E600002800000009B504480068044B03441B6857
:10E61000DB68029309BD000000AE0710280000006F
:10E6200009B504480068044B03441B681B69029346
:10E6300009BD000000AE07102800000009B504481D
:10E640000068044B03441B685B69029309BD00002A
:10E6500000AE07102800000009B504480068044B0C
:10E6600003441B689B69029309BD000000AE0710BC
:10E670002800000009B504480068044B03441B68E7
:10E68000DB69029309BD000000AE071028000000FE
:10E6900009B504480068044B03441B681B6A0293D5
:10E6A00009BD000000AE07102800000009B50448AD
:10E6B0000068044B03441B681B6B029309BD0000F8
:10E6C00000AE07102800000009B504480068044B9C
:10E6D00003441B685B6B029309BD000000AE07108A
:10E6E0002800000009B504480068044B03441B6877
:10E6F0001B6C029309BD000000AE0710280000004B
:10E7000009B504480068044B03441B685B6C029322
:10E7100009BD000000AE07102800000009B504483C
:10E720000068044B03441B685B6D029309BD000045
:10E7300000AE07102800000009B504480068044B2B
:10E7400003441B689B6D029309BD000000AE0710D7
:10E750002800000009B504480068044B03441B6806
:10E76000DB6B029309BD000000AE07102C00000017
:10E7700009B504480068044B03441B681B680293F6
:10E7800009BD000000AE07100400000009B50448F0
:10E790000068044B03441B685B68029309BD0000DA
:10E7A00000AE07100400000009B504480068044BDF
:10E7B00003441B681B6C029309BD000000AE0710E8
:10E7C0000400000009B504480068044B03441B68BA
:10E7D0005B6C029309BD000000AE0710040000004E
:10E7E000002240681146FFF753BF002240681146DF
:10E7F000FFF76ABF00224068FFF758BF0022406859
:10E8000081F00101FFF736BF002340681A46194620
:10E81000FFF722BF002340681A461946FFF70EBFD4
:10E82000002240681146FFF7FBBE002240681146F7
:10E83000FFF7DABE002202214068FFF7E3BE0023A3
:10E8400040681A46FFF7C2BE0322024B5A60024AD2
:10E850001A60704780AE0710A0FD3F0210B5044655
:10E8600008462170FFF718FE00232046636010BDA4
:10E8700002220020044B1A60044B054AC3E9000041
:10E880009A60FFF779BE00BF94AE071088AE0710FC
:10E890000000FFFF002302480360FFF70FBD00BF29
:10E8A00098AE0710F8B506460D4600248F18BD42F5
:10E8B0000CD0336830469B6815F8011B9847031E3F
:10E8C00001DB1C44F3E7002C08BF1C462046F8BDC2
:10E8D00013B50446084659B10191FFF7E9FB02461A
:10E8E000204623680199DB6802B0BDE81040184754
:10E8F00002B010BD03689B6818470023012A98BF27
:10E900000A2230B58BB08DF8243009AC0D46B1FB2E
:10E91000F2F101FB125303F0FF03092B94BF3033D4
:10E920003733DBB2AA4204F8013DEFD92146FFF7A5
:10E93000CFFF0BB030BD10B50446FFF7B1FCE0606F
:10E94000236820465B699847002808DAFFF7A8FC8F
:10E95000E368C01AA3689842F2D34FF0FF3010BDAD
:10E960002DE9F04107460C460D468E18B542A5EB41
:10E97000040807D03846FFF7DEFF031E02DB05F868
:10E98000013BF3E74046BDE8F0810000014B024A3D
:10E990001A6070479CAE0710DCFD3F02024B1A68FC
:10E9A000024B1A60704700BF04AE0710A0AE0710FC
:10E9B0000022014B9A607047A4AE0710014B18600B
:10E9C000704700BF08AE071008B50F4B43B100F009
:10E9D0006FF903681B699847002801DD00E000BF5C
:10E9E0000A4B43B100F0D8FB03681B699847002825
:10E9F00001DD00E000BF064B0BB100F013FC054B3E
:10EA00000BB100F045FC08BD000000000000000054
:10EA1000000000000000000008B5FFF7D5FFFFF779
:10EA20003FFC014B186008BD4CAF07100548064A73
:10EA300008B5121A054900F087FC054B054A1A6013
:10EA400008BD00BF00B4071004B4071080F75F08CA
:10EA500000B407101E1C279A002307B51A466FF052
:10EA600077010093FFF7A4FD03B05DF804FB0000FD
:10EA700007B543880A2B08D0502B0BD1094B1B68D4
:10EA80004BB103B05DF804EB1847FFF7E5FF03B0A7
:10EA90005DF804FB00231A466FF077010093FFF73F
:10EAA00087FDF4E7B8AE0710002110B51148FFF755
:10EAB00089FE114B1A68114B9A420CBF01220022A9
:10EAC0000F4B1A7001D0FFF7B1FFFFF7CDFB0446E3
:10EAD00000F050FC0B4B13B1204600E000BF0021BA
:10EAE0000848FFF737FEBDE8104000210648FFF751
:10EAF00051BD00BFA5F23F0200B407101E1C279AAB
:10EB0000B4AE07100000000059F33F02704710B583
:10EB100004461821FFF7F3FA204610BDF0B5037D37
:10EB20000E46062B4FF000048DB000F1040712D002
:10EB300000F1080515F8011D0A223046FFF7DDFE39
:10EB4000AF42044419D0002CF4D02E213046FFF7F8
:10EB5000D1FE0444EEE72F236A4639460A208DF899
:10EB60000040FFF7B9FB6846FFF7A2FA3368024698
:10EB700069463046DB689847044620460DB0F0BD34
:10EB800010B50446044B1122002140F8043B00F06C
:10EB9000E8FB204610BD00BF04FE3F020346074AC3
:10EBA00010B543F8042B01F1100251F8044B9142C7
:10EBB00043F8044BF9D10A781A7010BD04FE3F02E5
:10EBC00010B59DF8084044EA032343EA02420423B7
:10EBD00042EA01614160037510BD000007B5064BB4
:10EBE0000360CB7800938B784A780978FFF7E8FFC9
:10EBF00003B05DF804FB00BF04FE3F0241747047A0
:10EC00007047704708B50021007CFFF78BFC40EA95
:10EC1000E07008BD08B50121007CFFF783FC40EAE5
:10EC2000E07008BD08B5007CFFF76EFC20EAE070DC
:10EC300008BD08B5007CFFF759FC20EAE07008BD6C
:10EC400013B50446007C0191FFF75EFC0028019992
:10EC500001DC607C20B1207CFFF772FC20EAE070D0
:10EC600002B010BD007CFFF779BC10B5044614213A
:10EC7000FFF745FA204610BD10B54FF47A730446ED
:10EC800008460021C4E90113044B207423600123CA
:10EC900011466374FFF71CFC204610BD18FE3F02AE
:10ECA00010B504461422002100F05BFB204610BD85
:10ECB00010B588B003A8FFF7F3FF0C4CD4E88F1F02
:10ECC00011F001010FD120460191FFF71AFA0199C5
:10ECD00048B103AA0648FFF7CFFF2046FFF716FA10
:10ECE000044800F02BFB024808B010BDBCAE071072
:10ECF000C0AE0710E9F43F0270474174704708B591
:10ED0000007CFFF74BFB20EAE07008BD08B5007CF3
:10ED1000FFF7FEFA20EAE07008BD08B5007CFFF7B7
:10ED200013FB40EAE07008BD08B5007CFFF7FEFA6F
:10ED300040EAE07008BD007CFFF714BB37B5457CA6
:10ED400004462DB1207C03B0BDE83040FFF7D2BAB5
:10ED5000007C0191FFF722FB00280199F2DC284694
:10ED600003B030BD10B504461421FFF7C8F92046A2
:10ED700010BD000010B54FF47A73044608461146E2
:10ED80000022C4E90123044B20742360012363742F
:10ED9000FFF712FB204610BD4CFE3F02007CFFF740
:10EDA000EFBA7047F8B5064615460C468F18BC42B8
:10EDB00006D0336830469B6814F8011B9847F6E785
:10EDC0002846F8BD0022007CFFF704BB0021007C30
:10EDD000FFF70EBB0021007CFFF718BB0021007C71
:10EDE000FFF722BB0021007CFFF72CBB10B50446C7
:10EDF0001421FFF784F9204610BD000038B5044601
:10EE000015464FF47A730022C4E90123094B0846E2
:10EE1000217423602946FFF731FBBF3008D16B69AD
:10EE2000DB0705D56868FFF7B1FCE868FFF7AEFCC3
:10EE3000204638BD80FE3F02FF210022044B012006
:10EE4000C3E9001264211A61C3E90201704700BFDF
:10EE5000D4AE0710002240681146FFF7E1BB002244
:10EE600040681146FFF714BC002240681146FFF7C6
:10EE70002BBC00224068FFF719BC0022406881F0DB
:10EE80000101FFF7F7BB002340681A461946FFF758
:10EE9000E3BB002340681A461946FFF7CFBB0022A8
:10EEA00040681146FFF7A0BB002202214068FFF72F
:10EEB000A9BB002340681A46FFF788BB0422024B17
:10EEC0005A60024A1A607047E8AE0710ACFE3F0273
:10EED000002340681A46FFF779BB002202214068F0
:10EEE000FFF790BB002240681146FFF77DBB002270
:10EEF00040681146FFF794BB002340681A46194644
:10EF0000FFF79CBB002340681A461946FFF7A4BBD5
:10EF100000214068FFF7E6BB00214068FFF7F0BB27
:10EF20000022406881F00101FFF7A4BB0022406885
:10EF3000FFF7BCBB002240681146FFF7C5BB0022AB
:10EF400040681146FFF7A4BB00214068FFF7F4BBFF
:10EF50002DE9F04395B014460D460746FFF710FE25
:10EF600000211C220DA8009100F0FBF9402320464F
:10EF70000C9300216B460CAAFFF73EF904460028CB
:10EF80004BD1024601216868FFF74AFB0221804607
:10EF900022466868FFF744FB21468146009E002E0A
:10EFA0003BD0002939D17368022B03D00A2B11D032
:10EFB000F669F4E7B8F1000FFAD0716906A80431D8
:10EFC0003C1D07ADFFF70AFE0FCD0FC42B6841466D
:10EFD0002370EDE7B9F1000FEAD0102201A874699F
:10EFE00000F0BFF9062301AD8DF8143004F10803D9
:10EFF00018342A4618685968083303C2A3421546D4
:10F00000F7D101A906A83C1D07ADFFF7C7FD0FCD3D
:10F010000FC42B6849462370CAE70098FFF7DEF853
:10F02000384615B0BDE8F083033802289ABF024B7A
:10F0300053F8200001487047E8FE3F02F0AE071089
:10F0400008B500224068FFF769FBBDE80840FFF7FC
:10F05000EBBF0000024B034A1A6000225A6070475F
:10F06000F0AE0710FCFE3F021B2837B5044602D95C
:10F07000002003B030BDA0F10F03022B0BD90128F3
:10F0800021D800F035F90021007CFFF7E9F980F084
:10F090000100C0B2EDE7114DD5E88F1F11F001015D
:10F0A0000BD128460191FFF72CF8019928B10C48A3
:10F0B000FFF7D4FB2846FFF729F8094B1878FFF72C
:10F0C000F9F90028D4D1083C012C05D800F064F8E7
:10F0D000007CFFF755F9DAE70120CAE7F8AE071020
:10F0E000FCAE07101B2838B504460D460AD8FF2988
:10F0F00008D0FFF7B9FF28B129462046BDE83840BF
:10F10000FFF788B838BD38B504460D46FFF790F8CC
:10F11000FF2810D0062804D84D2323FA00F0C30797
:10F1200009D42046FFF7A0FF28B129462046BDE8B4
:10F130003840FFF78BB838BD7047000038B514254C
:10F1400004462A46002100F00CF925804025074995
:10F1500028462581258200F0EFF8044960602846A2
:10F1600000F0EAF8E060204638BD00BF38FF3F02FB
:10F170007047704710B50446FFF7E0FF204610BD0A
:10F1800010B50446FFF7DAFF204610BD10B504465F
:10F19000FFF7D4FF204610BD30B50E4D87B0D5E83F
:10F1A0008F1F11F0010411D12846FEF7AAFF68B1A4
:10F1B00001A8FFF7DFFF214601AA0748FFF7DAFDA4
:10F1C0002846FEF7A3FF054800F0B8F8024807B04C
:10F1D00030BD00BF04AF071010AF071021FA3F0287
:10F1E00010B50D4C86B0D4E88F3FDB0711D4204614
:10F1F000FEF787FF68B101A8FFF7C2FF012101AA4E
:10F200000648FFF7B7FD2046FEF780FF044800F0F0
:10F2100095F8024806B010BD08AF071024AF0710DC
:10F220005BFA3F0210B5FFF7DBFF074B044653B113
:10F23000FFF7B4FD38B1236820461B6998470028C2
:10F2400001DD00E000BF10BD0000000010B50D4C56
:10F2500086B0D4E88F3FDB0711D42046FEF751FF7C
:10F2600068B101A8FFF792FF022101AA0648FFF743
:10F2700081FD2046FEF74AFF044800F05FF802488F
:10F2800006B010BD0CAF071038AF071059FA3F0297
:10F2900010B5FFF7DBFF074B044653B1FFF77EFDC8
:10F2A00038B1236820461B699847002801DD00E03B
:10F2B00000BF10BD000000007047000038B50A4BC9
:10F2C00004460360012309494361202000F034F81B
:10F2D0002025606005492846A56000F02DF8C4E9A6
:10F2E0000305204638BD00BF1800010038FF3F026B
:10F2F00030B50E4D87B0D5E88F1F11F0010411D144
:10F300002846FEF7FEFE68B16846FFF7D7FF6A465B
:10F3100021460748FFF772FD2846FEF7F7FE05482D
:10F3200000F00CF8024807B030BD00BF50AF071026
:10F3300054AF0710A1FB3F02FEF7DFBE00230146DA
:10F340001A46184600F044B80A44431E914200D1C0
:10F35000704710B511F8014B914203F8014FF9D1F4
:10F3600010BD02440346934200D1704703F8011BCD
:10F37000F9E7000038B5104B04461D68AB6BB3B914
:10F380001820FFF7F5F90246A86320B90B4B42217C
:10F390000B48FFF709FA0B490B4BC0E900130B4B65
:10F3A000002183600B2383810120C2E90401AB6B40
:10F3B00000221C615A6138BD08AE071039FF3F02B8
:10F3C00050FF3F020E33CDAB34126DE6ECDE05008C
:10F3D0002DE9F843DFF8BC8006461F460D46D8F8F5
:10F3E0000000914600F058F8264B1C6834B9264CB2
:10F3F0001C60264B13B11B68C4F8883063681F2B50
:10F4000007DDD8F8000000F049F84FF0FF30BDE804
:10F41000F8835EB3D4F8880088B91D4B23B9D8F8B7
:10F42000000000F03AF8F0E74FF48470FFF7A0F91D
:10F430000028F4D00023C0E94033C4F88800636892
:10F440000122022E40F8239002FA03F200EB83011E
:10F45000D0F8003143EA0203C0F80031C1F88070EF
:10F4600002BFD0F804311343C0F804316368D8F800
:10F4700000005A1C0233626044F8235000F00EF87A
:10F480000020C4E7F4AF071068AF071000000000C9
:10F4900059F03F026CAE071070477047704700008C
:10F4A000A9E93F02D1E93F02D5E93F02000000008F
:10F4B000000000000000000027F13F021DF13F02A4
:10F4C00013F13F0209F13F02FDF03F02F1F03F026C
:10F4D000F9F73F0201F83F02E5F03F02DDF03F029D
:10F4E000D3F03F02C9F03F0229F93F0231F83F0251
:10F4F00039F83F026170700025592D256D2D256466
:10F500005425483A254D3A2553257A006173637492
:10F51000696D6500000000000000000005F43F0276
:10F52000F5F33F02F7F33F02000000000000000087
:10F53000EBF43F0253F53F0229F53F028DF13F0204
:10F540001BF53F02EDF43F02FDF43F024DF53F0293
:10F5500049F23F020DF53F02E5F43F0200000000D2
:10F5600000000000E1F53F024DF63F0225F63F02A4
:10F570008DF13F02F5F53F0211F63F0203F63F021F
:10F580001FF63F0249F23F02E3F53F02E7F53F0273
:10F5900000000000000000008BF63F02D5F63F029D
:10F5A000ADF63F028DF63F02B5F63F02BDF63F02D3
:10F5B000C5F63F02CDF63F0249F23F0200000000CF
:10F5C000000000009BF73F0291F73F0287F73F02E0
:10F5D0003DF73F027BF73F026FF73F02F9F73F022B
:10F5E00001F83F0263F73F025BF73F0251F73F022A
:10F5F00047F73F0229F93F0231F83F0239F83F024D
:10F6000080AE0710E8AE0710F0AE07100000000053
:10F6100000000000B9F73F02C3F73F02CDF73F02F9
:10F62000D7F73F02E1F73F02EDF73F02F9F73F025C
:10F6300001F83F0209F83F0215F83F021DF83F02AA
:10F6400027F83F0229F93F0231F83F0239F83F021B
:10F65000005245454E54206D616C6C6F632073758C
:10F6600063636565646564002F6D6E742F776F72D8
:10F670006B73706163652F776F726B737061636515
:10F680002F4743432D31302D706970656C696E656D
:10F690002F6A656E6B696E732D4743432D31302D94
:10F6A000706970656C696E652D34385F3230323048
:10F6B000313132345F313630363138303634312FF3
:10F6C0007372632F6E65776C69622F6E65776C69F4
:10F6D000622F6C6962632F7374646C69622F72614C
:10F6E0006E642E6300000000ADEA3F0231F13F027C
:10F6F00059F13F027DF13F0275F23F0285F23F0270
:10F7000099F23F0221F73F02A5F73F023DF93F0280
:10F7100000000002F4FD3F020CAE071000000000E4
:10F7200000000000000000000000000000000000D9
:10F7300000000000000000000000000000000000C9
:10F7400000000000000000000000000000000000B9
:10F7500000000000000000000000000000000000A9
:10F760000000000000000000000000000000000099
:10F77000000000000000000000000000F8AF0710CB
:04F780000000000085
:10FFBE000200100000E05F08A8E05F0890E93F0231
:10FFCE0001000A00FFFFFFFFFFFF00000102030414
:10FFDE0005060708090A0B0C0D0E0F10111213144B
:0EFFEE0015161718191A1B1C1D1E1F203E0089
:04FFFC0078563412ED
:04000005085FE01898
:00000001FF
