:02000004085F93
:10E0000000E05F08FCFF5F0800000600200005013B
:08E0100004010D1700000000DF
:10E018001348144908B5884205D0134A824202D0F1
:10E02800124B121A98471248124A0021124B121A20
:10E03800984712481249884205D0124A824202D0B3
:10E048000A4B121A984710481049884205D0104ABE
:10E05800824202D0054B121A9847014808BD00BFFA
:10E06800F0AD07106CFC5F0860AE07102D0D1110A5
:10E0780060AE0710FCAF0710A10E111038E43F0284
:10E08800A8E05F0840E43F0240E43F02B0E05F08D8
:0CE09800FCFF3F0219E05F0800000000E0
:08E0A8009CE05F0818FD3F0237
:10E0B00081F0004102E000BF83F0004330B54FEA39
:10E0C00041044FEA430594EA050F08BF90EA020FA6
:10E0D0001FBF54EA000C55EA020C7FEA645C7FEA39
:10E0E000655C00F0E2804FEA5454D4EB5555B8BF5C
:10E0F0006D420CDD2C4480EA020281EA030382EACD
:10E10000000083EA010180EA020281EA0303362D5E
:10E1100088BF30BD11F0004F4FEA01314FF4801C31
:10E120004CEA113102D0404261EB410113F0004F43
:10E130004FEA03334CEA133302D0524263EB4303FA
:10E1400094EA050F00F0A780A4F10104D5F1200E98
:10E150000DDB02FA0EFC22FA05F2801841F10001F3
:10E1600003FA0EF2801843FA05F359410EE0A5F1C7
:10E1700020050EF1200E012A03FA0EFC28BF4CF0F8
:10E18000020C43FA05F3C01851EBE37101F00045AE
:10E1900007D54FF0000EDCF1000C7EEB00006EEBBB
:10E1A0000101B1F5801F1BD3B1F5001F0CD3490845
:10E1B0005FEA30004FEA3C0C04F101044FEA44529C
:10E1C00012F5800F80F09A80BCF1004F08BF5FEA23
:10E1D000500C50F1000041EB045141EA050130BD03
:10E1E0005FEA4C0C404141EB0101013C28BFB1F515
:10E1F000801FE9D291F0000F04BF01460020B1FA60
:10E2000081F308BF2033A3F10B03B3F120020CDA32
:10E210000C3208DD02F1140CC2F10C0201FA0CF010
:10E2200021FA02F10CE002F11402D8BFC2F1200C75
:10E2300001FA02F120FA0CFCDCBF41EA0C0190402B
:10E24000E41AA2BF01EB0451294330BD6FEA040474
:10E250001F3C1CDA0C340EDC04F11404C4F120025F
:10E2600020FA04F001FA02F340EA030021FA04F371
:10E2700045EA030130BDC4F10C04C4F1200220FAC8
:10E2800002F001FA04F340EA0300294630BD21FA06
:10E2900004F0294630BD94F0000F83F4801306BFCC
:10E2A00081F480110134013D4EE77FEA645C18BFC0
:10E2B0007FEA655C29D094EA050F08BF90EA020F57
:10E2C00005D054EA000C04BF1946104630BD91EA4F
:10E2D000030F1EBF0021002030BD5FEA545C05D152
:10E2E0004000494128BF41F0004130BD14F5800491
:10E2F0003CBF01F5801130BD01F0004545F0FE4105
:10E3000041F470014FF0000030BD7FEA645C1ABF39
:10E31000194610467FEA655C1CBF0B46024650EA70
:10E32000013406BF52EA033591EA030F41F400219C
:10E3300030BD00BF90F0000F04BF0021704730B522
:10E340004FF4806404F132044FF000054FF00001F7
:10E3500050E700BF90F0000F04BF0021704730B5B8
:10E360004FF4806404F1320410F0004548BF40428D
:10E370004FF000013EE700BF42004FEAE2014FEAE2
:10E3800031014FEA02701FBF12F07F4393F07F4FBD
:10E3900081F06051704732F07F4208BF704793F0C0
:10E3A0007F4F04BF41F40021704730B54FF46074D3
:10E3B00001F0004521F000411CE700BF50EA0102D6
:10E3C00008BF704730B54FF000050AE050EA01027F
:10E3D00008BF704730B511F0004502D5404261EBEF
:10E3E00041014FF4806404F132045FEA915C3FF430
:10E3F000D8AE4FF003025FEADC0C18BF03325FEACD
:10E40000DC0C18BF033202EBDC02C2F1200300FA7D
:10E4100003FC20FA02F001FA03FE40EA0E0021FAA2
:10E4200002F11444BDE600BF034613F8012B002A95
:10E43000FBD1181A0138704770B500F0CFFD0025E8
:10E44000054E064CA41BA408AC4200D170BD56F882
:10E45000043B98470135F7E7D4FF3F02FCFF3F023A
:10E4600000F025B808B500F051F8BDE8084000F00C
:10E470006DBD00F0D7BB00F0E3BB0078B0FA80F0D0
:10E48000400970470123037070470368C9B29B6855
:10E4900018470EB403B503AB53F8042B00210193C6
:10E4A00000F0B3FC02B05DF804EB03B0704708B5B0
:10E4B00001F092F900F06AFF01F08EF9682100F096
:10E4C00090FF01F089F96B21FFF7DFFF01F084F97C
:10E4D0000021FFF7DAFF01F07FF9012100F084FF4E
:10E4E00001F07AF9682100F07CFF01F075F91C2138
:10E4F000FFF7CBFF01F070F90021FFF7C6FF01F035
:10E500006BF9BDE80840012100F06EBF2DE9F84F1E
:10E5100001F062F9682100F064FF01F05DF93B2130
:10E52000FFF7B3FF01F058F9002100F05DFF01F0A3
:10E5300053F901230622682100F03BFF01F04CF95A
:10E5400003681B699847062840F090804B4D4C4C5F
:10E550002B6822689B1AB3F57A7F80F0898001F0DE
:10E560003BF90368DFF840B15B6998478BF800001E
:10E5700001F032F90368434E5B699847307001F04F
:10E580002BF90368DFF824A15B6998478AF800003B
:10E5900001F022F90368DFF818815B69984788F871
:10E5A000000001F019F90368DFF808915B699847EA
:10E5B00089F8000001F010F90368334F5B69984750
:10E5C000324B9BF8002018703378DFED316A43EA54
:10E5D000022307EE103AB8EEC77A27EE267A9AF8A9
:10E5E000002098F8003087ED007A43EA022307EE16
:10E5F000103A99F80030C0B240EA032007EE900AC2
:10E60000B8EEC77AF8EEE77A27EE267A67EEA67AB2
:10E61000204EDFF8A48086ED007AC8ED007A00F085
:10E62000E1FD81463868FFF7A7FE02460B464846E3
:10E630001949FFF72EFF00F0D5FD07463068FFF7B8
:10E640009BFE02460B4638461449FFF722FF00F0B6
:10E65000C9FD0646D8F80000FFF78EFE02460B46BD
:10E6600030460F49FFF715FF2B682360BDE8F88F90
:10E6700000F0B8FD0B49FFF70CFFF5E784AE07107B
:10E6800088AE071071AE07106CAE071081AE071090
:10E690000000803874AE071028FD3F0245FD3F02A0
:10E6A00062FD3F027FFD3F0270AE071078AE07109B
:10E6B00079AE071080AE07107CAE0710002208B5B7
:10E6C000064B0120C3E90022A2F580329A6000F0D7
:10E6D000ADF900F031F8024B186008BD60AE0710CC
:10E6E00084AE071009B504480068044B03441B6856
:10E6F0009B68029309BD0000F0AD071050000000B8
:10E7000009B504480068044B03441B68DB680293A6
:10E7100009BD0000F0AD07105000000009B5044825
:10E720000068044B03441B685B68029309BD00004A
:10E73000F0AD07100000000009B504480068044B64
:10E7400003441B685B69029309BD0000F0AD07102C
:10E750000000000009B504480068044B03441B682E
:10E760005B6C029309BD0000F0AD071030000000A3
:10E7700009B504480068044B03441B685B690293B5
:10E7800009BD0000F0AD07104C00000009B50448B9
:10E790000068044B03441B68DB68029309BD00005A
:10E7A000F0AD07102400000009B504480068044BD0
:10E7B00003441B681B69029309BD0000F0AD0710FC
:10E7C0002400000009B504480068044B03441B689A
:10E7D0005B69029309BD0000F0AD07102400000042
:10E7E00009B504480068044B03441B689B69029305
:10E7F00009BD0000F0AD07102400000009B5044871
:10E800000068044B03441B68DB69029309BD0000E8
:10E81000F0AD07102400000009B504480068044B5F
:10E8200003441B681B6A029309BD0000F0AD07108A
:10E830002400000009B504480068044B03441B6829
:10E840009B6A029309BD0000F0AD07102400000090
:10E8500009B504480068044B03441B681B6C029311
:10E8600009BD0000F0AD07102400000009B5044800
:10E870000068044B03441B68DB68029309BD000079
:10E88000F0AD07101000000009B504480068044B03
:10E8900003441B689B69029309BD0000F0AD07109B
:10E8A0001000000009B504480068044B03441B68CD
:10E8B000DB69029309BD0000F0AD071010000000F5
:10E8C00009B504480068044B03441B681B6A0293A3
:10E8D00009BD0000F0AD07101000000009B50448A4
:10E8E0000068044B03441B685B6A029309BD000087
:10E8F000F0AD07101000000009B504480068044B93
:10E9000003441B689B6A029309BD0000F0AD071029
:10E910001000000009B504480068044B03441B685C
:10E92000DB6A029309BD0000F0AD07101000000083
:10E9300009B504480068044B03441B681B6B029331
:10E9400009BD0000F0AD07101000000009B5044833
:10E950000068044B03441B681B6C029309BD000054
:10E96000F0AD07101000000009B504480068044B22
:10E9700003441B681B6D029309BD0000F0AD071036
:10E980001000000009B504480068044B03441B68EC
:10E990001B68029309BD0000F0AD071034000000B1
:10E9A00009B504480068044B03441B681B690293C3
:10E9B00009BD0000F0AD07103400000009B504489F
:10E9C0000068044B03441B685B69029309BD0000A7
:10E9D000F0AD07103400000009B504480068044B8E
:10E9E00003441B689B69029309BD0000F0AD07104A
:10E9F0003400000009B504480068044B03441B6858
:10EA0000DB69029309BD0000F0AD0710340000007F
:10EA100009B504480068044B03441B681B6A029351
:10EA200009BD0000F0AD07103400000009B504482E
:10EA30000068044B03441B685B68029309BD000037
:10EA4000F0AD07100800000009B504480068044B49
:10EA500003441B68D3F88830029309BDF0AD07105A
:10EA60000800000009B504480068044B03441B6813
:10EA7000D3F89430029309BDF0AD071008000000F0
:10EA800009B504480068044B03441B685B680293A3
:10EA900009BD0000F0AD07102800000009B50448CA
:10EAA0000068044B03441B689B68029309BD000087
:10EAB000F0AD07102800000009B504480068044BB9
:10EAC00003441B68DB68029309BD0000F0AD07102A
:10EAD0002800000009B504480068044B03441B6883
:10EAE0001B69029309BD0000F0AD0710280000006B
:10EAF00009B504480068044B03441B685B69029332
:10EB000009BD0000F0AD07102800000009B5044859
:10EB10000068044B03441B689B69029309BD000015
:10EB2000F0AD07102800000009B504480068044B48
:10EB300003441B68DB69029309BD0000F0AD0710B8
:10EB40002800000009B504480068044B03441B6812
:10EB50001B6A029309BD0000F0AD071028000000F9
:10EB600009B504480068044B03441B681B6B0293FF
:10EB700009BD0000F0AD07102800000009B50448E9
:10EB80000068044B03441B685B6B029309BD0000E3
:10EB9000F0AD07102800000009B504480068044BD8
:10EBA00003441B681B6C029309BD0000F0AD071005
:10EBB0002800000009B504480068044B03441B68A2
:10EBC0005B6C029309BD0000F0AD07102800000047
:10EBD00009B504480068044B03441B685B6D02934D
:10EBE00009BD0000F0AD07102800000009B5044879
:10EBF0000068044B03441B689B6D029309BD000031
:10EC0000F0AD07102800000009B504480068044B67
:10EC100003441B68DB6B029309BD0000F0AD0710D5
:10EC20002C00000009B504480068044B03441B682D
:10EC30001B68029309BD0000F0AD0710040000003E
:10EC400009B504480068044B03441B685B680293E1
:10EC500009BD0000F0AD07100400000009B504482C
:10EC60000068044B03441B685B6A029309BD000003
:10EC7000F0AD07100400000009B504480068044B1B
:10EC800003441B681B6C029309BD0000F0AD071024
:10EC90000400000009B504480068044B03441B68E5
:10ECA0005B6C029309BD0000F0AD0710040000008A
:10ECB000002240681146FFF745BF00224068114618
:10ECC000FFF75CBF00224068FFF74ABF00224068A0
:10ECD00081F00101FFF728BF002340681A4619465A
:10ECE000FFF714BF002340681A461946FFF700BF1C
:10ECF000002240681146FFF7EDBE00224068114631
:10ED0000FFF7CCBE002202214068FFF7D5BE0023EA
:10ED100040681A46FFF7B4BE0322024B5A60024A0B
:10ED20001A6070478CAE0710A4FD3F02022200203B
:10ED3000044B1A60044B054AC3E900009A60FFF7D0
:10ED400075BE00BFA0AE071094AE07100000FFFF15
:10ED5000002302480360FFF7FDBC00BFA4AE07100C
:10ED6000F8B506460D4600248F18BD420CD0336816
:10ED700030469B6815F8011B9847031E01DB1C44B5
:10ED8000F3E7002C08BF1C462046F8BD13B5044627
:10ED9000084659B10191FFF747FB02462046236818
:10EDA0000199DB6802B0BDE81040184702B010BD01
:10EDB00003689B68184738B50D210546FFF7F8FF33
:10EDC0000A2104462846FFF7F3FF204438BD0023FC
:10EDD000012A98BF0A2230B58BB08DF8243009ACD7
:10EDE0000D46B1FBF2F101FB125303F0FF03092BB7
:10EDF00094BF30333733DBB2AA4204F8013DEFD978
:10EE00002146FFF7C3FF0BB030BD2DE9F04186B0BE
:10EE100000AF05460E46381D142114463B60FFF72F
:10EE20001DFF13280ED82846391DFFF7AFFF0446F3
:10EE30001EB12846FFF7BFFF044420461837BD46E1
:10EE4000BDE8F08100F1080323F00703E846ADEBCD
:10EE5000030D2246411C3B686846FFF7FFFE6946EA
:10EE60002846FFF793FF0446C546E1E710B5044680
:10EE7000FFF762FCE060236820465B699847002842
:10EE800008DAFFF759FCE368C01AA3689842F2D386
:10EE90004FF0FF3010BD2DE9F04107460C460D46FE
:10EEA0008E18B542A5EB040807D03846FFF7DEFF01
:10EEB000031E02DB05F8013BF3E74046BDE8F081A5
:10EEC000014B024A1A607047A8AE0710E0FD3F02EE
:10EED000024B1A68024B1A60704700BFF4AD07106E
:10EEE000ACAE07100022014B9A607047B0AE07101D
:10EEF000014B1860704700BFF8AD071008B50F4B05
:10EF000043B100F06FF903681B699847002801DDE1
:10EF100000E000BF0A4B43B100F0B2FB03681B697D
:10EF20009847002801DD00E000BF064B0BB100F060
:10EF3000EDFB054B0BB100F01FFC08BD000000000D
:10EF400000000000000000000000000008B5FFF70E
:10EF5000D5FFFFF7F1FB014B186008BD4CAF071060
:10EF60000548064A08B5121A054900F061FC054B30
:10EF7000054A1A6008BD00BF00B4071004B40710AA
:10EF8000DCFC5F0800B407101E1C279A002307B59D
:10EF90001A466FF077010093FFF764FD03B05DF848
:10EFA00004FB000007B543880A2B08D0502B0BD177
:10EFB000094B1B684BB103B05DF804EB1847FFF732
:10EFC000E5FF03B05DF804FB00231A466FF07701FC
:10EFD0000093FFF747FDF4E7C4AE0710002110B51A
:10EFE0001148FFF757FE114B1A68114B9A420CBF9C
:10EFF000012200220F4B1A7001D0FFF7B1FFFFF77B
:10F000008DFB044600F02AFC0B4B13B1204600E0B8
:10F0100000BF00210848FFF7F7FDBDE810400021C0
:10F020000648FFF711BD00BF81F23F0200B4071090
:10F030001E1C279AC0AE07100000000035F33F02E7
:10F04000704710B504461821FFF715FA204610BD89
:10F05000F0B5037D0E46062B4FF000048DB000F195
:10F06000040712D000F1080515F8011D0A223046E8
:10F07000FFF7ADFEAF42044419D0002CF4D02E218E
:10F080003046FFF795FE0444EEE72F236A463946E3
:10F090000A208DF80040FFF76BFB6846FFF7C4F9C4
:10F0A0003368024669463046DB6898470446204686
:10F0B0000DB0F0BD10B50446044B1122002140F8FC
:10F0C000043B00F0C2FB204610BD00BF08FE3F021B
:10F0D0000346074A10B543F8042B01F1100251F81A
:10F0E000044B914243F8044BF9D10A781A7010BDD1
:10F0F00008FE3F0210B59DF8084044EA032343EAA6
:10F100000242042342EA01614160037510BD000020
:10F1100007B5064B0360CB7800938B784A78097863
:10F12000FFF7E8FF03B05DF804FB00BF08FE3F02F5
:10F13000417470477047704708B50021007CFFF7A5
:10F140004BFC40EAE07008BD08B50121007CFFF7E8
:10F1500043FC40EAE07008BD08B5007CFFF72EFCD8
:10F1600020EAE07008BD08B5007CFFF719FC20EA32
:10F17000E07008BD13B50446007C0191FFF71EFC4A
:10F180000028019901DC607C20B1207CFFF732FC73
:10F1900020EAE07002B010BD007CFFF739BC10B56A
:10F1A00004461421FFF767F9204610BD10B54FF44F
:10F1B0007A73044608460021C4E90113044B207405
:10F1C0002360012311466374FFF7DCFB204610BD6A
:10F1D0001CFE3F0210B504461422002100F035FB4E
:10F1E000204610BD10B588B003A8FFF7F3FF0C4C04
:10F1F000D4E88F1F11F001010FD120460191FFF7D4
:10F200003CF9019948B103AA0648FFF7CFFF204611
:10F21000FFF738F9044800F005FB024808B010BDBC
:10F22000C8AE0710CCAE0710C5F43F02704741745A
:10F23000704708B5007CFFF7FDFA20EAE07008BDD2
:10F2400008B5007CFFF7B0FA20EAE07008BD08B509
:10F25000007CFFF7C5FA40EAE07008BD08B5007C05
:10F26000FFF7B0FA40EAE07008BD007CFFF7C6BACD
:10F2700037B5457C04462DB1207C03B0BDE8304055
:10F28000FFF784BA007C0191FFF7D4FA00280199B6
:10F29000F2DC284603B030BD10B504461421FFF758
:10F2A000EAF8204610BD000010B54FF47A7304460A
:10F2B000084611460022C4E90123044B2074236050
:10F2C00001236374FFF7C4FA204610BD50FE3F02CD
:10F2D000007CFFF7A1BA7047F8B5064615460C4604
:10F2E0008F18BC4206D0336830469B6814F8011B67
:10F2F0009847F6E72846F8BD0022007CFFF7E0BA01
:10F300000021007CFFF7EABA0021007CFFF7F4BA85
:10F310000021007CFFF7FEBA0021007CFFF708BB4C
:10F3200010B504461421FFF7A6F8204610BD0022B0
:10F33000C0E90022182202800A7802714A688260BD
:10F34000CA68C2600A7A02610A69426170470000B5
:10F3500038B5044615464FF47A730022C4E90123F8
:10F36000094B0846217423602946FFF7EFFABF30A6
:10F3700008D16B69DB0705D56868FFF761FCE868B1
:10F38000FFF75EFC204638BD84FE3F020023007C70
:10F390001A461946FFF76ABA10B5044686B06846A1
:10F3A000FFF7C5FF00226946207CFFF7DDFA06B0B3
:10F3B00010BD7FB58DF8041000214FF0640C5B1A6E
:10F3C00018BF0123CDE904C101A902928DF80C30C8
:10F3D000FFF7E2FF07B05DF804FB0022007CFFF7B7
:10F3E00053BAC9B2FFF7F9BF0022007CFFF75ABA3F
:10F3F000FF210022044B0120C3E9001264211A619D
:10F40000C3E90201704700BFE0AE07100022406868
:10F410001146FFF75FBB002240681146FFF792BB21
:10F42000002240681146FFF7A9BB00224068FFF7A1
:10F4300097BB0022406881F00101FFF775BB0023F4
:10F4400040681A461946FFF761BB002340681A4618
:10F450001946FFF74DBB002240681146FFF71EBB5F
:10F46000002202214068FFF727BB002340681A46AC
:10F47000FFF706BB0422024B5A60024A1A6070472B
:10F48000F4AE0710B0FE3F02002340681A46FFF7B3
:10F49000F7BA002202214068FFF70EBB0022406845
:10F4A0001146FFF7FBBA002240681146FFF712BB76
:10F4B000002340681A461946FFF71ABB002340682C
:10F4C0001A461946FFF722BB00214068FFF764BBCC
:10F4D00000214068FFF76EBB0022406881F0010107
:10F4E000FFF722BB00224068FFF73ABB00224068CA
:10F4F0001146FFF743BB002240681146FFF722BBCD
:10F5000000214068FFF772BB2DE9F04395B0144627
:10F510000D460746FFF7CEFD00211C220DA80091E5
:10F5200000F093F9402320460C9300216B460CAA6F
:10F53000FFF7E6F8044600284BD10246012168682F
:10F54000FFF7C8FA0221804622466868FFF7C2FA30
:10F5500021468146009E002E3BD0002939D1736898
:10F56000022B03D00A2B11D0F669F4E7B8F1000F93
:10F57000FAD0716906A804313C1D07ADFFF7C8FD3C
:10F580000FCD0FC42B6841462370EDE7B9F1000F92
:10F59000EAD0102201A8746900F057F9062301ADE2
:10F5A0008DF8143004F1080318342A461868596895
:10F5B000083303C2A3421546F7D101A906A83C1D92
:10F5C00007ADFFF785FD0FCD0FC42B6849462370AB
:10F5D000CAE70098FFF786F8384615B0BDE8F08313
:10F5E000033802289ABF024B53F8200001487047A5
:10F5F000ECFE3F02FCAE071008B500224068FFF7A2
:10F60000E7FABDE80840FFF7EBBF0000024B034AF2
:10F610001A6000225A607047FCAE071000FF3F02DC
:10F620007047000038B5142504462A46002100F032
:10F630000CF925804025074928462581258200F0C0
:10F64000EFF804496060284600F0EAF8E0602046E0
:10F6500038BD00BF3CFF3F027047704710B50446FD
:10F66000FFF7E0FF204610BD10B50446FFF7DAFFB4
:10F67000204610BD10B50446FFF7D4FF204610BD4C
:10F6800030B50E4D87B0D5E88F1F11F0010411D1B0
:10F690002846FEF7F2FE68B101A8FFF7DFFF21461A
:10F6A00001AA0748FFF700FE2846FEF7EBFE0548D3
:10F6B00000F0B8F8024807B030BD00BF04AF071033
:10F6C00010AF0710B1F93F0210B50D4C86B0D4E869
:10F6D0008F3FDB0711D42046FEF7CFFE68B101A8AB
:10F6E000FFF7C2FF012101AA0648FFF7DDFD204612
:10F6F000FEF7C8FE044800F095F8024806B010BDB9
:10F7000008AF071024AF0710EBF93F0210B5FFF761
:10F71000DBFF074B044653B1FFF7DAFD38B123682E
:10F7200020461B699847002801DD00E000BF10BD9E
:10F730000000000010B50D4C86B0D4E88F3FDB0709
:10F7400011D42046FEF799FE68B101A8FFF792FF99
:10F75000022101AA0648FFF7A7FD2046FEF792FE08
:10F76000044800F05FF8024806B010BD0CAF071067
:10F7700038AF0710E9F93F0210B5FFF7DBFF074B81
:10F78000044653B1FFF7A4FD38B1236820461B6936
:10F790009847002801DD00E000BF10BD0000000018
:10F7A0007047000038B50A4B04460360012309493D
:10F7B0004361202000F034F8202560600549284688
:10F7C000A56000F02DF8C4E90305204638BD00BF50
:10F7D000180001003CFF3F0230B50E4D87B0D5E860
:10F7E0008F1F11F0010411D12846FEF746FE68B1C3
:10F7F0006846FFF7D7FF6A4621460748FFF7A8FD8E
:10F800002846FEF73FFE054800F00CF8024807B016
:10F8100030BD00BF50AF071054AF071031FB3F029F
:10F82000FEF727BE002301461A46184600F044B8EA
:10F830000A44431E914200D1704710B511F8014BA4
:10F84000914203F8014FF9D110BD0244034693429F
:10F8500000D1704703F8011BF9E7000038B5104BE1
:10F8600004461D68AB6BB3B91820FFF7DBF90246FD
:10F87000A86320B90B4B42210B48FFF7FDF90B4958
:10F880000B4BC0E900130B4B002183600B238381DA
:10F890000120C2E90401AB6B00221C615A6138BD32
:10F8A000F8AD07103DFF3F0254FF3F020E33CDABD2
:10F8B00034126DE6ECDE05002DE9F843DFF8BC807C
:10F8C00006461F460D46D8F80000914600F058F84D
:10F8D000264B1C6834B9264C1C60264B13B11B68A0
:10F8E000C4F8883063681F2B07DDD8F8000000F0EB
:10F8F00049F84FF0FF30BDE8F8835EB3D4F88800D4
:10F9000088B91D4B23B9D8F8000000F03AF8F0E7A9
:10F910004FF48470FFF786F90028F4D00023C0E983
:10F920004033C4F8880063680122022E40F8239017
:10F9300002FA03F200EB8301D0F8003143EA02033C
:10F94000C0F80031C1F8807002BFD0F80431134311
:10F95000C0F804316368D8F800005A1C02336260B2
:10F9600044F8235000F00EF80020C4E7F4AF07106D
:10F9700068AF071000000000B5EF3F025CAE071053
:10F980007047704770470000C9E73F02F1E73F0248
:10F99000F5E73F0200000000582D6178697320618F
:10F9A0006363656C65726174696F6E3A20252E32EF
:10F9B0006620670A00592D61786973206163636569
:10F9C0006C65726174696F6E3A20252E326620670D
:10F9D0000A005A2D6178697320616363656C6572F2
:10F9E0006174696F6E3A20252E326620670A0045E1
:10F9F00072726F722072656164696E672066726FE1
:10FA00006D204D50553630353000000000000000AC
:10FA1000000000009FF03F0295F03F028BF03F0294
:10FA200081F03F0275F03F0269F03F0259F83F0252
:10FA300061F83F025DF03F0255F03F024BF03F029C
:10FA400041F03F0289F93F0291F83F0299F83F02E5
:10FA50006170700025592D256D2D25645425483A77
:10FA6000254D3A2553257A0061736374696D6500ED
:10FA70000000000000000000E1F33F02D1F33F026C
:10FA8000D3F33F020000000000000000C7F43F0273
:10FA90002FF53F0205F53F02F1F03F02F7F43F0278
:10FAA000C9F43F02D9F43F0229F53F0227F23F0291
:10FAB000E9F43F02C1F43F02000000000000000032
:10FAC000BDF53F0229F63F0201F63F02F1F03F0289
:10FAD000D1F53F02EDF53F02DFF53F02FBF53F02B6
:10FAE00027F23F02BFF53F02C3F53F0200000000CE
:10FAF0000000000067F63F02B1F63F0289F63F02C0
:10FB000069F63F0291F63F0299F63F02A1F63F02E5
:10FB1000A9F63F0227F23F020000000000000000AB
:10FB2000FBF73F02F1F73F02E7F73F029DF73F0285
:10FB3000DBF73F02CFF73F0259F83F0261F83F027F
:10FB4000C3F73F02BBF73F02B1F73F02A7F73F02FF
:10FB500089F93F0291F83F0299F83F028CAE0710F5
:10FB6000F4AE0710FCAE071000000000000000001B
:10FB700019F83F0223F83F022DF83F0237F83F0201
:10FB800041F83F024DF83F0259F83F0261F83F0249
:10FB900069F83F0275F83F027DF83F0287F83F029F
:10FBA00089F93F0291F83F0299F83F02005245451A
:10FBB0004E54206D616C6C6F632073756363656573
:10FBC000646564002F6D6E742F776F726B73706154
:10FBD00063652F776F726B73706163652F47434363
:10FBE0002D31302D706970656C696E652F6A656E98
:10FBF0006B696E732D4743432D31302D70697065ED
:10FC00006C696E652D34385F3230323031313234C8
:10FC10005F313630363138303634312F7372632FDE
:10FC20006E65776C69622F6E65776C69622F6C699F
:10FC300062632F7374646C69622F72616E642E63E9
:10FC4000000000004DEA3F02A9F03F02BDF03F0274
:10FC5000E1F03F0251F23F0261F23F0275F23F02D2
:0CFC600081F73F0205F83F029DF93F02CA
:10FC6C0000000002F8FD3F02FCAD07100000000090
:10FC7C000000000000000000000000000000000078
:10FC8C000000000000000000000000000000000068
:10FC9C000000000000000000000000000000000058
:10FCAC000000000000000000000000000000000048
:10FCBC000000000000000000000000000000000038
:10FCCC00000000000000000000000000F8AF07106A
:04FCDC000000000024
:10FFBE000200100000E05F08A8E05F0838E43F028E
:10FFCE0001000A00FFFFFFFFFFFF00000102030414
:10FFDE0005060708090A0B0C0D0E0F10111213144B
:0EFFEE0015161718191A1B1C1D1E1F203E0089
:04FFFC0078563412ED
:04000005085FE01898
:00000001FF
