:02000004085F93
:10B0000000B05F08FCFF5F0800000600200005019B
:08B0100004010D17000000000F
:10B018001348144908B5884205D0134A824202D021
:10B02800124B121A98471248124A0021124B121A50
:10B03800984712481249884205D0124A824202D0E3
:10B048000A4B121A984710481049884205D0104AEE
:10B05800824202D0054B121A9847014808BD00BF2A
:10B0680064AD0710B0F05F08DCAD07102D0D1110AE
:10B07800DCAD0710FCAF0710A10E1110F0BF3F02A6
:10B08800A8B05F08F8BF3F02F8BF3F02B0B05F0842
:0CB09800F8FF3F0219B05F080000000044
:08B0A8009CB05F0840FB3F0271
:10B0B00081F0004102E000BF83F0004330B54FEA69
:10B0C00041044FEA430594EA050F08BF90EA020FD6
:10B0D0001FBF54EA000C55EA020C7FEA645C7FEA69
:10B0E000655C00F0E2804FEA5454D4EB5555B8BF8C
:10B0F0006D420CDD2C4480EA020281EA030382EAFD
:10B10000000083EA010180EA020281EA0303362D8E
:10B1100088BF30BD11F0004F4FEA01314FF4801C61
:10B120004CEA113102D0404261EB410113F0004F73
:10B130004FEA03334CEA133302D0524263EB43032A
:10B1400094EA050F00F0A780A4F10104D5F1200EC8
:10B150000DDB02FA0EFC22FA05F2801841F1000123
:10B1600003FA0EF2801843FA05F359410EE0A5F1F7
:10B1700020050EF1200E012A03FA0EFC28BF4CF028
:10B18000020C43FA05F3C01851EBE37101F00045DE
:10B1900007D54FF0000EDCF1000C7EEB00006EEBEB
:10B1A0000101B1F5801F1BD3B1F5001F0CD3490875
:10B1B0005FEA30004FEA3C0C04F101044FEA4452CC
:10B1C00012F5800F80F09A80BCF1004F08BF5FEA53
:10B1D000500C50F1000041EB045141EA050130BD33
:10B1E0005FEA4C0C404141EB0101013C28BFB1F545
:10B1F000801FE9D291F0000F04BF01460020B1FA90
:10B2000081F308BF2033A3F10B03B3F120020CDA62
:10B210000C3208DD02F1140CC2F10C0201FA0CF040
:10B2200021FA02F10CE002F11402D8BFC2F1200CA5
:10B2300001FA02F120FA0CFCDCBF41EA0C0190405B
:10B24000E41AA2BF01EB0451294330BD6FEA0404A4
:10B250001F3C1CDA0C340EDC04F11404C4F120028F
:10B2600020FA04F001FA02F340EA030021FA04F3A1
:10B2700045EA030130BDC4F10C04C4F1200220FAF8
:10B2800002F001FA04F340EA0300294630BD21FA36
:10B2900004F0294630BD94F0000F83F4801306BFFC
:10B2A00081F480110134013D4EE77FEA645C18BFF0
:10B2B0007FEA655C29D094EA050F08BF90EA020F87
:10B2C00005D054EA000C04BF1946104630BD91EA7F
:10B2D000030F1EBF0021002030BD5FEA545C05D182
:10B2E0004000494128BF41F0004130BD14F58004C1
:10B2F0003CBF01F5801130BD01F0004545F0FE4135
:10B3000041F470014FF0000030BD7FEA645C1ABF69
:10B31000194610467FEA655C1CBF0B46024650EAA0
:10B32000013406BF52EA033591EA030F41F40021CC
:10B3300030BD00BF90F0000F04BF0021704730B552
:10B340004FF4806404F132044FF000054FF0000127
:10B3500050E700BF90F0000F04BF0021704730B5E8
:10B360004FF4806404F1320410F0004548BF4042BD
:10B370004FF000013EE700BF42004FEAE2014FEA12
:10B3800031014FEA02701FBF12F07F4393F07F4FED
:10B3900081F06051704732F07F4208BF704793F0F0
:10B3A0007F4F04BF41F40021704730B54FF4607403
:10B3B00001F0004521F000411CE700BF50EA010206
:10B3C00008BF704730B54FF000050AE050EA0102AF
:10B3D00008BF704730B511F0004502D5404261EB1F
:10B3E00041014FF4806404F132045FEA915C3FF460
:10B3F000D8AE4FF003025FEADC0C18BF03325FEAFD
:10B40000DC0C18BF033202EBDC02C2F1200300FAAD
:10B4100003FC20FA02F001FA03FE40EA0E0021FAD2
:10B4200002F11444BDE600BF70B54FF0FF0C4CF4C0
:10B43000E06C1CEA11541DBF1CEA135594EA0C0F72
:10B4400095EA0C0F00F0DEF82C4481EA030621EAAD
:10B450004C5123EA4C5350EA013518BF52EA0335E8
:10B4600041F4801143F4801338D0A0FB02CE4FF09A
:10B470000005E1FB02E506F00042E0FB03E54FF0CA
:10B480000006E1FB03569CF0000F18BF4EF0010EC2
:10B49000A4F1FF04B6F5007F64F5407404D25FEABE
:10B4A0004E0E6D4146EB060642EAC62141EA555171
:10B4B0004FEAC52040EA5E504FEACE2EB4F1FD0CB3
:10B4C00088BFBCF5E06F1ED8BEF1004F08BF5FEA31
:10B4D000500E50F1000041EB045170BD06F00046E3
:10B4E00046EA010140EA020081EA0301B4EB5C0490
:10B4F000C2BFD4EB0C0541EA045170BD41F4801188
:10B500004FF0000E013C00F3AB8014F1360FDEBFAC
:10B51000002001F0004170BDC4F10004203C35DA88
:10B520000C341BDC04F11404C4F1200500FA05F30B
:10B5300020FA04F001FA05F240EA020001F00042AC
:10B5400021F0004110EBD37021FA04F642EB060122
:10B550005EEA430E08BF20EAD37070BDC4F10C044C
:10B56000C4F1200500FA04F320FA05F001FA04F210
:10B5700040EA020001F0004110EBD37041F10001FC
:10B580005EEA430E08BF20EAD37070BDC4F1200507
:10B5900000FA05F24EEA020E20FA04F301FA05F26F
:10B5A00043EA020321FA04F001F0004121FA04F217
:10B5B00020EA020000EBD3705EEA430E08BF20EAE7
:10B5C000D37070BD94F0000F0FD101F00046400021
:10B5D00041EB010111F4801F08BF013CF7D041EAA3
:10B5E000060195F0000F18BF704703F000465200A7
:10B5F00043EB030313F4801F08BF013DF7D043EA78
:10B600000603704794EA0C0F0CEA135518BF95EA2D
:10B610000C0F0CD050EA410618BF52EA4306D1D1B4
:10B6200081EA030101F000414FF0000070BD50EAD3
:10B63000410606BF1046194652EA430619D094EA5D
:10B640000C0F02D150EA013613D195EA0C0F05D147
:10B6500052EA03361CBF104619460AD181EA03019B
:10B6600001F0004141F0FE4141F470014FF0000053
:10B6700070BD41F0FE4141F4780170BD70B54FF0EE
:10B68000FF0C4CF4E06C1CEA11541DBF1CEA13556E
:10B6900094EA0C0F95EA0C0F00F0A7F8A4EB050450
:10B6A00081EA030E52EA03354FEA013100F0888047
:10B6B0004FEA03334FF0805545EA131343EA126310
:10B6C0004FEA022245EA111545EA10654FEA0026C5
:10B6D0000EF000419D4208BF964244F1FD0404F57E
:10B6E000407402D25B084FEA3202B61A65EB0305DA
:10B6F0005B084FEA32024FF480104FF4002CB6EB97
:10B70000020E75EB030E22BFB61A754640EA0C0016
:10B710005B084FEA3202B6EB020E75EB030E22BF56
:10B72000B61A754640EA5C005B084FEA3202B6EB97
:10B73000020E75EB030E22BFB61A754640EA9C0056
:10B740005B084FEA3202B6EB020E75EB030E22BF26
:10B75000B61A754640EADC0055EA060E18D04FEAE4
:10B76000051545EA16754FEA06164FEAC30343EA84
:10B7700052734FEAC2025FEA1C1CC0D111F4801F51
:10B780000BD141EA00014FF000004FF0004CB6E74A
:10B7900011F4801F04BF01430020B4F1FD0C88BFE9
:10B7A000BCF5E06F3FF6AFAEB5EB030C04BFB6EBF4
:10B7B000020C5FEA500C50F1000041EB045170BDE7
:10B7C0000EF0004E4EEA113114EB5C04C2BFD4EB14
:10B7D0000C0541EA045170BD41F480114FF0000E98
:10B7E000013C90E645EA060E8DE60CEA135594EA14
:10B7F0000C0F08BF95EA0C0F3FF43BAF94EA0C0F17
:10B800000AD150EA01347FF434AF95EA0C0F7FF48B
:10B8100025AF104619462CE795EA0C0F06D152EADF
:10B8200003353FF4FDAE1046194622E750EA4106C3
:10B8300018BF52EA43067FF4C5AE50EA41047FF4D4
:10B840000DAF52EA43057FF4EBAE12E74FEA410237
:10B85000B2F1E04324BFB3F5001CDCF1FE5C0DD96E
:10B8600001F0004C4FEAC0024CEA5070B2F1004FB8
:10B8700040EB830008BF20F00100704711F0804FBB
:10B8800021D113F13872BCBF01F00040704741F480
:10B8900080114FEA5252C2F11802C2F1200C10FA84
:10B8A0000CF320FA02F018BF40F001004FEAC12368
:10B8B0004FEAD32303FA0CFC40EA0C0023FA02F30C
:10B8C0004FEA4303CCE77FEA625307D150EA0133E2
:10B8D0001EBF4FF0FE4040F44000704701F00040B2
:10B8E00040F0FE4040F40000704700BF10F8012B0C
:10B8F00011F8013B012A28BF9A42F7D0D01A7047AD
:10B90000034613F8012B002AFBD1181A013870479F
:10B9100070B502F051F90025054E064CA41BA40891
:10B92000AC4200D170BD56F8043B98470135F7E7AB
:10B93000D0FF3F02F8FF3F0200F05AB808B500F010
:10B9400073F8BDE8084002F0EFB800F0AFBE00F0B9
:10B95000ADBE00F0B9BE00000C2008B5024A034994
:10B9600000F070FDFEE700BF49CF3F0250FB3F02F1
:10B970000078B0FA80F040097047012303707047E7
:10B9800070470368C9B29B681847000010B50446A9
:10B99000094B036001F044FA214601F08DFC02F0EE
:10B9A00017FA02F009FA2046044B40F8043B01F074
:10B9B0000DFB204610BD00BF94FB3F027CFB3F0205
:10B9C00010B50446FFF7E2FF20462421FFF7C1FF30
:10B9D000204610BD0EB403B503AB53F8042B002171
:10B9E000019301F062F802B05DF804EB03B0704718
:10B9F00008B502F031FF02F0C9FA02F02DFF68210C
:10BA000002F0EFFA02F028FF4721FFF7BAFF02F039
:10BA100023FF0021FFF7B5FF02F01EFFBDE808403D
:10BA2000012102F0E1BA000038B500F005FB3C4C02
:10BA30002368C01A642865D900F0FEFA206002F07D
:10BA40000BFF682102F0CDFA02F006FF4721FFF755
:10BA500098FF02F001FF002102F0C6FA02F0FCFE9E
:10BA600002226821012302F0A4FA02F0F5FE036825
:10BA70002C4D5B699847287002F0EEFE03682A4C53
:10BA80005B699847294BC0B218702B7840EA0320B5
:10BA9000208002F09DF9B4F900202549FFF79AFFB4
:10BAA000B4F90000FFF756FC17A3D3E90023FFF712
:10BAB000BBFCFFF7CBFE1F4B1F4C1860FFF75CFC75
:10BAC00013A3D3E90023FFF7AFFCFFF7BFFE1B4B27
:10BAD0001860FFF751FC10A3D3E90023FFF7A4FC83
:10BAE000FFF7B4FE0C212060154800F023F9D4EDD7
:10BAF000007ABDE83840FDEEE77A114817EE901A5B
:10BB000000F0EAB938BD00BF71424A9E65447F3FEC
:10BB10009A9999999999B93F176CC1166CC11640B9
:10BB2000F0AD0710EFAD0710ECAD0710EEAD07104C
:10BB300065FB3F0248AE071044AE0710E8AD0710A2
:10BB400018AE071070B51426D0E90053044606FB62
:10BB50000356AE4204D0284600F084FE1435F8E7C0
:10BB6000206800F0B1FD204670BD8842F8B504465B
:10BB70000D46164616D9904215D2A2F11406751A32
:10BB8000A1F114072C44B7421CD02CB131462046F9
:10BB900000F0D1FE337C2374304600F063FE143E87
:10BBA000143CF0E70ED0B5420CD02CB1294620460B
:10BBB00000F0C1FE2B7C2374284600F053FE1435A0
:10BBC0001434F0E7F8BD00232DE9F041C0E900335B
:10BBD00083604F6804469F420E4624DD4FF01408F0
:10BBE00008FB07F000F062FD0546E0B1D4E9001261
:10BBF00008FB0212FFF7B9FF206800F065FD256021
:10BC0000A760D6E9007308FB0378B84509D0394628
:10BC1000284600F0AAFE3B7C143505F8043C143796
:10BC2000F3E7736863602046BDE8F08170B50024D7
:10BC3000284B294A8EB09A60C3E90044012000F0E5
:10BC40002BFC2146012000F035FCCDE90244049490
:10BC500002F0BEF8214C0546264602A905A8FFF7CA
:10BC6000B2FF05A908A8FFF7AEFF1D4B08A946F8CB
:10BC7000043B0BA8FFF7A7FF0BAA1E21304601F0DB
:10BC8000FDFB0BA8FFF75EFF08A8FFF75BFF154B56
:10BC90002562236005A8FFF755FF134B236002F0D0
:10BCA00097F84FF4165102F083F801F0B9F82146E5
:10BCB00001F0BCFA02A8FFF745FF052306224FF466
:10BCC0000061CDE9003209480423032200F010F896
:10BCD0000EB070BDDCAD07100000FFFFF4AD071023
:10BCE0007CFB3F0280FC3F0294FB3F0218AE071032
:10BCF00038B500250446C0E90523049B0561C361EE
:10BD0000059B056003628562816090B2012102F0AB
:10BD10009DFC208B012102F099FCA08B012102F0F7
:10BD200095FC208C012102F091FC042320466562E1
:10BD3000E36038BD8268034B93FBF2F393FBF1F1B0
:10BD4000416070470087930338B5C3680446022BEF
:10BD50000D460DD103290BD8DFE801F00213151BA6
:10BD60000021A08A02F083FC0121208B02F07FFCDD
:10BD7000E368042B1FD1032D1DD8DFE805F00C2A42
:10BD8000303E0121EDE70121A08A02F070FC002184
:10BD9000EBE70021F8E70121A08A02F068FC00210E
:10BDA000208B02F064FC0121A08B02F060FC0021DA
:10BDB000208C02F05CFCE368052B40F08C80092DA0
:10BDC00000F28980DFE805F01F2937495F6167715C
:10BDD0007F850021A08A02F04AFC0121E0E70021D2
:10BDE000A08A02F044FC0121208B02F040FC0021DB
:10BDF000A08B02F03CFC0121DAE70121A08A02F0CD
:10BE000036FC0021F0E70021A08A02F030FC01217D
:10BE1000208B02F02CFC012108E00021A08A02F016
:10BE200026FC0121208B02F022FC0021A08B02F0D5
:10BE30001EFC00210CE00021A08A02F018FC012168
:10BE4000208B02F014FC0021A08B02F010FC0121D9
:10BE5000208C02F00CFC012110E00021A08A02F0ED
:10BE600006FC0121208B02F002FC0021A08B02F0D5
:10BE7000FEFB0121208C02F0FAFB0021A08CBDE822
:10BE8000384002F0F4BB0121E8E70121A08A02F06A
:10BE9000EEFB0021E6E70121A08A02F0E8FB002189
:10BEA000208B02F0E4FB0121E0E70121A08A02F0EF
:10BEB000DEFB0021208B02F0DAFB0121A08B02F0D7
:10BEC000D6FB0021D6E70121A08A02F0D0FB002199
:10BED0009EE70021F8E738BDF8B5002981EAE17551
:10BEE0000446A5EBE17524DD0123236000270A2623
:10BEF00085B300F093F8A36A6268C31A9342F7D33C
:10BF000022682369012AA06216D1A26801339342F4
:10BF100008BF3B462361D4E90331052B05F1FF350A
:10BF200010D191FBF6F306FB13112046FFF70CFF2F
:10BF3000DEE7DBD00023D8E70BB9A36823612369D0
:10BF4000013BE7E74B4203F0030301F0030158BF55
:10BF50005942EAE7F8BD000009B504480068044BFF
:10BF600003441B689B68029309BD000064AD071081
:10BF70005000000009B504480068044B03441B68E6
:10BF8000DB68029309BD000064AD0710500000009B
:10BF900009B504480068044B03441B689B6802937E
:10BFA00009BD000064AD07101400000009B5044885
:10BFB0000068044B03441B68DB68029309BD000062
:10BFC00064AD07101400000009B504480068044B74
:10BFD00003441B681B69029309BD000064AD071090
:10BFE0001400000009B504480068044B03441B68B2
:10BFF0005B68029309BD000064AD071000000000FB
:10C0000009B504480068044B03441B68DB680293CD
:10C0100009BD000064AD07100000000009B5044828
:10C020000068044B03441B681B69029309BD0000B0
:10C0300064AD07100000000009B504480068044B17
:10C0400003441B685B69029309BD000064AD0710DF
:10C050000000000009B504480068044B03441B6855
:10C060005B6C029309BD000064AD07103000000056
:10C0700009B504480068044B03441B689B6C029399
:10C0800009BD000064AD07103000000009B5044888
:10C090000068044B03441B68DB6C029309BD00007D
:10C0A00064AD07103000000009B504480068044B77
:10C0B00003441B685B6D029309BD000064AD07106B
:10C0C0003000000009B504480068044B03441B68B5
:10C0D0005B69029309BD000064AD07104C000000CD
:10C0E00009B504480068044B03441B689B6802932D
:10C0F00009BD000064AD07102400000009B5044824
:10C100000068044B03441B68DB68029309BD000010
:10C1100064AD07102400000009B504480068044B12
:10C1200003441B681B69029309BD000064AD07103E
:10C130002400000009B504480068044B03441B6850
:10C140005B69029309BD000064AD07102400000084
:10C1500009B504480068044B03441B689B690293BB
:10C1600009BD000064AD07102400000009B50448B3
:10C170000068044B03441B68DB69029309BD00009F
:10C1800064AD07102400000009B504480068044BA2
:10C1900003441B681B6A029309BD000064AD0710CD
:10C1A0002400000009B504480068044B03441B68E0
:10C1B0009B6A029309BD000064AD071024000000D3
:10C1C00009B504480068044B03441B68DB6A02930A
:10C1D00009BD000064AD07102400000009B5044843
:10C1E0000068044B03441B681B6C029309BD0000EC
:10C1F00064AD07102400000009B504480068044B32
:10C2000003441B68DB68029309BD000064AD07109E
:10C210001000000009B504480068044B03441B6883
:10C220009B69029309BD000064AD07101000000077
:10C2300009B504480068044B03441B68DB6902939A
:10C2400009BD000064AD07101000000009B50448E6
:10C250000068044B03441B681B6A029309BD00007D
:10C2600064AD07101000000009B504480068044BD5
:10C2700003441B685B6A029309BD000064AD0710AC
:10C280001000000009B504480068044B03441B6813
:10C290009B6A029309BD000064AD07101000000006
:10C2A00009B504480068044B03441B68DB6A029329
:10C2B00009BD000064AD07101000000009B5044876
:10C2C0000068044B03441B681B6B029309BD00000C
:10C2D00064AD07101000000009B504480068044B65
:10C2E00003441B685B6B029309BD000064AD07103B
:10C2F0001000000009B504480068044B03441B68A3
:10C300001B6C029309BD000064AD07101000000013
:10C3100009B504480068044B03441B681B6D029375
:10C3200009BD000064AD07101000000009B5044805
:10C330000068044B03441B68DB69029309BD0000DD
:10C3400064AD07101800000009B504480068044BEC
:10C3500003441B681B6A029309BD000064AD07100B
:10C360001800000009B504480068044B03441B682A
:10C370001B68029309BD000064AD07103400000083
:10C3800009B504480068044B03441B685B680293CA
:10C3900009BD000064AD07103400000009B5044871
:10C3A0000068044B03441B689B68029309BD0000AE
:10C3B00064AD07103400000009B504480068044B60
:10C3C00003441B681B69029309BD000064AD07109C
:10C3D0003400000009B504480068044B03441B689E
:10C3E0005B69029309BD000064AD071034000000D2
:10C3F00009B504480068044B03441B689B69029319
:10C4000009BD000064AD07103400000009B5044800
:10C410000068044B03441B68DB69029309BD0000FC
:10C4200064AD07103400000009B504480068044BEF
:10C4300003441B681B6A029309BD000064AD07102A
:10C440003400000009B504480068044B03441B682D
:10C450005B6B029309BD000064AD0710480000004B
:10C4600009B504480068044B03441B68DB6E029363
:10C4700009BD000064AD07104800000009B504487C
:10C480000068044B03441B681B6F029309BD000046
:10C4900064AD07104800000009B504480068044B6B
:10C4A00003441B685B68029309BD000064AD07107C
:10C4B0000800000009B504480068044B03441B68E9
:10C4C000DB6A029309BD000064AD0710080000009C
:10C4D00009B504480068044B03441B68D3F888304E
:10C4E000029309BD64AD07100800000009B50448B7
:10C4F0000068044B03441B68D3F89430029309BDD1
:10C5000064AD07100800000009B504480068044B3A
:10C5100003441B685B68029309BD000064AD07100B
:10C520002800000009B504480068044B03441B6858
:10C530009B68029309BD000064AD0710280000004D
:10C5400009B504480068044B03441B68DB68029388
:10C5500009BD000064AD07102800000009B50448BB
:10C560000068044B03441B681B69029309BD00006B
:10C5700064AD07102800000009B504480068044BAA
:10C5800003441B685B69029309BD000064AD07109A
:10C590002800000009B504480068044B03441B68E8
:10C5A0009B69029309BD000064AD071028000000DC
:10C5B00009B504480068044B03441B68DB69029317
:10C5C00009BD000064AD07102800000009B504484B
:10C5D0000068044B03441B681B6A029309BD0000FA
:10C5E00064AD07102800000009B504480068044B3A
:10C5F00003441B681B6B029309BD000064AD071068
:10C600002800000009B504480068044B03441B6877
:10C610005B6B029309BD000064AD071028000000A9
:10C6200009B504480068044B03441B681B6C029363
:10C6300009BD000064AD07102800000009B50448DA
:10C640000068044B03441B685B6C029309BD000047
:10C6500064AD07102800000009B504480068044BC9
:10C6600003441B685B6D029309BD000064AD0710B5
:10C670002800000009B504480068044B03441B6807
:10C680009B6D029309BD000064AD071028000000F7
:10C6900009B504480068044B03441B68DB6B029334
:10C6A00009BD000064AD07102C00000009B5044866
:10C6B0000068044B03441B681B68029309BD00001B
:10C6C00064AD07100400000009B504480068044B7D
:10C6D00003441B685B68029309BD000064AD07104A
:10C6E0000400000009B504480068044B03441B68BB
:10C6F0009B68029309BD000064AD071004000000B0
:10C7000009B504480068044B03441B685B6A029344
:10C7100009BD000064AD07100400000009B504481D
:10C720000068044B03441B68DB6B029309BD0000E7
:10C7300064AD07100400000009B504480068044B0C
:10C7400003441B681B6C029309BD000064AD071015
:10C750000400000009B504480068044B03441B684A
:10C760005B6C029309BD000064AD0710040000007B
:10C77000002240681146FFF729BF00224068114699
:10C78000FFF740BF00224068FFF72EBF002240683D
:10C7900081F00101FFF70CBF002340681A461946DB
:10C7A000FFF7F8BE002340681A461946FFF7E4BEBB
:10C7B000002240681146FFF7D1BE002240681146B2
:10C7C000FFF7B0BE002202214068FFF7B9BE002388
:10C7D00040681A46FFF798BE0322024B5A60024A8D
:10C7E0001A6070474CAE0710ACFB3F020B68036049
:10C7F0004B68436013B15A6801325A60704738B5CC
:10C80000046805467CB16368013B63605BB92368DB
:10C8100020469B689847A368013BA3601BB9236827
:10C820002046DB689847284638BD10B504460846C0
:10C830002170FFF77BFD00232046636010BD0000E0
:10C8400002220020044B1A60044B054AC3E9000091
:10C850009A60FFF721BE00BF60AE071054AE07100C
:10C860000000FFFF10B504460068FFF72DFF2046CB
:10C8700010BD10B50446006808B1FFF725FF00237E
:10C88000C4E90133236010BD38B504460D46006885
:10C890000131FFF727FF10B1C4E90005012038BDC1
:10C8A00010B50368044623B143688B4201D30120CD
:10C8B00010BD2046FFF7E8FF0028F9D0A368002B41
:10C8C000F5D122681370F2E737B50D461146019293
:10C8D0000446FFF7E5FF019A28B92046FFF7C9FF94
:10C8E000204603B030BD2946A260206801F0EAFF6F
:10C8F00000212268A368D154F2E738B505460068E4
:10C900000C4670B16A688B689A4208D3096831B1E5
:10C9100002F04DF8A368AB600023A36038BDFFF7B9
:10C92000D3FE23682B6063686B60A368AB60002351
:10C93000C4E90033F1E7002310B50446C0E9003331
:10C9400083600373FFF7D9FF204610BD884210B5FE
:10C95000044605D00B682BB18A681946FFF7B4FF6F
:10C96000204610BDFFF785FFFAE7002310B5044607
:10C97000C0E9003383600373FFF7E8FF204610BD72
:10C9800010B543680446013B436063B903689B6884
:10C990009847A368013BA3602BB923682046BDE8F4
:10C9A0001040DB68184710BD70B50446D0E900534D
:10C9B00005EB0316AE4204D02846FFF753FF1035AF
:10C9C000F8E72068FFF780FE204670BD002302488C
:10C9D0000360FFF73FBB00BF64AE071010B504460D
:10C9E00080680368DB689847E3681844E06010BD1E
:10C9F000F8B506460D4600248F18BD420CD03368AA
:10CA000030469B6815F8011B9847031E01DB1C4448
:10CA1000F3E7002C08BF1C462046F8BD704710B550
:10CA200004461021FEF795FF204610BD13B50446BD
:10CA3000084659B10191FEF763FF0246204623687C
:10CA40000199DB6802B0BDE81040184702B010BD84
:10CA500003689B68184738B50D210546FFF7F8FFB6
:10CA60000A2104462846FFF7F3FF204438BD00237F
:10CA7000012A98BF0A2230B58BB08DF8243009AC5A
:10CA80000D46B1FBF2F101FB125303F0FF03092B3A
:10CA900094BF30333733DBB2AA4204F8013DEFD9FB
:10CAA0002146FFF7C3FF0BB030BD2DE9F04186B042
:10CAB00000AF05460E46381D142114463B60FFF7B3
:10CAC0001FFE13280ED82846391DFFF7AFFF044676
:10CAD0001EB12846FFF7BFFF044420461837BD4665
:10CAE000BDE8F08100F1080323F00703E846ADEB51
:10CAF000030D2246411C3B686846FFF701FE69466C
:10CB00002846FFF793FF0446C546E1E710B5044603
:10CB1000FFF792FAE060236820465B699847002897
:10CB200008DAFFF789FAE368C01AA3689842F2D3DB
:10CB30004FF0FF3010BD2DE9F04107460C460D4681
:10CB40008E18B542A5EB040807D03846FFF7DEFF84
:10CB5000031E02DB05F8013BF3E74046BDE8F08128
:10CB60007047084611B10B685B68184770477047FB
:10CB70007047704738B504460D4600682E2101F015
:10CB80000CFF2368C31A2B6023B1037803B1013073
:10CB900023682060184638BD10B504460421FEF70E
:10CBA000D8FE204610BD10B504460421FEF7D1FE84
:10CBB000204610BDFFF76ABA08B5FEF797FEB0FA37
:10CBC00080F0400908BD704710B50C4601F000F92F
:10CBD000844205D101F0FCF8BDE8104001F0ECB84A
:10CBE00001F08EFD844205D101F08AFDBDE81040C0
:10CBF00001F06BB92CB123682046BDE810405B689A
:10CC0000184710BD13B5044608460191FEF778FE9B
:10CC100002462046019902B0BDE8104001F0C8BCB0
:10CC200013B5044608460191FEF76AFE0246204607
:10CC300023680199DB6802B0BDE81040184707B5CA
:10CC400003688DF807100122DB680DF10701984792
:10CC500003B05DF804FB00002DE9F74F4FF0140A14
:10CC6000D0E90084174645460AFB04F40093174BAD
:10CC7000A4105C43002C21DD66100AFB06F005EBD6
:10CC80000009B9F804B03A465F4528BF5A4628580B
:10CC9000019101F094FE00284FF0010301990BD19E
:10CCA0005F4503D1009A13703446E3E7FCD9A61B15
:10CCB00009F11405013EF7E7F9DBF5E7A5EB0805F7
:10CCC0000248AD10684303B0BDE8F08FCDCCCCCCAA
:10CCD0007FB50369057E019103B3F9B1002600F128
:10CCE0000C04039603A901A8FFF744FF0146A8B16D
:10CCF0000DF10B032046039A8DF80B60FFF7ACFF94
:10CD00009DF80B3053B12368142404FB0034B4F9AC
:10CD100006300834002BA8BFDDB2E3E7284604B094
:10CD200070BD0EB4F0B58CB000AF07F1440555F8F6
:10CD3000042B04462B46202107F110007A60FD6089
:10CD4000FFF7DEFC1F287A681AD900F1080323F0E8
:10CD500007036E46ADEB030D411C2B466846FD6094
:10CD6000FFF7CEFC021E04DD236869462046DB681F
:10CD70009847B5463037BD46BDE8F04003B0704730
:10CD80000028F7D023680246DB68204607F110012F
:10CD90009847EFE710B5084CD4E88F3FDB0709D47C
:10CDA0002046FEF7E5FD28B12046FEF7E6FD0348E4
:10CDB00001F07AFD024810BD6CAE0710B7DA3F02F1
:10CDC00068AD071010B5084CD4E88F3FDB0709D4D5
:10CDD0002046FEF7CDFD28B12046FEF7CEFD0348E4
:10CDE00001F062FD024810BD70AE07100FDB3F027C
:10CDF0006CAD071038B500250446C0E90055C0E900
:10CE000004558560856140F8245FFFF723F9FFF73B
:10CE1000C1FFE061FFF7D6FF25732062204638BDD1
:10CE200010B50A4CD4E88F3FDB070CD42046FEF740
:10CE30009FFD40B10648FFF7DDFF2046FEF79DFD50
:10CE4000044801F031FD024810BD00BF68AE071074
:10CE500078AE0710DDE23F020023024A0249034890
:10CE6000FFF70CBBC5E03F0251E03F02D1DF3F02BC
:10CE700000231A4619461846FFF700BB37B504468B
:10CE80008D686846FFF7B2FC6A462946204601F0E5
:10CE9000AFFA01A8FFF7B3FC204603B030BD37B5A9
:10CEA0000446CD686846FFF7A1FC6A46294620463D
:10CEB00001F07AFA01A8FFF7A2FC204603B030BDCA
:10CEC00037B504460D696846FFF790FC6A46294667
:10CED000204601F012FA01A8FFF791FC204603B0AA
:10CEE00030BD000070B58AB00D46014604A8FFF7BA
:10CEF000C5FF144E04A801F093FAE8B1684604A9EE
:10CF0000FFF7CDFF31460298FFF756FE044610B1F9
:10CF10002C1E18BF012401A8FFF771FC002CE9D0DA
:10CF2000684604A9FFF7CCFF684601F01CFA2860A8
:10CF300001A8FFF764FCDDE705A8FFF760FC0AB075
:10CF400070BD00BF00FC3F0237B50C4613492046B8
:10CF50001546FEF7CBFC50B900F03AFF4FF41651DE
:10CF600000F026FF03B0BDE8304000F031BF20469E
:10CF70000B49FEF7BBFC78B94FF4165301A92846BC
:10CF80000193FFF7AFFF01F0BBFB019900F09AFF9F
:10CF900001F0B6FB03B030BD0020FBE705FC3F020B
:10CFA0000CFC3F0270B51426D0E90053044606FB82
:10CFB0000356AE4205D005F10800FFF7F3FF143524
:10CFC000F7E72068FFF780FB204670BD10B50446E8
:10CFD0000C30FFF7E7FF2046FFF7E6FC204610BDC8
:10CFE00010B50446034B40F8043BFFF7EFFF204623
:10CFF00010BD00BF7CFB3F0210B50446FFF7F0FFF9
:10D0000020462421FEF7A5FC204610BD10B504469D
:10D01000024B0360FFF7E4FF204610BD98FC3F027F
:10D0200010B50446FFF7F2FF20462421FEF791FCDD
:10D03000204610BD0A6810B502604A6842600022AE
:10D04000C0E9022202618C688A608460CC68CA6090
:10D05000C4600C690A61046110BD0022C0E90022AD
:10D06000826010B50C680A6004604C684A604460D5
:10D070008C688A60846010BD10B504460368186827
:10D08000FFF712F8204610BD2DE9F04F87B003934B
:10D090001C4B80465B688946C3F3080316466BB990
:10D0A000FFF7BEFE044600F12403406A0593FFF734
:10D0B00081FD237B2BB105A8FFF7DEFF07B0BDE89C
:10D0C000F08F01235FFA89F92373D4E9005305EB4C
:10D0D000830AAA4512D055F8047B3146381DFFF764
:10D0E000F7FD8145F5D3039A3B680092D3F808B069
:10D0F0004A46334641463846D847EAE70023237379
:10D10000D9E700BF00ED00E02DE9F74F9B461A4B31
:10D1100080465B688946C3F3080316466BB9FFF780
:10D120007FFE044600F12403406A0193FFF742FDAD
:10D13000237B2BB101A8FFF79FFF03B0BDE8F08F61
:10D140000123F6B22373D4E9005305EB830A554556
:10D150000ED055F8047B5946381DFFF7B9FD8642BD
:10D16000F5D33B684A4641463846DB689847EEE7C8
:10D1700000232373DEE700BF00ED00E02DE9F3415B
:10D18000164B05465B680F46C3F308031BBBFFF74E
:10D1900047FE044600F12403406A0193FFF70AFDAD
:10D1A000D4E90063462406EB8308B04509D101A801
:10D1B000FFF762FFA542B4BF0020012002B0BDE826
:10D1C000F08156F8040B39460430FFF781FD8442A4
:10D1D000A8BF0446E9E70020F0E700BF00ED00E04B
:10D1E000F8B5D0E901539D4204460E460DDB6F1C95
:10D1F000002F006804DDB900FFF774FA18B9F8BD14
:10D20000FFF762FA00202060A7602768626807EBDA
:10D2100085019200A2EB8502081D01F060FB47F832
:10D2200025606368012001336360E8E737B5044691
:10D2300000F12403406A01930D46FFF7BBFCD4E9DB
:10D24000003203EB8202934219460AD00968043384
:10D25000A942F8D101A8FFF70FFF0025284603B027
:10D2600030BD29462046FFF7BBFF05460028F1D018
:10D270006368012B01D1FFF7EFFD01A8FFF7FCFE6A
:10D28000ECE70B4670B50446D0E9000200EB8202E1
:10D2900082420FD001461D6851F8046BAE4207D19F
:10D2A000521A01F01CFB01206368013B636070BDF2
:10D2B0000846EDE70020FAE71FB5044600F1240315
:10D2C000406A01910393FFF775FC204601A9FFF71F
:10D2D000D8FF18B163680BB9FFF7CAFD03A8FFF7C1
:10D2E000CBFE04B010BD182370B50446D0E9045637
:10D2F00003FB0656AE4215D0204605F11001FFF79C
:10D30000C0FF63680BB9FFF7B3FDE06929690368E3
:10D31000DB689847696919B1206A0368DB68984738
:10D320001835E7E71826D4E9045306FB0356AE4246
:10D3300004D02846FFF796FA1835F8E70023636112
:10D3400070BD73B50446FFF793FD04F12403606AD2
:10D350000193FFF72FFC2046FFF7C5FF01A8FFF759
:10D360008BFE606A08B1FEF783FED4E904531826E9
:10D3700006FB0356AE4204D02846FFF773FA183571
:10D38000F8E72069FFF7A0F92068FFF79DF920462C
:10D3900002B070BD0148FFF7D4BF00BF78AE0710E0
:10D3A0008842F8B504460D46164615D9904214D267
:10D3B000A2F11406751AA1F114072C44B7421AD031
:10D3C0001CB131462046FFF735FE06F10800FFF795
:10D3D000E9FD143E143CF1E70DD0B5420BD01CB171
:10D3E00029462046FFF726FE05F10800FFF7DAFD83
:10D3F00014351434F1E7F8BD8842F8B504460D46FB
:10D40000164614D9904213D2A2F11006751AA1F152
:10D4100010072C44B74218D01CB131462046FFF704
:10D420008AFA3046FFF71EFA103E103CF2E70CD0A5
:10D43000B5420AD01CB129462046FFF77CFA28469F
:10D44000FFF710FA10351034F2E7F8BD70B50E1E74
:10D45000054611DD3001FFF729F9044658B1D5E939
:10D46000001201EB0212FFF7C7FF2868FFF72CF943
:10D4700001202C60AE6070BD0024F6E72DE9F04F6E
:10D4800090460023462295B00391D8F80410044634
:10D490009942C0E90033C0E90233C0E90433CDE961
:10D4A000083302760A9323DCD8E90057142303FBE0
:10D4B0000757AF423BD029460BA8FFF73CFA0BA910
:10D4C0000FA8099EFFF737FADDE9091399421BDA25
:10D4D000089B099A03EB0616314603EB021206F18C
:10D4E0001000FFF789FFEEB9099B0133099311E0A2
:10D4F00008A8FFF7ABFF0028D6D108A8FFF754FA19
:10D50000204615B0BDE8F08F013108A8FFF79EFF57
:10D510000028DDD10FA8FFF7A5F90BA8FFF7A2F9A6
:10D520001435C6E730460FA9FFF705FADCE70026F9
:10D530004FF01409CDE90B660D96DDE908239E42F4
:10D540007CDA3301D35806930BB90136F5E7002393
:10D55000079309FB06F30BAD029307A906A8FFF793
:10D5600009FB82460028F0D04FF0000301468DF8F9
:10D5700017302846079A0DF11703FFF76DFB9DF84A
:10D5800017700190002F4AD1BDF81C30CDE91177FA
:10D59000ADF840304FF6FF73CDF83CA0ADF8423007
:10D5A0001397D5E90132934217DB03F1010ABAF16F
:10D5B000000F30DD09FB0AF0FFF778F8834660B30F
:10D5C000D5E9001209FB0212FFF7EAFE2868FFF70F
:10D5D0007BF8C5F800B0C5F808A02B68019A09FBD4
:10D5E000023A6A68514609FB02320AF11400FFF759
:10D5F000D7FEBAF1000F03D050460FA9FFF71AFD6E
:10D600006B6801336B6011A8FFF7CCFC3FB10BA82E
:10D61000FFF7C8FC71E7BB46D8E70127F3E7019B9A
:10D620002D6809FB0355069B1B782BB9D8F80030F1
:10D63000029A13441B7CEB8008358EE72168226038
:10D6400062686360A36809920A9A0A93E368A26019
:10D650000B9A0B932369E2600C9A0C936369226125
:10D660000D9A0D93039B089162612376CFE700002A
:10D67000F0B504462646174687B00D46684619465B
:10D68000FEF7A1FA0B4B694646F8043B03A8FEF7E8
:10D690009AFA394603AA3046FFF7F0FE03A8FEF7D0
:10D6A00051FA6846FEF74EFA2046034B2562236086
:10D6B00007B0F0BD7CFB3F0280FC3F02F0B50F4697
:10D6C00085B038461C4916461D460A9CFEF70EF9E1
:10D6D000C0B9A4B1294601A8FFF7BFFC242017490F
:10D6E00001F0DEF8054630B101AB32462146FFF7C6
:10D6F000BFFF134B2B6001A8FEF724FA2C462046EF
:10D7000005B0F0BD38460F49FEF7F0F890B9002C8F
:10D71000F5D0294601A8FFF7A0FC2420074901F015
:10D72000BFF805460028E6D03246214601ABFFF798
:10D730009FFFE0E70024E2E714FC3F0239FE3F02CE
:10D7400098FC3F0218FC3F02014B024A1A607047E6
:10D7500074AE071029FC3F022DE9F047089DD0F870
:10D76000209004460E461746984600F031FB81454E
:10D770004DD02B79190704D520466A695449FFF723
:10D78000D0FAB8F1000F0DD05B212046FFF757FA11
:10D7900041462046FFF744FA236802222046DB6810
:10D7A0004C4998472B79DA0724D5D5F808802F21E2
:10D7B000404601F018F908B100F101084146204641
:10D7C000FFF72EFA2B799B0708D53A212046FFF761
:10D7D00036FA2046EA684049FFF7A3FA2A79236817
:10D7E00012F0040F20464FF00202DB6814BF3B49E1
:10D7F0003B4998472B7958071DD529690B461A468E
:10D8000013F8010B60B1202808D11946F7E7354815
:10D8100000F071FC0028ACD0BDE8F0872828EED1DC
:10D820002368521A2046DB68984723680422204662
:10D83000DB682D49984700213846FEF711FE014666
:10D840002046FFF7EDF9236802222046DB682449D1
:10D8500098471EB131462046FFF7E2F92B7913F0C5
:10D86000300F2CD023682149DB68022220469847DC
:10D870002B79D9060AD52368072220461C49DB6884
:10D8800098472046AA691B49FFF74BFA2B799A065D
:10D8900011D5DB0605D5236802222046DB680F4937
:10D8A00098472368204614490A22DB689847204697
:10D8B000E969FFF7B5F95D212046FFF7C0F9236854
:10D8C0002046BDE8F0470222DB680C49184700BF3C
:10D8D0002DFC3F0234FC3F0237FC3F023AFC3F0282
:10D8E0003FFC3F02F0AE07103DFC3F0242FC3F020E
:10D8F00045FC3F024DFC3F0250FC3F025BFC3F02F7
:10D900002DE9F0410446076A0D46164600F060FA1C
:10D91000874207D0206A324603682946BDE8F041B5
:10D92000DB681847034800F0E6FB0028F2D0BDE8AA
:10D93000F08100BFF0AE07102DE9F04385B0D0F8BC
:10D94000209005460F4690461E460C9C00F040FA7B
:10D95000814505D1494800F0CEFB002840F08A807F
:10D960004FF000092B6A464A6846CDE90239009219
:10D970008DF8049000F07DFD49464046FEF770FDAD
:10D98000804640490122684600F002FE4146FFF70A
:10D9900039F93FB13C490122684600F0F9FD3946AA
:10D9A000FFF730F93EB139490122684600F0F0FD39
:10D9B0003146FFF727F92379DF070ED5A6682F2117
:10D9C000304601F010F800B1461C3149012268468A
:10D9D00000F0DEFD3146FFF715F923799E0707D5E4
:10D9E0002C490222684600F0D3FDE16800F04EFDAC
:10D9F0002379580714D5266933461F4613F8012B9F
:10DA00002AB1202A01D11E46F7E7282AF5D10222A1
:10DA10002149684600F0BCFD3146BA1B00F0C8FD44
:10DA20002379190707D51D490122684600F0B0FD8A
:10DA3000616900F03DFD2379DA0607D51849042213
:10DA4000684600F0A5FDA16900F020FD23799B0642
:10DA500007D514490622684600F09AFDE169FFF7F0
:10DA6000D1F8684600F0EFFC286A022203680E49EC
:10DA7000DB68984705B0BDE8F08300BFF0AE071043
:10DA8000F0FB3F020AFC3F025EFC3F02CCFE3F027D
:10DA900060FC3F0262FC3F0265FC3F0268FC3F0203
:10DAA0006AFC3F026FFC3F025BFC3F02024B1A68BC
:10DAB000024B1A60704700BF70AD0710A0AE071090
:10DAC0000022014B9A607047A4AE0710014B18600A
:10DAD000704700BF74AD071008B50F4B43B100F09D
:10DAE00077F903681B699847002801DD00E000BF53
:10DAF0000A4B43B100F004FE03681B6998470028F5
:10DB000001DD00E000BF064B0BB100F03FFE054B0E
:10DB10000BB100F071FE08BD000000000000000025
:10DB2000000000000000000008B5FFF7D5FFFEF779
:10DB300083FA014B186008BD4CAF07100548064A30
:10DB400008B5121A054900F0BDFE054B054A1A60DA
:10DB500008BD00BF00B4071004B4071028F15F0827
:10DB600000B407101E1C279A002307B51A466FF051
:10DB700077010093FEF7BAFC03B05DF804FB0000E8
:10DB800007B543880A2B08D0502B0BD1094B1B68D3
:10DB90004BB103B05DF804EB1847FFF7E5FF03B0A6
:10DBA0005DF804FB00231A466FF077010093FEF73F
:10DBB0009DFCF4E7B8AE0710002110B51148FEF740
:10DBC000C9FD114B1A68114B9A420CBF0122002269
:10DBD0000F4B1A7001D0FFF7B1FFFEF703FA0446AE
:10DBE00000F0A0FE0B4B13B1204600E000BF002167
:10DBF0000848FEF74DFDBDE8104000210648FEF73D
:10DC000067BC00BF15EA3F0200B407101E1C279A2C
:10DC1000B4AE071000000000C9EA3F02704710B51B
:10DC200004461821FDF795FE204610BDF0B5037D92
:10DC30000E46062B4FF000048DB000F1040712D001
:10DC400000F1080515F8011D0A223046FEF70FFF06
:10DC5000AF42044419D0002CF4D02E213046FEF7F8
:10DC6000F7FE0444EEE72F236A4639460A208DF872
:10DC70000040FEF727FA6846FDF742FE3368024689
:10DC800069463046DB689847044620460DB0F0BD33
:10DC900010B50446044B1122002140F8043B00F06B
:10DCA00038FE204610BD00BFFCFC3F020346074A79
:10DCB00010B543F8042B01F1100251F8044B9142C6
:10DCC00043F8044BF9D10A781A7010BDFCFC3F02EE
:10DCD00010B59DF8084044EA032343EA02420423B6
:10DCE00042EA01614160037510BD000007B5064BB3
:10DCF0000360CB7800938B784A780978FFF7E8FFC8
:10DD000003B05DF804FB00BFFCFC3F0241747047A8
:10DD10007047704708B50021007CFEF769FB40EAB8
:10DD2000E07008BD08B50121007CFEF761FB40EA08
:10DD3000E07008BD08B5007CFEF74CFB20EAE070FF
:10DD400008BD08B5007CFEF737FB20EAE07008BD8F
:10DD500013B50446007C0191FEF73CFB00280199B5
:10DD600001DC607C20B1207CFEF750FB20EAE070F3
:10DD700002B010BD007CFEF757BB10B5044614215D
:10DD8000FDF7E7FD204610BD10B54FF47A73044649
:10DD900008460021C4E90113044B207423600123C9
:10DDA00011466374FEF7DEFA204610BD10FD3F02F7
:10DDB0000022007CFEF7E4BA007CFEF7EFBA10B553
:10DDC00004461422002100F0A4FD204610BD0000EE
:10DDD00010B588B003A8FFF7F2FF0C4CD4E88F1FF2
:10DDE00011F001010FD120460191FDF7C1FD01990C
:10DDF00048B103AA0648FFF7C7FF2046FDF7BDFD5F
:10DE0000044800F051FD024808B010BDBCAE071038
:10DE1000C0AE071059EC3F0270474174704708B517
:10DE2000007CFEF7BFF920EAE07008BD08B5007C71
:10DE3000FEF772F920EAE07008BD08B5007CFEF735
:10DE400087F940EAE07008BD08B5007CFEF772F97A
:10DE500040EAE07008BD007CFEF788B937B5457C24
:10DE600004462DB1207C03B0BDE83040FEF746B932
:10DE7000007C0191FEF796F900280199F2DC284612
:10DE800003B030BD10B504461421FDF762FD2046F5
:10DE900010BD000010B54FF47A73044608461146D1
:10DEA0000022C4E90123044B20742360012363741E
:10DEB000FEF794F9204610BD44FD3F020023007C8C
:10DEC000FEF77EB90022FFF7F9BF007CFEF708B924
:10DED000007CFEF759B97047F8B5064615460C4662
:10DEE0008F18BC4206D0336830469B6814F8011B7B
:10DEF0009847F6E72846F8BD0022007CFEF7A6B951
:10DF00000021007CFEF7B0B90021007CFEF7BAB911
:10DF10000021007CFEF7C4B90021007CFEF7CEB9D9
:10DF200010B504461421FDF714FD204610BD002253
:10DF3000C0E90022182202800A7802714A688260D1
:10DF4000CA68C2600A7A02610A69426170470000C9
:10DF500038B5044615464FF47A730022C4E901230C
:10DF6000094B0846217423602946FEF7C3F9BF30E8
:10DF700008D16B69DB0705D56868FEF7A5FBE86883
:10DF8000FEF7A2FB204638BD78FD3F020023007C4F
:10DF90001A461946FEF730B910B5044686B06846F1
:10DFA000FFF7C5FF00226946207CFEF7B1F906B0F5
:10DFB00010BD7FB58DF8041000214FF0640C5B1A82
:10DFC00018BF0123CDE904C101A902928DF80C30DC
:10DFD000FFF7E2FF07B05DF804FB0022007CFEF7CC
:10DFE00019B9C9B2FFF7F9BF0022007CFEF720B9CA
:10DFF000FF210022044B0120C3E9001264211A61B1
:10E00000C3E90201704700BFD4AE07100022406888
:10E010001146FEF7A3BA002240681146FEF7D6BAB1
:10E02000002240681146FEF7EDBA00224068FEF774
:10E03000DBBA0022406881F00101FEF7B9BA002383
:10E0400040681A461946FEF7A5BA002340681A46EA
:10E050001946FEF791BA002240681146FEF762BAEF
:10E06000002202214068FEF76BBA002340681A467E
:10E07000FEF74ABA0422024B5A60024A1A607047FD
:10E08000E8AE0710A4FD3F02002340681A46FEF7E1
:10E090003BBA002202214068FEF752BA00224068D3
:10E0A0001146FEF73FBA002240681146FEF756BA05
:10E0B000002340681A461946FEF75EBA00234068FE
:10E0C0001A461946FEF766BA00214068FEF7A8BA5C
:10E0D00000214068FEF7B2BA0022406881F00101D9
:10E0E000FEF766BA00224068FEF77EBA002240685A
:10E0F0001146FEF787BA002240681146FEF766BA5D
:10E1000000214068FEF7B6BA2DE9F04395B01446F9
:10E110000D460746FFF7BCFD00211C220DA800910B
:10E1200000F0F7FB402320460C9300216B460CAA1D
:10E13000FDF720FF044600284BD102460121686804
:10E14000FEF70CFA0221804622466868FEF706FABE
:10E1500021468146009E002E3BD0002939D17368AC
:10E16000022B03D00A2B11D0F669F4E7B8F1000FA7
:10E17000FAD0716906A804313C1D07ADFFF7B6FD62
:10E180000FCD0FC42B6841462370EDE7B9F1000FA6
:10E19000EAD0102201A8746900F0BBFB062301AD90
:10E1A0008DF8143004F1080318342A4618685968A9
:10E1B000083303C2A3421546F7D101A906A83C1DA6
:10E1C00007ADFFF773FD0FCD0FC42B6849462370D1
:10E1D000CAE70098FDF7C0FE384615B0BDE8F083E9
:10E1E000033802289ABF024B53F8200001487047B9
:10E1F000E0FD3F02F0AE071008B500224068FEF7D0
:10E200002BFABDE80840FFF7EBBF0000024B034AC2
:10E210001A6000225A607047F0AE0710F4FD3F020A
:10E22000012200F1100313F8101C1846012908D12F
:10E2300053F8041C02EB4102013A03F11003F2D13E
:10E240007047022904BF53F8041C5218F4E70EB4B7
:10E25000F0B588B0102100AF07F1340555F8042B54
:10E2600004462B4678187A60FD60FEF749FA0F28BD
:10E270007A681AD900F1080323F007036E46ADEB64
:10E28000030D411C2B466846FD60FEF739FA021E5D
:10E2900004DD2368694620469B689847B5462037C9
:10E2A000BD46BDE8F04003B070470028F7D02368B2
:10E2B00002469B68204607F110019847EFE738B502
:10E2C0000B68044603604D6843689D4208D015B151
:10E2D0006B6801336B60606808B1FEF751FB6560E5
:10E2E00038BD07B503688DF8071001229B680DF152
:10E2F0000701984703B05DF804FB0B461146002266
:10E3000010B50446C0E9002283600BB9204610BD59
:10E31000FFF7D5FFFAE78368EBB11A78032A1AD81A
:10E32000DFE802F00417021B0520704702685B68F3
:10E330005268D05C2D2812D0A0F13003092B0ED9E1
:10E3400074280ED066280CD0A0F16E0358425841B4
:10E350007047062070470020704704207047032054
:10E3600070470220704710B50446FFF7D4FF02281B
:10E370000ED0C31EDBB2012B14D82268A3685068EC
:10E380005B680A22BDE810400021184400F0C2BBBF
:10E390002268A36852685B68D05CA0F1740358429D
:10E3A000584110BD0020FCE738B500230446C0E901
:10E3B00000330E48C4E90203A9B10B78032B06D041
:10E3C0008BB9136858684B68C35C6E2B07D0136811
:10E3D0004D6858688B6828445B1BA060E360114659
:10E3E0002046FFF76CFF204638BD00BF5DFC3F02B2
:10E3F00038B500250B4604461146C0E90055C0E972
:10E400000255C0E904554BB11A78012A06D103F12F
:10E410001002DB6882604361FFF751FF204638BD80
:10E4200010B54369044663B18068013BE060103079
:10E43000A0602061636113B1FFF7F2FEA0600120CC
:10E4400000E0184610BD10B57D210446FFF749FFD6
:10E4500001232046237110BD08B50379012B02D09A
:10E46000022B04D008BD2C21FFF73BFFFAE73A212D
:10E47000FAE710B50446FFF7EFFF20467B21FFF7D0
:10E4800030FF00232046237110BD000013B5044661
:10E490000191FFF7E1FF23682046DB68019A0349F9
:10E4A000984701232046237102B010BD37FC3F027C
:10E4B00013B504460191FFF7CFFF23682046DB68C0
:10E4C000019A0349984701232046237102B010BDE9
:10E4D00030FE3F022DE9F0470D46904622210446CA
:10E4E0002F46FFF7FEFEDFF8A490A8444745BA4642
:10E4F0003DD017F8016B222E06D05C2E04D030469A
:10E5000000F0D8F90028F1D12368294620469B68FD
:10E51000AAEB050298475C212046FFF7E2FE0D2E8C
:10E520000AD8072E1CD9A6F10803052B18D8DFE856
:10E5300003F00D0F11171315222E01D05C2E0FD1F1
:10E5400031462046FFF7CDFE3D46CFE76221F8E792
:10E550007421F6E76E21F4E76621F2E77221F0E715
:10E560002368324649462046DB689847ECE7BD42BF
:10E5700005D02368294620469B687A1B98472221AC
:10E580002046FFF7AEFEBDE8F08700BF33FE3F0236
:10E5900013B50446CDE90021FFF75EFFDDE9002158
:10E5A0002046FFF797FF02232046237102B010BDDB
:10E5B00013B50446CDE90021FFF74EFFDDE9002148
:10E5C0002046FFF787FF01232046237102B010BDCC
:10E5D0001B2837B5044602D9002003B030BDA0F196
:10E5E0000F03022B0BD9012821D800F035F90021A7
:10E5F000007CFDF771FE80F00100C0B2EDE7114D27
:10E60000D5E88F1F11F001010BD128460191FDF7CC
:10E61000AFF9019928B10C48FEF707F92846FDF734
:10E62000ACF9094B1878FDF78FFE0028D4D1083CCF
:10E63000012C05D800F064F8007CFDF7A5FDDAE7B1
:10E640000120CAE7F8AE0710FCAE07101B2838B54A
:10E6500004460D460AD8FF2908D0FFF7B9FF28B1B4
:10E6600029462046BDE83840FDF792BC38BD38B594
:10E6700004460D46FDF79AFCFF2810D0062804D862
:10E680004D2323FA00F0C30709D42046FFF7A0FF6B
:10E6900028B129462046BDE83840FDF795BC38BD75
:10E6A0007047000038B5142504462A46002100F0C2
:10E6B00030F925804025074928462581258200F02C
:10E6C000F1F804496060284600F0ECF8E06020466C
:10E6D00038BD00BF39FE3F027047704710B5044691
:10E6E000FFF7E0FF204610BD10B50446FFF7DAFF44
:10E6F000204610BD10B50446FFF7D4FF204610BDDC
:10E7000030B50E4D87B0D5E88F1F11F0010411D13F
:10E710002846FDF72DF968B101A8FFF7DFFF214674
:10E7200001AA0748FFF7B6FB2846FDF726F905487A
:10E7300000F0BAF8024807B030BD00BF04AF0710C0
:10E7400010AF0710E9F53F0210B50D4C86B0D4E8C4
:10E750008F3FDB0711D42046FDF70AF968B101A805
:10E76000FFF7C2FF012101AA0648FFF793FB2046ED
:10E77000FDF703F9044800F097F8024806B010BD11
:10E7800008AF071024AF071023F63F0210B5FFF7BC
:10E79000DBFF074B044653B1FFF79AFB38B1236800
:10E7A00020461B699847002801DD00E000BF10BD2E
:10E7B0000000000010B50D4C86B0D4E88F3FDB0799
:10E7C00011D42046FDF7D4F868B101A8FFF792FFF5
:10E7D000022101AA0648FFF75DFB2046FDF7CDF8B0
:10E7E000044800F061F8024806B010BD0CAF0710F5
:10E7F00038AF071021F63F0210B5FFF7DBFF074BDC
:10E80000044653B1FFF764FB38B1236820461B6907
:10E810009847002801DD00E000BF10BD00000000A7
:10E820007047000038B50A4B0446036001230949CC
:10E830004361202000F036F8202560600549284615
:10E84000A56000F02FF8C4E90305204638BD00BFDD
:10E850001800010039FE3F0230B50E4D87B0D5E8F3
:10E860008F1F11F0010411D12846FDF781F868B11E
:10E870006846FFF7D7FF6A4621460748FFF768FB5F
:10E880002846FDF77AF8054800F00EF8024807B070
:10E8900030BD00BF50AF071054AF071069F73F02FB
:10E8A000FDF753B8FDF753B8002301461A46184642
:10E8B00000F03AB9024B1844407800F097007047D6
:10E8C000CEFE3F020A44431E914200D1704710B56C
:10E8D00011F8014B914203F8014FF9D110BD884264
:10E8E00010B501EB020402D98442234607D8431E27
:10E8F000A14208D011F8012B03F8012FF8E70244D8
:10E9000001468A4200D110BD13F8014D02F8014DB5
:10E91000F7E702440346934200D1704703F8011B16
:10E92000F9E7000038B5104B04461D68AB6BB3B96E
:10E930001820FDF7BBFE0246A86320B90B4B42210D
:10E940000B48FDF7F9FE0B490B4BC0E900130B4BCD
:10E95000002183600B2383810120C2E90401AB6B9A
:10E9600000221C615A6138BD74AD07103AFE3F02A7
:10E9700051FE3F020E33CDAB34126DE6ECDE0500E6
:10E98000C9B2034610F8012B1AB18A42F9D11846D0
:10E990007047002918BF0023F9E710B50446FFF7B8
:10E9A000EFFF18B92046FCF7ABFF204410BD03462B
:10E9B00011F8012B03F8012B002AF9D1704710B58B
:10E9C0007AB103460139841813F8010B11F8012FAD
:10E9D000904201D1A34201D1801A10BD0028F3D189
:10E9E000FAE71046F9E738B503460C4669B9BDE8C1
:10E9F0003840FFF7C5BF431C054621461846FFF7C0
:10EA0000BFFF0028F7D1284638BD0025F5E70000F4
:10EA1000012B2DE9F04701D0242B06D9FDF77EFE0E
:10EA2000162303600020BDE8F0870D46DFF8E0C044
:10EA30002E4615F8014B14F80C7017F00807F7D1A3
:10EA40002D2C32D12C780127B51C002B5BD0102B3C
:10EA500009D1302C07D12C7804F0DF04582C4DD18B
:10EA60006C781023023507F100484FF0000C08F1D4
:10EA7000FF386646B8FBF3F903FB198AA4F1300EA0
:10EA8000BEF1090F16D87446A34224DDBCF1000F75
:10EA90001EDBB1451CD301D1A24519DB06FB0346A1
:10EAA0004FF0010C15F8014BE8E72B2C04BF2C7834
:10EAB000B51CCAE7A4F1410EBEF1190F01D8373CCD
:10EAC000E2E7A4F1610EBEF1190F04D8573CDBE771
:10EAD0004FF0FF3CE6E7BCF1000F05DA2223464683
:10EAE000036042B930469EE707B17642002AF9D06A
:10EAF000BCF1000F00D0691E1160F3E73024002B39
:10EB0000B1D10823AFE7302CA5D00A23ABE700BF73
:10EB1000CFFE3F0213460A46014602480068FFF74F
:10EB200077BF00BF74AD07102DE9F843DFF8BC8054
:10EB300006461F460D46D8F80000914600F058F8EA
:10EB4000264B1C6834B9264C1C60264B13B11B683D
:10EB5000C4F8883063681F2B07DDD8F8000000F088
:10EB600049F84FF0FF30BDE8F8835EB3D4F8880071
:10EB700088B91D4B23B9D8F8000000F03AF8F0E747
:10EB80004FF48470FDF792FD0028F4D00023C0E913
:10EB90004033C4F8880063680122022E40F82390B5
:10EBA00002FA03F200EB8301D0F8003143EA0203DA
:10EBB000C0F80031C1F8807002BFD0F804311343AF
:10EBC000C0F804316368D8F800005A1C0233626050
:10EBD00044F8235000F00EF80020C4E7F4AF07100B
:10EBE00068AF071000000000F5D53F02D8AD071050
:10EBF000704770477047000059C83F0281C83F0204
:10EC000085C83F020000000043616C6C206F6E20DD
:10EC100070757265207669727475616C005A204750
:10EC200079726F3A2025690A000000000000000098
:10EC3000000000000000000000000000A1C83F022A
:10EC4000C9C83F020000000000000000D5C83F0214
:10EC500009C93F02A1E63F0249E83F020000000067
:10EC60000000000017D73F020DD73F0203D73F0235
:10EC7000F9D63F02EDD63F02E1D63F0211F03F0246
:10EC800019F03F02D5D63F02CDD63F02C3D63F0290
:10EC9000B9D63F0241F13F0249F03F0251F03F0235
:10ECA000000000000000000065D93F0267D93F0264
:10ECB00025D93F0297F13F02626175640053657286
:10ECC00069616C0053657269616C31004A534F4E43
:10ECD00053747265616D4C6F6748616E646C6572E8
:10ECE0000061707000253031307520005D200025F6
:10ECF00064002C200028293A2000205B00636F6408
:10ED000065203D200025690064657461696C73208D
:10ED10003D20000D0A006D0066006C6E00666E00FE
:10ED20007400636F64650064657461696C00000061
:10ED3000000000000000000029DF3F0241DF3F0229
:10ED4000A1E63F0249E83F02000000000000000089
:10ED500055DF3F0269DF3F0281E83F02A9DA3F0247
:10ED60000000000000000000BBDA3F02E1DA3F02D1
:10ED700005E63F02ABDA3F020000000000000000A1
:10ED8000B9DA3F02EFDA3F0291DE3F0211DB3F02C8
:10ED900025592D256D2D25645425483A254D3A25B4
:10EDA00053257A0061736374696D6500000000008B
:10EDB0000000000075EB3F0265EB3F0267EB3F028E
:10EDC00000000000000000005BEC3F02C3EC3F02CB
:10EDD00099EC3F0239D93F028BEC3F025DEC3F02D8
:10EDE0006DEC3F02BDEC3F027FDA3F027DEC3F025B
:10EDF00055EC3F02000000000000000061ED3F0202
:10EE0000CDED3F02A5ED3F0239D93F0275ED3F023E
:10EE100091ED3F0283ED3F029FED3F027FDA3F021B
:10EE200063ED3F0267ED3F020000000000000000BC
:10EE30001FEE3F0269EE3F0241EE3F0221EE3F022C
:10EE400049EE3F0251EE3F0259EE3F0261EE3F02B2
:10EE50007FDA3F020000000000000000B3EF3F0235
:10EE6000A9EF3F029FEF3F0255EF3F0293EF3F02B2
:10EE700087EF3F0211F03F0219F03F027BEF3F02A4
:10EE800073EF3F0269EF3F025FEF3F0241F13F0244
:10EE900049F03F0251F03F024CAE0710E8AE0710B8
:10EEA000F0AE07100000000000000000D1EF3F02AC
:10EEB000DBEF3F02E5EF3F02EFEF3F02F9EF3F02EA
:10EEC00005F03F0211F03F0219F03F0221F03F022E
:10EED0002DF03F0235F03F023FF03F0241F13F028B
:10EEE00049F03F0251F03F02257500752530347816
:10EEF00000005245454E54206D616C6C6F63207369
:10EF00007563636565646564002F6D6E742F776F3C
:10EF1000726B73706163652F776F726B737061636F
:10EF2000652F4743432D31302D706970656C696ED4
:10EF3000652F6A656E6B696E732D4743432D3130C3
:10EF40002D706970656C696E652D34385F323032B2
:10EF500030313132345F3136303631383036343159
:10EF60002F7372632F6E65776C69622F6E65776C95
:10EF700069622F6C6962632F7374646C69622F72AB
:10EF8000616E642E6300002020202020202020209D
:10EF90002828282828202020202020202020202049
:10EFA0002020202020202088101010101010101079
:10EFB00010101010101010040404040404040404BD
:10EFC0000410101010101010414141414141010145
:10EFD0000101010101010101010101010101010121
:10EFE000010110101010101042424242424202022F
:10EFF00002020202020202020202020202020202F1
:10F00000020210101010200000000000000000009C
:10F0100000000000000000000000000000000000F0
:10F0200000000000000000000000000000000000E0
:10F0300000000000000000000000000000000000D0
:10F0400000000000000000000000000000000000C0
:10F0500000000000000000000000000000000000B0
:10F0600000000000000000000000000000000000A0
:10F070000000000000000000000000000000000090
:10F08000000000000000000075CB3F0221D73F02C6
:10F0900089D73F0215D93F0291E63F02F5E93F02C9
:10F0A00009EA3F0239EF3F02BDEF3F0255F13F024F
:10F0B00000000002B0FC3F02C8FC3F02ECFC3F0233
:10F0C00078AD071000000000000000000000000004
:10F0D0000000000000000000000000000000000030
:10F0E0000000000000000000000000000000000020
:10F0F0000000000000000000000000000000000010
:10F1000000000000000000000000000000000000FF
:10F1100000000000000000000000000000000000EF
:08F1200000000000F8AF071029
:04F1280000000000E3
:10FFBE000200100000B05F08A8B05F08F0BF3F025B
:10FFCE0001000A00FFFFFFFFFFFF00000102030414
:10FFDE0005060708090A0B0C0D0E0F10111213144B
:0EFFEE0015161718191A1B1C1D1E1F203E0089
:04FFFC0078563412ED
:04000005085FB018C8
:00000001FF
