:02000004085F93
:10C0000000C05F08FCFF5F0800000600200005017B
:08C0100004010D1700000000FF
:10C018001348144908B5884205D0134A824202D011
:10C02800124B121A98471248124A0021124B121A40
:10C03800984712481249884205D0124A824202D0D3
:10C048000A4B121A984710481049884205D0104ADE
:10C05800824202D0054B121A9847014808BD00BF1A
:10C0680090AC071098F95F0804AD07102D0D11105A
:10C0780004AD0710FCAF0710A10E111008C73F024E
:10C08800A8C05F0810C73F0210C73F02B0C05F08D2
:0CC09800F8FF3F0219C05F080000000024
:08C0A8009CC05F08E8F63F02AE
:10C0B00010F8012B11F8013B012A28BF9A42F7D052
:10C0C000D01A7047034613F8012B002AFBD1181A27
:10C0D0000138704770B501F0D9FD0025054E064CBA
:10C0E000A41BA408AC4200D170BD56F8043B98478D
:10C0F0000135F7E7D0FF3F02F8FF3F0200F030B80C
:10C1000008B500F013F9BDE8084001F077BD01F073
:10C1100025BB01F023BB01F02FBB00000C2008B5AC
:10C12000024A034901F0E6F9FEE700BF15D63F02D7
:10C13000F8F63F020078B0FA80F04009704701231A
:10C14000037070470EB403B503AB53F8042B002102
:10C15000019301F098FC02B05DF804EB03B0704766
:10C1600013B501F0B1FE4FF4165101F0A1FE2848BD
:10C1700000F00CFA5021264800F0A5FB3A233822A3
:10C18000009301213923224800F070FB3823362226
:10C19000002100931E48372300F068FB1C481D4C0B
:10C1A00000F05AFA02F070FC1B4B2068197800F07E
:10C1B00047FF02F069FC194B20681978013000F044
:10C1C0003FFF02F061FC164B20681978023000F046
:10C1D00037FF02F059FC206800F024FF114B187063
:10C1E00002F052FC2068013000F01CFF0E4B18706A
:10C1F00002F04AFC2068023000F014FF0B4B0C499F
:10C2000018700C4802B0BDE8104000F0C9BC00BF77
:10C210005CAE071094AC071074AE071080AD071029
:10C220003CAD071075AE071081AD07103DAD07108E
:10C2300048AD071088AD0710F8B504460F461D46F7
:10C240001646044800F066FB23143B70231233703B
:10C250002C70F8BD5CAE07102DE9F041184800F0D5
:10C260005EFB58BB01F030FE164901F0D1FB144EC5
:10C27000DFF85C80144F124800F0C8FD0446C0B1DE
:10C2800001F022FE21460546304600F067FC41469B
:10C2900002462846FFF756FF01F016FE3946FFF723
:10C2A00051FF304600F068FC41F2883001F058FC44
:10C2B000E1E701F009FE0549FFF744FFBDE8F08121
:10C2C00088AD07100DF73F0233F73F025DF73F02DD
:10C2D00024F73F0238B500F089FE0F4D00242B688B
:10C2E000C01A0E4B984215D901F0EEFD0C49FFF72C
:10C2F00029FF01210B4800F0E7FC044638B901F0A2
:10C30000E3FD0949FFF71EFF064800F035FC00F089
:10C310006DFE2860204638BD38AD0710C0D401003E
:10C320006EF73F0288AD07107DF73F022DE9F74316
:10C33000FFF792FFFFF7CEFF334800F0EBFADFF88C
:10C340000081324D6421404600F045FC002857D062
:10C35000A842F7D101F0B8FD6A1D2D49FFF7F2FEA2
:10C360002C4CD5F80630DFF8DC9023606B892A4F1F
:10C37000A38001F0A9FD22462849FFF7E3FE102221
:10C380000021204602F00EFE254C264E206001F0D2
:10C390009BFD22682449FFF7D5FE4B463A463146BD
:10C3A0002068FFF749FF01F08FFD99F800301F4921
:10C3B00000933B781E4F3278FFF7C4FE01F084FDF6
:10C3C0003B781C4E1C4C0093337822781B49FFF7B6
:10C3D000B9FE3B7800210093337822780A4800F0B8
:10C3E00045FA094800F038F93B7801210093337889
:10C3F0002278054800F03AFA034800F02DF9A1E749
:10C4000003B0BDE8F08300BF5CAE071048AD071075
:10C410008DF73F023EAD071080AD0710AAF73F022F
:10C4200044AD071074AE0710B7F73F02C8F73F02DC
:10C430003DAD071081AD071075AE0710EAF73F025A
:10C4400088AD07103CAD071037B502F01DFB00F0BA
:10C4500005FE1F4D1F4B80B21860284602F0BAF847
:10C460001D4C1E4B40F25B72009320461C4B1D4935
:10C4700000F0F0FA1C4B21462360C4F8D050002392
:10C480001A4A1B4800F019FD1A4CD4E88F3FDB070D
:10C490000AD42046FFF74EFE30B10121164801F0C4
:10C4A000F5F92046FFF74BFE0223134A19461348BD
:10C4B00000F05DF800220120114BC3E90022A2F533
:10C4C00080329A6003B0BDE8304001F03DB800BF53
:10C4D0001CAD071084AD071088AD07102DF83F0282
:10C4E00016F83F021DF83F02C8F83F024EF83F021F
:10C4F00048AD071004AD071008AD07105CAE07107B
:10C5000010AD07100EB44FF0200C002300B58CB016
:10C510000DAA52F8041BCDE904C3CDE90012039221
:10C52000016804AA322001F001F80CB05DF804EBB8
:10C5300003B0704738B50446C0680D4608B101F035
:10C540001BF9A379062B0CBF0420032010FB05F078
:10C5500080B2A08001F002F9E06028B10021A28839
:10C5600002F029FC658038BDA0806080FBE770B5D3
:10C57000002504461646C0E903550570837105720F
:10C58000FFF7D8FF2046666170BD00002DE9F74F28
:10C5900083790446022B4ED143691B78012B06D9BF
:10C5A00029492A48FFF7AEFF03B0BDE8F08F002B02
:10C5B0000CBF4FF011094FF0040948460CBF10277B
:10C5C000032702F025F90646384602F021F9012E2C
:10C5D000054633D1484602F085F98246012D30D117
:10C5E000384602F07FF980464FF0010B184B606926
:10C5F000CDE9003BFF226B460021007800F0E0FE11
:10C600005A461449606901F067F93146484602F01C
:10C610003FF92946384602F03BF95E4504D14846C9
:10C620005FFA8AF102F045F9012D04D138465FFA2C
:10C6300088F102F03EF901232370B5E74FF0000ABC
:10C64000CCE74FF00008CFE762F83F0294AE071046
:10C6500008000A0008AF2F00C368002B00F0FC8020
:10C6600070B583790446022B82B040F0EF80868853
:10C6700006EB4606F036304601F070F80546002815
:10C6800000F0EB803246002102F095FB6288002A20
:10C6900000F0C780AC4602EBC202E1682A4491F97F
:10C6A00000300878002BB5BF4FF0D00E4FF0900E41
:10C6B000D823982310F0400F08BF734610F0200FC6
:10C6C00014BF0320022003448CF8783008780CF162
:10C6D000090C00F01003002B15BF4FF0690E4FF04E
:10C6E000490E6D234D2310F0080F08BF73468CF8D8
:10C6F00070300B78033113F0020F14BF302020206C
:10C7000013F0010F0CBF4FF0040E4FF0060E5B014B
:10C7100003F08003034473448CF8713011F9020C68
:10C7200011F8023C0028B5BF4FF0D00E4FF0900E2C
:10C73000D820982013F0400F08BF704613F0200F48
:10C7400014BF0323022303448CF8723011F8020C47
:10C7500000F01003002B15BF4FF0690E4FF0490E8B
:10C760006D234D2310F0080F08BF73468CF873300B
:10C7700011F802EC1EF0020F14BF302020201EF032
:10C78000010F14BF062304234FEA4E1E0EF0800E45
:10C7900086449E448CF874E011F9013C11F8010CB8
:10C7A000002BB5BF4FF0D00E4FF0900ED82398233A
:10C7B00010F0400F08BF734610F0200F14BF032085
:10C7C000022003448CF8753011F8010C00F01003BE
:10C7D000002B15BF4FF0690E4FF0490E6D234D230E
:10C7E00010F0080F08BF73468CF8763011F8010C72
:10C7F00010F0020F14BF4FF0300E4FF0200E430127
:10C8000003F080037344DBB2C00703F1060E03F1AB
:10C8100004034CBF8CF877E08CF8773094457FF4B4
:10C820003EAF606901F03CF800223346294660695A
:10C83000009201F083F8606901F035F8284600F0B5
:10C840009BFF00F0C5FB206102B070BD04490548A4
:10C85000FFF758FE02B070BD70470349F7E700BF0D
:10C8600084F83F0294AE0710A0F83F0270B54488E8
:10C870009DF810508C4222D9047A44B112FB04F284
:10C8800014FB03F314FB05F4120A1B0A250AC668FD
:10C89000807901EB410102387418062810D8DFE8CE
:10C8A00000F0040F08040F04040073546270A570B4
:10C8B00005E0FE2A28BFFE2272546570A37070BD89
:10C8C00072546370F3E7037A4A1CD2B2934270B594
:10C8D0001FD0013B13F0FF03C4680CD0FF290FBF2A
:10C8E0004FF6FF71110201F1FF31B1FBF3F30CBF01
:10C8F000B1FBF3F39BB225468688291B89B28E4291
:10C9000006D929785943C1F3072105F8011BF3E73C
:10C91000027270BD82880021C06802F04CBA08B56E
:10C92000D0F8D00003685B6B9847003818BF01202F
:10C9300008BDF8B506460F461446C4B1D6F8D00077
:10C9400003685B6B984708B90020F8BDFA2C2546B0
:10C95000A8BFFA25D6F8D0002A4603683946DB6816
:10C96000984783B2E41A9D42A4B2E6D0ECE70120D6
:10C97000EBE770472DE9F8430646884691461F4687
:10C980001D460024D6F8D00003685B6B9847D0B1F1
:10C99000002D18DBD6F8D00003681B69984760B1FA
:10C9A000D6F8D00003685B69984708F804000134A2
:10C9B000A4B24C4507D03D46ECE70A200A3D2DB213
:10C9C00001F0CEF8DEE72046BDE8F88370B50446F6
:10C9D00000F1220596220021284602F0ECF9616858
:10C9E000284602F01FFAD4F8D000294603682289AD
:10C9F0009E6A0023B047003818BF012070BD10B5F3
:10CA00000446D421FFF787FB204610BD10B504462D
:10CA1000D0F8D00003685B6B984720B1D4F8D00001
:10CA200003681B6B9847012010BD13B504460846E8
:10CA30000191FFF747FBC0F3072323706070A31C2D
:10CA400084B222461846019902F016FA204402B038
:10CA500010BD000002810B4A30B5C0E90323039BDF
:10CA6000094D43610023C0E90051C0E92F33C0E9FB
:10CA70003133C0E90633C0F8CC300384A0F8B830B5
:10CA800030BD00BF7CF73F02CCFA3F022DE9F74FE3
:10CA9000164602681BB297690193012205460C46AF
:10CAA000B847C7B2012F019B03D0002003B0BDE8F7
:10CAB000F08F4FF0000904F1010804F1050A2A681B
:10CAC0004146D2F818B0284601220193D847C0B297
:10CAD0000128EAD118F8012B02F07F01C24501FBC1
:10CAE00007994FEAC717E0D012F0800F019BE6D1FB
:10CAF000A8EB0404A7B2341B2A68013C4C45D2F8C9
:10CB000018A03CBF06F1FF32D21B4146284634BF75
:10CB100092B21FFA89F2D047C0B2384480B2C5E75A
:10CB20002DE9F04105460C4616461F46DFF82880E1
:10CB30003B46962221462846FFF7A8FF48B12378B6
:10CB4000B6EB131F05D001F0BFF9414600F073FFAB
:10CB5000EEE7BDE8F08100BFE4F83F020231C9B260
:10CB600009299ABF024B53F821000248704700BFC1
:10CB7000E8FA3F02F5F83F02E02310B580F82230D2
:10CB800000230146044680F8233051F8223B02225C
:10CB90005B69984723682046BDE810401B69184729
:10CBA00000F1BC02134630B500F1D00453F8045B29
:10CBB0008D4209D0A342F9D1002352F8044B2CB97D
:10CBC00000EB8300C0F8BC10012003E00133052B0B
:10CBD000F3D1002030BD2DE9F04F00F122098BB2D6
:10CBE0009622494685B00546FFF750FF0646F0B14C
:10CBF0004FF0000895F8257005F1BC0A009705F183
:10CC0000260B5AF8044B6CB1216808460191FFF7D6
:10CC100059FAB84206D13A465846019902F00AF943
:10CC2000002847D008F10108B8F1050FE9D100202C
:10CC30003DE0EA1992F8260092F827A04AEA002A75
:10CC400014220021601D02F0B6F8009B05EB880855
:10CC5000C3F57F44FC342644A6EB0B06B6B2152E72
:10CC600028BF1326D8F8BC00391D59443246494420
:10CC7000053002F086F8D8F8BC305E8395F8223093
:10CC800003F00603022B10D140228DF80D304FEA3D
:10CC90001A238DF80E302B688DF80C2028460422BC
:10CCA0005B698DF80FA003A99847D8F8BC0005B0C0
:10CCB000BDE8F08F95F822B00BF0060BBBF1020F28
:10CCC000B7D082468346BBE72DE9F84304460D46BC
:10CCD0004FF000084FF0C00900F12207E5B12368CA
:10CCE00084F8229084F823800222394620465B692A
:10CCF0009847064668B14FF4FA730D22394620462C
:10CD0000FFF70EFF94F82230D02B02D13046BDE859
:10CD1000F883013DEDB2E1E72E46F7E738B5102381
:10CD2000054608460C4600F8023B2949FFF77DFE00
:10CD30000423037002234370AB698BB11B787BB172
:10CD40000623437095F82030012B39D10E23437010
:10CD500095F82130012B02BF437843F02003437044
:10CD60002B691B781BB1437863F07F0343706B69B9
:10CD70001B781BB1437843F0400343700123837059
:10CD80002C23C370E9680B78F3B10430FFF74DFE34
:10CD9000A96931B10B7823B1FFF747FEE969FFF7C5
:10CDA00044FE29690B780BB1FFF73FFE69690B78E8
:10CDB0000BB1FFF73AFE001BC0B2831E637038BD93
:10CDC000022BC5D11E23C2E7037143710630DFE792
:10CDD00003F93F0238B51D4682230C460B70B0F8AC
:10CDE000B8301B0A8B70B0F8B830CB70B0F8B830E0
:10CDF00011460133A0F8B830201DFFF716FE00F8E9
:10CE0000015B001BC0B2831E637038BD2DE9F04189
:10CE100003680446DB68984700284BD004F12205DC
:10CE200029462046FFF77AFF236882B2294620462A
:10CE30005B69984700283DD041F2707396222946DD
:10CE40002046FFF723FEC0B2042833D1638CB3F52C
:10CE5000087F2FD194F8250010B140B2BDE8F081D1
:10CE600004F1BC0704F1D00857F8043BF3B10326E2
:10CE700057F8042C2946137920461268FFF7AAFFB9
:10CE8000236882B2294620465B69984790B14FF4E7
:10CE9000FA73092229462046FFF742FE30B9013EC7
:10CEA00016F0FF06E4D16FF00100D7E7B845DBD1FB
:10CEB0000020D3E74FF0FF30D0E70371002310B517
:10CEC000C0E90833C0E90A33416302604383C361A8
:10CED000036310BD09B504480068044B03441B6894
:10CEE0009B68029309BD000090AC07105000000041
:10CEF00009B504480068044B03441B68DB680293CF
:10CF000009BD000090AC07105000000009B50448AE
:10CF10000068044B03441B689B68029309BD000032
:10CF200090AC07101400000009B504480068044BD9
:10CF300003441B68DB68029309BD000090AC071036
:10CF40001400000009B504480068044B03441B6842
:10CF50001B69029309BD000090AC0710140000008B
:10CF600009B504480068044B03441B685B690293DD
:10CF700009BD000090AC07101400000009B504487A
:10CF80000068044B03441B685B69029309BD000001
:10CF900090AC07105400000009B504480068044B29
:10CFA00003441B685B68029309BD000090AC071046
:10CFB0000000000009B504480068044B03441B68E6
:10CFC000DB68029309BD000090AC07100000000070
:10CFD00009B504480068044B03441B681B690293AD
:10CFE00009BD000090AC07100000000009B504481E
:10CFF0000068044B03441B685B69029309BD000091
:10D0000090AC07100000000009B504480068044B0C
:10D0100003441B689B6A029309BD000090AC071093
:10D020000000000009B504480068044B03441B6875
:10D03000DB6A029309BD000090AC071000000000FD
:10D0400009B504480068044B03441B681B6B02933A
:10D0500009BD000090AC07100000000009B50448AD
:10D060000068044B03441B685B6B029309BD00001E
:10D0700090AC07100000000009B504480068044B9C
:10D0800003441B685B6C029309BD000090AC071061
:10D090003000000009B504480068044B03441B68D5
:10D0A0005B69029309BD000090AC07104C000000C2
:10D0B00009B504480068044B03441B681B6A0293CB
:10D0C00009BD000090AC07104C00000009B50448F1
:10D0D0000068044B03441B689B6A029309BD00006F
:10D0E00090AC07104C00000009B504480068044BE0
:10D0F00003441B68DB68029309BD000090AC071075
:10D100002400000009B504480068044B03441B6870
:10D110001B69029309BD000090AC071024000000B9
:10D1200009B504480068044B03441B685B6902931B
:10D1300009BD000090AC07102400000009B50448A8
:10D140000068044B03441B689B69029309BD0000FF
:10D1500090AC07102400000009B504480068044B97
:10D1600003441B68DB69029309BD000090AC071003
:10D170002400000009B504480068044B03441B6800
:10D180001B6A029309BD000090AC07102400000048
:10D1900009B504480068044B03441B689B6A02936A
:10D1A00009BD000090AC07102400000009B5044838
:10D1B0000068044B03441B681B6C029309BD00000C
:10D1C00090AC07102400000009B504480068044B27
:10D1D00003441B681B6A029309BD000090AC071052
:10D1E0001000000009B504480068044B03441B68A4
:10D1F0005B6A029309BD000090AC071010000000AC
:10D2000009B504480068044B03441B689B6A0293F9
:10D2100009BD000090AC07101000000009B50448DB
:10D220000068044B03441B68DB6A029309BD0000DD
:10D2300090AC07101000000009B504480068044BCA
:10D2400003441B681B6B029309BD000090AC0710E0
:10D250001000000009B504480068044B03441B6833
:10D260005B6B029309BD000090AC0710100000003A
:10D2700009B504480068044B03441B681B6C029307
:10D2800009BD000090AC07101000000009B504486B
:10D290000068044B03441B689B69029309BD0000AE
:10D2A00090AC07102000000009B504480068044B4A
:10D2B00003441B68DB69029309BD000090AC0710B2
:10D2C0002000000009B504480068044B03441B68B3
:10D2D0001B6A029309BD000090AC071020000000FB
:10D2E00009B504480068044B03441B689B6A029319
:10D2F00009BD000090AC07102000000009B50448EB
:10D300000068044B03441B681B6B029309BD0000BB
:10D3100090AC07102000000009B504480068044BD9
:10D3200003441B689B6B029309BD000090AC07107F
:10D330002000000009B504480068044B03441B6842
:10D340001B69029309BD000090AC07101800000093
:10D3500009B504480068044B03441B68DB69029369
:10D3600009BD000090AC07101800000009B5044882
:10D370000068044B03441B681B6A029309BD00004C
:10D3800090AC07101800000009B504480068044B71
:10D3900003441B685B6A029309BD000090AC071050
:10D3A0001800000009B504480068044B03441B68DA
:10D3B0009B6A029309BD000090AC071018000000A2
:10D3C00009B504480068044B03441B68DB6A0293F8
:10D3D00009BD000090AC07101800000009B5044812
:10D3E0000068044B03441B689B6B029309BD00005B
:10D3F00090AC07101800000009B504480068044B01
:10D4000003441B681B6C029309BD000090AC07101D
:10D410001800000009B504480068044B03441B6869
:10D420005B6C029309BD000090AC0710180000006F
:10D4300009B504480068044B03441B681B68029349
:10D4400009BD000090AC07103400000009B5044885
:10D450000068044B03441B685B68029309BD00002D
:10D4600090AC07103400000009B504480068044B74
:10D4700003441B681B69029309BD000090AC0710B0
:10D480003400000009B504480068044B03441B68DD
:10D490005B69029309BD000090AC071034000000E6
:10D4A00009B504480068044B03441B689B69029358
:10D4B00009BD000090AC07103400000009B5044815
:10D4C0000068044B03441B68DB69029309BD00003C
:10D4D00090AC07103400000009B504480068044B04
:10D4E00003441B681B6A029309BD000090AC07103F
:10D4F0003400000009B504480068044B03441B686D
:10D500005B6B029309BD000090AC0710480000005F
:10D5100009B504480068044B03441B681B6D029363
:10D5200009BD000090AC07104800000009B5044890
:10D530000068044B03441B685B6D029309BD000047
:10D5400090AC07104800000009B504480068044B7F
:10D5500003441B685B68029309BD000090AC071090
:10D560000800000009B504480068044B03441B6828
:10D570005B69029309BD000090AC07100800000031
:10D5800009B504480068044B03441B68D3F888308D
:10D59000029309BD90AC07100800000009B50448CB
:10D5A0000068044B03441B68D3F89430029309BD10
:10D5B00090AC07100800000009B504480068044B4F
:10D5C00003441B685B68029309BD000090AC071020
:10D5D0002800000009B504480068044B03441B6898
:10D5E0009B68029309BD000090AC07102800000062
:10D5F00009B504480068044B03441B68DB680293C8
:10D6000009BD000090AC07102800000009B50448CF
:10D610000068044B03441B681B69029309BD0000AA
:10D6200090AC07102800000009B504480068044BBE
:10D6300003441B685B69029309BD000090AC0710AE
:10D640002800000009B504480068044B03441B6827
:10D650009B69029309BD000090AC071028000000F0
:10D6600009B504480068044B03441B68DB69029356
:10D6700009BD000090AC07102800000009B504485F
:10D680000068044B03441B681B6A029309BD000039
:10D6900090AC07102800000009B504480068044B4E
:10D6A00003441B681B6B029309BD000090AC07107C
:10D6B0002800000009B504480068044B03441B68B7
:10D6C0005B6B029309BD000090AC071028000000BE
:10D6D00009B504480068044B03441B681B6C0293A3
:10D6E00009BD000090AC07102800000009B50448EF
:10D6F0000068044B03441B685B6C029309BD000087
:10D7000090AC07102800000009B504480068044BDD
:10D7100003441B685B6D029309BD000090AC0710C9
:10D720002800000009B504480068044B03441B6846
:10D730009B6D029309BD000090AC0710280000000B
:10D7400009B504480068044B03441B68DB6B029373
:10D7500009BD000090AC07102C00000009B504487A
:10D760000068044B03441B681B68029309BD00005A
:10D7700090AC07100400000009B504480068044B91
:10D7800003441B685B68029309BD000090AC07105E
:10D790000400000009B504480068044B03441B68FA
:10D7A0005B6A029309BD000090AC07100400000002
:10D7B00009B504480068044B03441B68DB6B029303
:10D7C00009BD000090AC07100400000009B5044832
:10D7D0000068044B03441B681B6C029309BD0000E6
:10D7E00090AC07100400000009B504480068044B21
:10D7F00003441B685B6C029309BD000090AC0710EA
:10D8000004000000002240681146FFF737BF0022E5
:10D8100040681146FFF74EBF00224068FFF73CBF4B
:10D820000022406881F00101FFF71ABF0023406821
:10D830001A461946FFF706BF002340681A461946E4
:10D84000FFF7F2BE002240681146FFF7DFBE00225C
:10D8500040681146FFF7BEBE002202214068FFF774
:10D86000C7BE002340681A46FFF7A6BE0322024B3C
:10D870005A60024A1A60704778AE071018FB3F02E0
:10D880000021FFF7C7BD0021FFF7B6BD10B5044664
:10D8900008462170FFF75CFD00232046636010BD41
:10D8A0000078FFF7F0BF0078FFF7EABF30B500243B
:10D8B000400818601868E5B2884206D90134082C7F
:10D8C00002D040081860F5E70725024B5B5D137036
:10D8D00030BD00BF54FB3F0200232DE9F041044658
:10D8E00088B000780E4617460293FFF7CCFF054636
:10D8F00000BB0146142203A894F8008001F05BFAF3
:10D900000B232A46404603A9ADF80C30FFF73CFD37
:10D9100007FB06F1049802AB0DF107028DF80750E2
:10D92000FFF7C4FF20789DF80710FFF703FD20786C
:10D93000FFF7A6FF029808B0BDE8F08130B587B0C8
:10D940000A9D044600950078FFF72CFD3DB920782C
:10D9500002A9FFF743FD9DF81430DB07F7D407B0A9
:10D9600030BD000002220020044B1A60044B054A1F
:10D97000C3E900009A60FFF7E7BD00BF8CAE071057
:10D9800080AE07100000FFFF10B543680446013B5E
:10D99000436063B903689B689847A368013BA36031
:10D9A0002BB923682046BDE81040DB68184710BD3E
:10D9B000002302480360FFF75FBB00BF90AE071073
:10D9C000F8B506460D4600248F18BD420CD03368CA
:10D9D00030469B6815F8011B9847031E01DB1C4469
:10D9E000F3E7002C08BF1C462046F8BD13B50446DB
:10D9F000084659B10191FEF765FB024620462368AF
:10DA00000199DB6802B0BDE81040184702B010BDB4
:10DA100008B5FFF7EBFF08BD03689B68184738B5EA
:10DA20000D210546FFF7F8FF0A2104462846FFF7B7
:10DA3000F3FF204438BD38B50546FFF7D7FF04464D
:10DA40002846FFF7ECFF204438BD0023012A98BF89
:10DA50000A2230B58BB08DF8243009AC0D46B1FBED
:10DA6000F2F101FB125303F0FF03092B94BF303393
:10DA70003733DBB2AA4204F8013DEFD92146FFF764
:10DA8000B5FF0BB030BD2DE9F04186B000AF0546C3
:10DA90000E46381D142114463B60FFF77BFE132809
:10DAA0000ED82846391DFFF7A1FF04461EB12846AF
:10DAB000FFF7B5FF044420461837BD46BDE8F081A6
:10DAC00000F1080323F00703E846ADEB030D2246FF
:10DAD000411C3B686846FFF75DFE69462846FFF734
:10DAE00085FF0446C546E1E710B50446FFF77EFA18
:10DAF000E060236820465B699847002808DAFFF752
:10DB000075FAE368C01AA3689842F2D34FF0FF3069
:10DB100010BD2DE9F04107460C460D468E18B54262
:10DB2000A5EB040807D03846FFF7DEFF031E02DB33
:10DB300005F8013BF3E74046BDE8F081014B024A9E
:10DB40001A60704794AE071064FB3F02024B1A68DC
:10DB5000024B1A60704700BF98AC071098AE0710D0
:10DB60000021FFF7FFBC000010B5044B0446036022
:10DB7000806908B1FFF708FF204610BD68FC3F022E
:10DB800010B50446FFF7F0FF20461C21FEF7C3FA4C
:10DB9000204610BD0022014B9A6070479CAE0710D2
:10DBA000014B1860704700BF9CAC071008B50F4BC5
:10DBB00043B100F089F903681B699847002801DD2B
:10DBC00000E000BF0A4B43B100F0CEFE03681B69C2
:10DBD0009847002801DD00E000BF064B0BB100F0C4
:10DBE00009FF054B0BB100F03BFF08BD0000000032
:10DBF00000000000000000000000000008B5FFF772
:10DC0000D5FFFFF7F3F9014B186008BD44AF0710CB
:10DC10000548064A08B5121A054901F0A5F8054B52
:10DC2000054A1A6008BD00BF00B4071004B407100D
:10DC30000CFA5F0800B407101E1C279A002307B5D2
:10DC40001A466FF077010093FFF7A8FC03B05DF868
:10DC500004FB000007B543880A2B08D0502B0BD1DA
:10DC6000094B1B684BB103B05DF804EB1847FFF795
:10DC7000E5FF03B05DF804FB00231A466FF077015F
:10DC80000093FFF78BFCF4E7B0AE0710002110B54E
:10DC90001148FFF7A9FD114B1A68114B9A420CBFAE
:10DCA000012200220F4B1A7001D0FFF7B1FFFFF7DE
:10DCB00073F9044601F088F80B4B13B1204600E0DD
:10DCC00000BF00210848FFF73BFDBDE810400021E0
:10DCD0000648FFF755BC00BF01E23F0200B4071041
:10DCE0001E1C279AACAE071000000000B5E23F02F0
:10DCF000704710B504461821FEF70DFA204610BDF6
:10DD0000F0B5037D0E46062B4FF000048DB000F1F8
:10DD1000040712D000F1080515F8011D0A2230464B
:10DD2000FFF793FEAF42044419D0002CF4D02E210B
:10DD30003046FFF771FE0444EEE72F236A4639466A
:10DD40000A208DF80040FFF7A5F96846FEF7BAF9FA
:10DD50003368024669463046DB68984704462046E9
:10DD60000DB0F0BD10B50446044B1122002140F85F
:10DD7000043B01F020F8204610BD00BF8CFB3F02A1
:10DD80000346074A10B543F8042B01F1100251F87D
:10DD9000044B914243F8044BF9D10A781A7010BD34
:10DDA0008CFB3F02037D042B04D14068003818BF70
:10DDB00001207047062B07D143683BB983682BB914
:10DDC000C3681BB90069F1E7002070470120704764
:10DDD00010B59DF8084044EA032343EA02420423B5
:10DDE00042EA01614160037510BD000007B5064BB2
:10DDF0000360CB7800938B784A780978FFF7E8FFC7
:10DE000003B05DF804FB00BF8CFB3F024174704718
:10DE10007047704708B50021007CFFF741FB40EADE
:10DE2000E07008BD08B50121007CFFF739FB40EA2E
:10DE3000E07008BD08B5007CFFF724FB20EAE07025
:10DE400008BD08B5007CFFF70FFB20EAE07008BDB5
:10DE500013B50446007C0191FFF714FB00280199DB
:10DE600001DC607C20B1207CFFF728FB20EAE07019
:10DE700002B010BD007CFFF72FBB10B50446142183
:10DE8000FEF749F9204610BD10B54FF47A730446E9
:10DE900008460021C4E90113044B207423600123C8
:10DEA00011466374FFF7C4FA204610BDA0FB3F0281
:10DEB0000022007CFFF7CABA10B5044614220021E4
:10DEC00000F079FF204610BD10B588B003A8FFF719
:10DED000F3FF0C4CD4E88F1F11F001010FD1204645
:10DEE0000191FEF727F9019948B103AA0648FFF707
:10DEF000CBFF2046FEF723F9044800F02FFF02482D
:10DF000008B010BDB4AE0710B8AE071071E43F0200
:10DF100070474174704708B5007CFFF739F920EA73
:10DF2000E07008BD08B5007CFFF7ECF820EAE0706F
:10DF300008BD08B5007CFFF701F940EAE07008BDB4
:10DF400008B5007CFFF7ECF840EAE07008BD007C03
:10DF5000FFF702B937B5457C04462DB1207C03B0EC
:10DF6000BDE83040FFF7C0B8007C0191FFF710F921
:10DF700000280199F2DC284603B030BD10B50446F4
:10DF80001421FEF7C8F8204610BD000010B54FF46C
:10DF90007A730446084611460022C4E90123044B63
:10DFA0002074236001236374FFF700F9204610BD3D
:10DFB000D4FB3F02007CFFF7DDB87047F8B506469A
:10DFC00015460C468F18BC4206D0336830469B6815
:10DFD00014F8011B9847F6E72846F8BD0022007C9C
:10DFE000FFF7F2B80021007CFFF7FCB80021007CAD
:10DFF000FFF706B90021007CFFF710B90021007C73
:10E00000FFF71AB910B504461421FEF784F820462C
:10E0100010BD000038B5044615464FF47A7300224F
:10E02000C4E90123094B0846217423602946FFF700
:10E030001FF9BF3008D16B69DB0705D56868FFF7AA
:10E040009BFBE868FFF798FB204638BD08FC3F02C1
:10E05000FF210022044B0120C3E9001264211A6150
:10E06000C3E90201704700BFCCAE071013B50368C7
:10E070008DF807101C6C01224FF0FF330DF10701E2
:10E08000A04702B010BD10B403681C6C4FF0FF3302
:10E09000A4465DF8044B604713B5134602688DF83B
:10E0A0000710146C0DF107010122A04702B010BD4A
:10E0B00010B543690446B3F88620B3F884309A4219
:10E0C00008D06369B3F88420511CA3F8841013446A
:10E0D000187910BD03681B6998470028F1D14FF0EB
:10E0E000FF30F6E7704743691868C043C00F7047B8
:10E0F00070470000064B10B5994200F10C0405D0A2
:10E10000084600F019FD002808BF0024204610BD75
:10E110005CFB3F0210B50446AC21FDF7FCFF204636
:10E1200010BDAC21FDF7F7BF2DE9F0414FF000081D
:10E130001C4686B0C0F8048005460E461746414688
:10E14000102202A800F037FE631C09D04FF47A7346
:10E15000B4FBF3F203FB12445C43CDE902280494C0
:10E1600010236869009341F2050240F6FF710068D0
:10E1700002ABFFF78BF8002807DAFFF719FB0368FB
:10E1800000206B6006B0BDE8F081686900233A4664
:10E1900031460068FFF7B2F8031EEEDB1846F1E7E0
:10E1A00030B5044687B06846FFF720FE01AD043461
:10E1B0000FCD0FC42B68237007B030BD70B5044677
:10E1C00006464D69044B8C3544F8043B0FCD0FC413
:10E1D0002B683046237070BD8CFB3F022DE9F04365
:10E1E0000D4600249846036893B01B6B06461746FD
:10E1F000984728466B46224621460094FEF778FE53
:10E200000546002863D1009B002B4BD05B69002B97
:10E2100048D006A8FFF7A6FD009B5C696378022B37
:10E2200004D1211D06A8FFF7BBFF26E00A2B24D14D
:10E230001122294601A800F0BEFDA368002B38D0AA
:10E2400004F108030DF1040C18346246186859688B
:10E25000083303C2A3429446F7D1062301A90CA8B0
:10E260008DF8143007ACFFF78BFD0DF1340CBCE8D2
:10E270000F000FC4DCF80030237006A8FFF792FDF2
:10E2800080B133680DACD3F82490124B07AD0C93DA
:10E290000FCD0FC42B683A462370304643460CA975
:10E2A000C84705460098FEF715FE284613B0BDE89E
:10E2B000F083E368002BC3D14FF6FF70D4F81090C1
:10E2C000FEF7F6FE8145BBD104F11401AAE725460D
:10E2D000E8E700BF8CFB3F0238B5436905461A6882
:10E2E000002A10DAB3F88620B3F884309A420AD1B3
:10E2F00003681B699847044628B92B6828461B6B9E
:10E300009847204638BD0120FCE710B54369044614
:10E31000B3F88620B3F884309A4205D06369B3F825
:10E3200084201344187910BD03681B69984700289E
:10E33000F4D14FF0FF30F6E7F8B543691746B3F86C
:10E340008620B3F8843005469A420E4616D0696995
:10E350003046B1F88430B1F88640E41ABC4228BF98
:10E360003C4604332246194400F0FEFC6A69B2F8C8
:10E3700084302344A2F884302046F8BD03681B692A
:10E3800098470028E3D14FF0FF34F5E700234269B6
:10E39000A2F884304269A2F886307047F0B50C4686
:10E3A0001F4603688BB01B6B054616469847237DB6
:10E3B0000622042B0CBF02200A200121FEF7ACFF2D
:10E3C0006B6918606B691B68002B07DA2B6828469D
:10E3D0001B6B0024984720460BB0F0BD2846FFF782
:10E3E000D5FFB7B1002303A9F8B20393ADF81030FD
:10E3F000FEF7C4FD0028E9D106236869009341F2C5
:10E400000B0240F6FF71006803ABFEF73FFF0028E8
:10E41000DCD11C22002103A800F0CDFC237D042BBD
:10E420001DD14FF407733046ADF80C30FEF74EFEA9
:10E43000ADF80E006068FEF73BFE04906B691C228D
:10E44000186803A9FEF73EFF0028BFD16D690434A8
:10E450008C350FCC0FC5236801242B70BBE740F629
:10E460001C233046ADF80C30FEF730FE05AEADF89B
:10E470000E00231D04F1140732461868596808334A
:10E4800003C2BB421646F7D1D8E7000030B5426957
:10E490000446B2F886308BB02BB1B2F884209A4291
:10E4A00001D1FFF773FF61690868002818DBB1F834
:10E4B00086507F2D14D804310823C5F180022944E9
:10E4C000FEF70EFF002813DD6369B3F886200AB952
:10E4D000A3F884206369B3F886201044A3F886006B
:10E4E0006369B3F88600B3F88430C01A0BB030BD4E
:10E4F000FFF75EF903680B2BF2D0FFF759F90368B9
:10E500000B2BEDD020230025CDE90235FFF750F984
:10E51000036802AA0193084B3220084900932B4656
:10E52000FEF7F6FF63691868FEF7BEFE4FF0FF3294
:10E5300063691A60D4E700BF33FC3F022CFC3F0242
:10E5400010B5436904461868002801DBFEF7ACFEED
:10E550004FF0FF32636900211A60606911228C302C
:10E5600000F029FC2046BDE81040FFF70FBF002354
:10E5700010B504460160C0F884308830FFF7F2FB24
:10E58000204610BD00234FF47A7273B5C0E9013202
:10E590000E4A0361026043610446AC200191FDF71D
:10E5A000B6FD051E05F10C0608D00123C5E90133AF
:10E5B000074B304601992B60FFF7D9FF2046C4E98D
:10E5C0000565FFF7E3FE02B070BD00BF68FC3F02C7
:10E5D0004CFC3F0210B504464FF0FF31FFF7D2FF6D
:10E5E000204610BD10B504460068002801DBFEF788
:10E5F0005BFE204610BD0C30FFF7F4BF00224068E0
:10E600001146FFF703B8002240681146FFF736B8FD
:10E61000002240681146FFF74DB800224068FFF71E
:10E620003BB80022406881F00101FFF719B80023D0
:10E6300040681A461946FFF705B8002340681A4695
:10E640001946FEF7F1BF002240681146FEF7C2BF2F
:10E65000002202214068FEF7CBBF002340681A4623
:10E66000FEF7AABF0422024B5A60024A1A607047A2
:10E67000E0AE0710B8FC3F02002340681A46FEF7E0
:10E680009BBF002202214068FEF7B2BF0022406813
:10E690001146FEF79FBF002240681146FEF7B6BF45
:10E6A000002340681A461946FEF7BEBF00234068A3
:10E6B0001A461946FEF7C6BF00214068FFF708B8A2
:10E6C00000214068FFF712B80022406881F0010184
:10E6D000FEF7C6BF00224068FEF7DEBF002240689A
:10E6E0001146FEF7E7BF002240681146FEF7C6BF9D
:10E6F00000214068FFF716B82DE9F04395B01446A5
:10E700000D460746FFF72EFB00211C220DA80091A5
:10E7100000F051FB402320460C9300216B460CAACD
:10E72000FEF7E6FB044600284BD10246012168684B
:10E73000FEF76CFF0221804622466868FEF766FFFE
:10E7400021468146009E002E3BD0002939D17368B6
:10E75000022B03D00A2B11D0F669F4E7B8F1000FB1
:10E76000FAD0716906A804313C1D07ADFFF73EFBE6
:10E770000FCD0FC42B6841462370EDE7B9F1000FB0
:10E78000EAD0102201A8746900F015FB062301AD40
:10E790008DF8143004F1080318342A4618685968B3
:10E7A000083303C2A3421546F7D101A906A83C1DB0
:10E7B00007ADFFF7E5FA0FCD0FC42B68494623706C
:10E7C000CAE70098FEF786FB384615B0BDE8F0832F
:10E7D000033802289ABF024B53F8200001487047C3
:10E7E000F4FC3F02E8AE071008B500224068FEF7CF
:10E7F0008BFFBDE80840FFF7EBBF0000024B034A68
:10E800001A6000225A607047E8AE071008FD3F0208
:10E81000FEF78ABB1B2837B5044602D9002003B097
:10E8200030BDA0F10F03022B0BD9012821D800F035
:10E830005DF90021007CFEF70DFD80F00100C0B203
:10E84000EDE7114DD5E88F1F11F001010BD12846DE
:10E850000191FDF76FFC019928B10C48FFF716F8FC
:10E860002846FDF76CFC094B1878FEF77FFD002861
:10E87000D4D1083C012C05D800F076F8007CFEF7D6
:10E8800079FCDAE70120CAE7F0AE0710F4AE071012
:10E890001B2838B504460D460AD8FF2908D0FFF7D3
:10E8A000B9FF28B129462046BDE83840FEF72EBB07
:10E8B00038BD38B504460D46FEF736FBFF2810D0AC
:10E8C000062804D84D2323FA00F0C30709D42046B4
:10E8D000FFF7A0FF28B129462046BDE83840FEF7E3
:10E8E00031BB38BD10B50446FEF71EFB031FDBB27B
:10E8F000012B08D92046FFF78DFF20B12046BDE847
:10E900001040FEF72DBB002010BD704738B5142510
:10E9100004462A46002100F04EFA2580402507498A
:10E9200028462581258200F005F9044960602846C3
:10E9300000F000F9E060204638BD00BF44FD3F0212
:10E940007047704710B50446FFF7E0FF204610BD42
:10E9500010B50446FFF7DAFF204610BD10B5044697
:10E96000FFF7D4FF204610BD30B50E4D87B0D5E877
:10E970008F1F11F0010411D12846FDF7DBFB68B1B0
:10E9800001A8FFF7DFFF214601AA0748FFF7FEFABB
:10E990002846FDF7D4FB054800F0E0F9024807B02F
:10E9A00030BD00BFFCAE071008AF07106BEF3F0291
:10E9B00010B50D4C86B0D4E88F3FDB0711D420464C
:10E9C000FDF7B8FB68B101A8FFF7C2FF012101AA5A
:10E9D0000648FFF7DBFA2046FDF7B1FB044800F0DC
:10E9E000BDF9024806B010BD00AF07101CAF0710FC
:10E9F000A3EF3F0210B5FFF7DBFF074B044653B10F
:10EA0000FFF7D8FA38B1236820461B6998470028D9
:10EA100001DD00E000BF10BD0000000010B50D4C8E
:10EA200086B0D4E88F3FDB0711D42046FDF782FB88
:10EA300068B101A8FFF792FF022101AA0648FFF77B
:10EA4000A5FA2046FDF77BFB044800F087F9024851
:10EA500006B010BD04AF071030AF0710A1EF3F02A2
:10EA600010B5FFF7DBFF074B044653B1FFF7A2FADF
:10EA700038B1236820461B699847002801DD00E073
:10EA800000BF10BD0000000010B5084CD4E88F3F57
:10EA9000DB0708D42046FDF74DFB20B1FEF7B4FAA2
:10EAA0002046FDF74CFB024810BD00BF48AF0710E1
:10EAB0004CAF07107047000038B50A4B044603609E
:10EAC000012309494361202000F034F820256060CB
:10EAD00005492846A56000F02DF8C4E90305204645
:10EAE00038BD00BF1800010044FD3F0230B50E4D97
:10EAF00087B0D5E88F1F11F0010411D12846FDF72A
:10EB000019FB68B16846FFF7D7FF6A4621460748F8
:10EB1000FFF780FA2846FDF712FB054800F01EF9C2
:10EB2000024807B030BD00BF50AF071054AF071008
:10EB300015F13F02FDF7EDBA014900F0F9B800BF49
:10EB400060FD3F027FB50024102315461268CDE911
:10EB500002340368CDE900449E696B46B0479DF8D6
:10EB6000043003F00603062B05BF009B012020465E
:10EB70002B6004B070BD0098904214BF01200620A5
:10EB800070470000034B10B50446036000F0CDF859
:10EB9000204610BDA0FD3F0210B50446FFF7F2FF6E
:10EBA00008212046FDF7B7FA204610BD2DE9F041B7
:10EBB000DDF818801F4606461546DDE908349845FD
:10EBC00007D1079900F0B4F818B165710020BDE8CD
:10EBD000F0813946304600F0ABF80028F6D001232A
:10EBE000C4F800802571A371F0E738B515461C46BE
:10EBF00000F09EF820B108232560E360062323710E
:10EC000038BD73B505460C461E46019200F090F8DB
:10EC100050B9032E08D823682946019A20465B691B
:10EC200002B0BDE87040184702B070BD034B10B58C
:10EC300004460360FFF7A6FF204610BD00FE3F021A
:10EC400010B50446FFF7F2FF0C212046FDF763FAEA
:10EC5000204610BDF7B5089F05460E46144697425C
:10EC60000AD0A868314602680897156A2246AC4661
:10EC700003B0BDE8F04060471946019300F058F832
:10EC8000019B0028EDD0062003B0F0BD2DE9F14F27
:10EC90000D461946814617469846DDE90A4BDDE9DF
:10ECA0000CA600F045F890B1002D3460377109DBF7
:10ECB00061198A450CBF06210121B171002001B004
:10ECC000BDE8F08F0235F9D10123B371F6E7544561
:10ECD00006D15946484600F02BF808B17771EDE7A8
:10ECE000D9F808003A4629460368CDE90CA6CDE9D3
:10ECF0000A4BDC694346A44601B0BDE8F04F6047CB
:10ED00002DE9F04107460C4615461E46FFF76DFFFC
:10ED100048B9B8682A46214603689F693346BC460D
:10ED2000BDE8F0416047BDE8F081704700207047C2
:10ED3000814208B50ED0406803782A2B0CD0496870
:10ED40000B782A2B08BF0131FDF7B2F9B0FA80F039
:10ED5000400908BD0120FCE70020FAE70023014636
:10ED60001A46184600F028B90A44431E914200D1C1
:10ED7000704710B511F8014B914203F8014FF9D1DA
:10ED800010BD884210B501EB020402D9844223462B
:10ED900007D8431EA14208D011F8012B03F8012F18
:10EDA000F8E7024401468A4200D110BD13F8014D34
:10EDB00002F8014DF7E702440346934200D1704741
:10EDC00003F8011BF9E7000038B5104B04461D6835
:10EDD000AB6BB3B91820FEF7C1FC0246A86320B99B
:10EDE0000B4B42210B48FEF7F1FC0B490B4BC0E9E2
:10EDF00000130B4B002183600B2383810120C2E9A8
:10EE00000401AB6B00221C615A6138BD9CAC071039
:10EE100039FE3F0250FE3F020E33CDAB34126DE699
:10EE2000ECDE0500034611F8012B03F8012B002A44
:10EE3000F9D1704770B50A4404460E4E8A4201D19A
:10EE4000002013E014F8013B985D00F00300012856
:10EE500011F8010B355C08BF203305F00305012DC7
:10EE600008BF20301B1A02D10028E7D170BD184618
:10EE7000FCE700BFCEFE3F020139034610B532B1B8
:10EE800011F8014F013A03F8014B002CF7D11A4455
:10EE90000021934200D110BD03F8011BF9E70000E7
:10EEA000012B2DE9F04701D0242B06D9FEF780FC79
:10EEB000162303600020BDE8F0870D46DFF8E0C0B0
:10EEC0002E4615F8014B14F80C7017F00807F7D10F
:10EED0002D2C32D12C780127B51C002B5BD0102BA8
:10EEE00009D1302C07D12C7804F0DF04582C4DD1F7
:10EEF0006C781023023507F100484FF0000C08F140
:10EF0000FF386646B8FBF3F903FB198AA4F1300E0B
:10EF1000BEF1090F16D87446A34224DDBCF1000FE0
:10EF20001EDBB1451CD301D1A24519DB06FB03460C
:10EF30004FF0010C15F8014BE8E72B2C04BF2C789F
:10EF4000B51CCAE7A4F1410EBEF1190F01D8373C38
:10EF5000E2E7A4F1610EBEF1190F04D8573CDBE7DC
:10EF60004FF0FF3CE6E7BCF1000F05DA22234646EE
:10EF7000036042B930469EE707B17642002AF9D0D5
:10EF8000BCF1000F00D0691E1160F3E73024002BA4
:10EF9000B1D10823AFE7302CA5D00A23ABE700BFDF
:10EFA000CEFE3F0213460A46014602480068FFF7BC
:10EFB00077BF00BF9CAC07102DE9F843DFF8BC8099
:10EFC00006461F460D46D8F80000914600F058F856
:10EFD000264B1C6834B9264C1C60264B13B11B68A9
:10EFE000C4F8883063681F2B07DDD8F8000000F0F4
:10EFF00049F84FF0FF30BDE8F8835EB3D4F88800DD
:10F0000088B91D4B23B9D8F8000000F03AF8F0E7B2
:10F010004FF48470FEF7A2FB0028F4D00023C0E96F
:10F020004033C4F8880063680122022E40F8239020
:10F0300002FA03F200EB8301D0F8003143EA020345
:10F04000C0F80031C1F8807002BFD0F8043113431A
:10F05000C0F804316368D8F800005A1C02336260BB
:10F0600044F8235000F00EF80020C4E7F4AF071076
:10F0700068AF071000000000BDDD3F0200AD0710C3
:10F08000704770477047000035C73F025DC73F02B9
:10F0900061C73F020000000043616C6C206F6E206E
:10F0A00070757265207669727475616C00436F6E5D
:10F0B0006E656374696E6720746F204D5154542ED1
:10F0C0002E2E20004572726F7220436F64652025DA
:10F0D000730A005265747279696E67204D515454F9
:10F0E00020636F6E6E656374696F6E20696E203584
:10F0F000207365636F6E64732E2E2E0A004D51547B
:10F100005420436F6E6E6563746564210A00506914
:10F110006E67696E67204D515454200A004469732C
:10F12000636F6E6E656374696E67200A0052656373
:10F1300065697665642066726F6D204164616672F0
:10F140007569743A202573200A00427566666572F7
:10F150003A202573200A004275666665723A2030AF
:10F160007825303258200A00523A20307825303243
:10F1700058207C20473A20307825303258207C2097
:10F18000423A20307825303258000A5265643A20DD
:10F19000307825303258207C20477265656E3A20E1
:10F1A000307825303258207C20426C75653A20300A
:10F1B000782530325800676F6F62333300696F2EE5
:10F1C00061646166727569742E636F6D0061696F49
:10F1D0005F45666A5130356F763265764137415109
:10F1E0006F52577971714578714D36384500676FA8
:10F1F0006F6233332F66656564732F636F6C6F7254
:10F2000073005350492F5350493120696E74657211
:10F2100066616365206E6F7420646566696E6564FF
:10F2200021000000506978656C2074797065206E4B
:10F230006F7420737570706F7274656421000000C4
:10F240004E6F7420656E6F756768206D656D6F72A7
:10F250007920617661696C61626C65210000000053
:10F260000000000000000000D3CF3F025FD03F024B
:10F270007FCF3F022DD03F026DD03F0293CF3F02A0
:10F28000D5CF3F0244726F70706564206120706159
:10F29000636B657400556E6B6E6F776E206572726E
:10F2A0006F72004D515454004661696C656420745E
:10F2B0006F2073756273637269626500436F6E6E6F
:10F2C000656374696F6E206661696C65640054687B
:10F2D000652053657276657220646F6573206E6F6A
:10F2E0007420737570706F727420746865206C651B
:10F2F00076656C206F6620746865204D51545420EB
:10F3000070726F746F636F6C207265717565737462
:10F3100065640054686520436C69656E7420696497
:10F32000656E74696669657220697320636F7272B5
:10F33000656374205554462D3820627574206E6FB5
:10F340007420616C6C6F77656420627920746865E5
:10F350002053657276657200546865204D5154548F
:10F36000207365727669636520697320756E6176B6
:10F3700061696C61626C65005468652064617461E8
:10F3800020696E207468652075736572206E616DEA
:10F3900065206F722070617373776F726420697378
:10F3A000206D616C666F726D6564004E6F742061D4
:10F3B0007574686F72697A656420746F20636F6E0C
:10F3C0006E65637400457863656564656420726585
:10F3D000636F6E6E6563742072617465206C696D15
:10F3E00069742E20506C6561736520747279206198
:10F3F0006761696E206C617465722E00596F7520AB
:10F4000068617665206265656E2062616E6E656416
:10F410002066726F6D20636F6E6E656374696E67D0
:10F420002E20506C6561736520636F6E7461637428
:10F4300020746865204D515454207365727665724E
:10F440002061646D696E6973747261746F72206695
:10F450006F72206D6F72652064657461696C732EC4
:10F46000000000000000000000000000000000009C
:10F47000000000007DC73F027DC73F027DC73F02FD
:10F480007DC73F027DC73F0208F93F021CF93F02DA
:10F49000F5F83F022EF93F0273F93F02B8F93F0237
:10F4A000D8F93F020BFA3F0225FA3F025CFA3F020D
:10F4B0000000000000000000C3DE3F02B9DE3F0292
:10F4C000AFDE3F02A5DE3F0299DE3F028DDE3F0246
:10F4D00019ED3F0221ED3F0281DE3F0279DE3F025E
:10F4E0006FDE3F0265DE3F0249EE3F0251ED3F0213
:10F4F00059ED3F02000810182028303800000000A5
:10F50000000000006170700025592D256D2D2564C7
:10F510005425483A254D3A2553257A006173637482
:10F52000696D6500000000000000000061E33F021B
:10F5300051E33F0253E33F020000000000000000DF
:10F5400073E43F02DBE43F02B1E43F0221E03F020B
:10F55000A3E43F0275E43F0285E43F02D5E43F02A5
:10F5600073E13F0295E43F026DE43F0200000000BA
:10F570000000000071E53F02DDE53F02B5E53F0216
:10F5800021E03F0285E53F02A1E53F0293E53F020E
:10F59000AFE53F0273E13F0273E53F0277E53F02CB
:10F5A00000000000000000001BE63F0265E63F028D
:10F5B0003DE63F021DE63F0245E63F024DE63F02C3
:10F5C00055E63F025DE63F0273E13F0277697269EB
:10F5D0006E670072656376206572726F72203D20DF
:10F5E00025640000000000000000000051E73F0219
:10F5F00075E73F0257EC3F0283E73F0255E73F02C2
:10F600000000000000000000C9E13F02E1E13F020C
:10F61000CDE63F02E7E63F02EDEA3F0211E73F0297
:10F620006BE93F0245E73F0273E13F02FDE93F021C
:10F630003DE83F0299E93F02A1EB3F0239E93F0271
:10F6400047E73F02F9E63F0289E73F021DE83F0234
:10F650000000000000000000BBEC3F02B1EC3F02E4
:10F66000A7EC3F025DEC3F029BEC3F028FEC3F02B8
:10F6700019ED3F0221ED3F0283EC3F027BEC3F029C
:10F6800071EC3F0267EC3F0249EE3F0251ED3F0251
:10F6900059ED3F0278AE0710E0AE0710E8AE071054
:10F6A0000000000000000000D9EC3F02E3EC3F0244
:10F6B000EDEC3F02F7EC3F0201ED3F020DED3F02A2
:10F6C00019ED3F0221ED3F0229ED3F0235ED3F02EA
:10F6D0003DED3F0247ED3F0249EE3F0251ED3F0253
:10F6E00059ED3F0200537431395F53705F6D616BA8
:10F6F000655F7368617265645F7461670000000034
:10F70000A0FD3F0245FD3F0200FE3F0274FD3F02A7
:10F7100024FE3F024E31305F5F6378786162697624
:10F720003131375F5F636C6173735F747970655FEC
:10F73000696E666F450000000000000068FD3F0232
:10F74000E5F13F02F9F13F028DF33F028DF33F02F5
:10F7500063F23F02A5F13F024BF23F020DF23F027E
:10F76000D7F13F0200FE3F02D0FD3F0268FD3F029D
:10F770004E31305F5F637878616269763132305F35
:10F780005F73695F636C6173735F747970655F69E0
:10F790006E666F450000000000000000C4FD3F02DF
:10F7A0008DF23F02A1F23F028DF33F028DF33F0243
:10F7B00063F23F02A5F13F0261F33F02EDF23F0227
:10F7C000B5F23F02A0FD3F022CFE3F025374397494
:10F7D0007970655F696E666F005245454E54206DC5
:10F7E000616C6C6F63207375636365656465640049
:10F7F0002F6D6E742F776F726B73706163652F77E7
:10F800006F726B73706163652F4743432D31302DE9
:10F81000706970656C696E652F6A656E6B696E7371
:10F820002D4743432D31302D706970656C696E65CD
:10F830002D34385F32303230313132345F3136304E
:10F84000363138303634312F7372632F6E65776CF2
:10F8500069622F6E65776C69622F6C6962632F73C2
:10F8600074646C69622F72616E642E6300002020E4
:10F870002020202020202028282828282020202060
:10F880002020202020202020202020202020881020
:10F890001010101010101010101010101010040480
:10F8A0000404040404040404101010101010104187
:10F8B00041414141410101010101010101010101F8
:10F8C000010101010101010101101010101010428D
:10F8D00042424242420202020202020202020202C8
:10F8E00002020202020202020210101010200000A6
:10F8F0000000000000000000000000000000000008
:10F9000000000000000000000000000000000000F7
:10F9100000000000000000000000000000000000E7
:10F9200000000000000000000000000000000000D7
:10F9300000000000000000000000000000000000C7
:10F9400000000000000000000000000000000000B7
:10F9500000000000000000000000000000000000A7
:10F960000000000000000000000000000000000097
:10F97000A9CA3F02CDDE3F02C5DF3F0211E03F02D0
:10F980009DE13F02ADE13F02F5E13F02B1E63F02FA
:08F99000C5EC3F025DEE3F02F1
:10F9980000000002AE0000007CFB3F02A0AC071094
:10F9A800000000000000000000000000000000004F
:10F9B800000000000000000000000000000000003F
:10F9C800000000000000000000000000000000002F
:10F9D800000000000000000000000000000000001F
:10F9E800000000000000000000000000000000000F
:10F9F80000000000000000000000000000000000FF
:04FA0800F8AF07103C
:04FA0C0000000000F6
:10FFBE000200100000C05F08A8C05F0808C73F021B
:10FFCE0001000A00FFFFFFFFFFFF00000102030414
:10FFDE0005060708090A0B0C0D0E0F10111213144B
:0EFFEE0015161718191A1B1C1D1E1F203E0089
:04FFFC0078563412ED
:04000005085FC018B8
:00000001FF
